:020000040800F2
:10000000ACAD012069020008C5020008C502000865
:10001000C5020008C5020008C50200080000000073
:10002000000000000000000000000000C502000801
:10003000C502000800000000C5020008C502000853
:10004000C5020008C5020008C5020008C502000874
:10005000C5020008C5020008C5020008C502000864
:10006000C5020008C5020008C5020008C502000854
:10007000C5020008C5020008C5020008C502000844
:10008000C5020008C5020008C5020008C502000834
:10009000C5020008C5020008C5020008C502000824
:1000A000C5020008C5020008C5020008C502000814
:1000B0006D070008CD060008C5020008C50200084B
:1000C000C5020008C5020008C5020008C5020008F4
:1000D000C5020008C5020008C5020008C5020008E4
:1000E000C5020008C5020008C5020008C5020008D4
:1000F000C5020008C5020008C5020008C5020008C4
:10010000C5020008C50200086D0D0008C502000800
:10011000C5020008C5020008C5020008C5020008A3
:10012000C5020008C5020008C5020008C502000893
:10013000C5020008C5020008C5020008C502000883
:10014000C5020008C5020008C5020008C502000873
:10015000C5020008C5020008C5020008C502000863
:10016000C5020008C5020008C5020008C502000853
:10017000C5020008C5020008C5020008C502000843
:10018000C5020008C502000880B485B000AF7860E1
:1001900039600023FB600023BB60134B1B68FB60CE
:1001A00040F6FE727B6802FA03F3DB43FA68134001
:1001B000FB603B681A683B685B681A433B689B6856
:1001C0001A433B68DB681343BB60BA687B6802FA7A
:1001D00003F3FA681343FB60034AFB68136000BF34
:1001E0001437BD4680BC70470074004080B483B0B3
:1001F00000AF78600B46FB70FB78002B09D00C49F0
:100200000B4B1A6801207B6800FA03F313430B6061
:1002100009E00749064B1A6801207B6800FA03F3DE
:10022000DB4313400B6000BF0C37BD4680BC7047FA
:100230000074004080B485B000AF78600B467B80CE
:100240000023FB60074BFB60FA687B6813440833AC
:10025000FB60FB681A467B88136000BF1437BD46FD
:1002600080BC70470074004080B582B000AF104B76
:100270007B60104B3B6007E03B681A1D3A607A6870
:10028000111D796012681A603B680B4A9342F3D3E0
:100290000A480B494FF000028842B8BF40F8042BCF
:1002A000FADB00F091FD00BF0837BD4680BD00BFFE
:1002B000C8D300080000002054930120549301206B
:1002C000ACA5012080B400AFFEE700BF80B58EB0C2
:1002D00000AF0121082000F0EFFE0121022000F014
:1002E000EBFE0121012000F0E7FE0121082000F0D3
:1002F00001FF0121022000F0FDFE0121012000F09C
:10030000F9FE4FF470433B63012387F83430002338
:1003100087F83630032387F83530002387F83730E5
:1003200007F1300319466A480CF082F92C233B632D
:10033000002387F83430012387F8373007F1300382
:10034000194664480CF074F902233B63002387F8D4
:100350003430012387F8373007F1300319465E48FF
:100360000CF066F942F2CF03BB6242F22733BB8442
:100370000023BB851023FB8407F12403194657484B
:100380000CF09EFC4FF4C0600CF026FB1D2387F898
:100390002030002387F82130002387F82230012302
:1003A00087F8233007F1200318460CF027FB0121C2
:1003B0004A480CF07BFD0122012148480CF018FD51
:1003C00042F2CF03BB6140F2CF73BB820023BB83F9
:1003D0000023FB8207F1140319464FF080400CF014
:1003E0006FFC1C233B7400237B740023BB7401232C
:1003F000FB7407F1100318460CF000FB01214FF0CD
:1004000080400CF053FD012201214FF080400CF0A0
:10041000EFFC42F21073BB620023BB840023BB8558
:100420000023FB8407F1240319462D480CF048FCF7
:1004300000212B480CF0BCFC322387F8203000232D
:1004400087F82130002387F82230012387F82330F2
:1004500007F1200318460CF0D1FA012120480CF0D6
:1004600025FD012201211E480CF0C2FC01210120C2
:1004700000F022FE01214FF0005000F03BFE10235F
:100480003B63032387F83430032387F83530002398
:1004900087F8373007F1300319460E480CF0C8F8DA
:1004A00000233B6000237B600023BB600023FB60D4
:1004B0003B4619460020FFF767FE01210020FFF7A9
:1004C00095FE0CF0CBFE00BF3837BD4680BD00BFA7
:1004D000000C024000000240000402400004004002
:1004E000000C004080B500AF042134480CF02EF918
:1004F0000346002B0DD14FF4805131480CF040F9E8
:10050000304B01221A7001214FF080400CF050FC5A
:1005100004E04FF480512A480CF040F908212748A4
:100520000CF014F90346002B0DD1274B01221A7051
:1005300001214FF080400CF03BFC4FF4005120486B
:100540000CF01EF904E04FF400511D480CF026F9A0
:1005500020211A480CF0FAF80346002B0DD11B4B52
:1005600001221A7001214FF080400CF021FC4FF461
:10057000804113480CF004F904E04FF48041104826
:100580000CF00CF9022112480CF0E0F80346002BA5
:100590000DD1104B01221A7001214FF080400CF058
:1005A00007FC4FF4004106480CF0EAF804E04FF471
:1005B000004103480CF0F2F800BF80BD000002408B
:1005C000000C0240549301205593012056930120C2
:1005D000000402405793012080B500AF0421344845
:1005E0000CF0B4F80346002B0DD1324B01221A70E7
:1005F00001214FF080400CF0DBFB4FF400512E48FE
:100600000CF0BEF804E04FF400512B480CF0C6F893
:10061000082127480CF09AF80346002B0DD1274BF0
:1006200001221A7001214FF080400CF0C1FB4FF401
:10063000005121480CF0A4F804E04FF400511E488A
:100640000CF0ACF820211A480CF080F80346002B7F
:100650000DD11B4B01221A7001214FF080400CF08C
:10066000A7FB4FF4804114480CF08AF804E04FF4E3
:10067000804111480CF092F8022112480CF066F803
:100680000346002B0DD1104B01221A7001214FF0AF
:1006900080400CF08DFB4FF4004107480CF070F8DF
:1006A00004E04FF4004104480CF078F800BF80BD2E
:1006B000000002405A930120000C02405893012090
:1006C00059930120000402405C93012080B500AFE3
:1006D000012121480CF0C0FB0346002B3AD01F4BF0
:1006E0001B78002B07D01E4B01221A700AF036F837
:1006F0001A4B00221A7008F049FB1A4B1B78002B8A
:1007000005D0194B1B680133174A136002E0164BE2
:1007100000221A60144B1B68012B02D1104B0022DF
:100720001A70114B1B68022B0AD10E4B00221A7053
:100730000D4B00221A6004F01BFF084B01221A70B7
:1007400004F0BEFF012104480CF076FB01210248B1
:100750000CF0ACFB00BF80BD0004004030930120D2
:1007600031930120709301206493012080B582B001
:1007700002AF01214FF080400CF06EFB0346002BCE
:1007800000F0EA829C4B1B78002B04D005F0A4FA01
:10079000994B00221A70994B1B78002B04D006F05D
:1007A00061FF964B00221A70954B1B78002B04D0EA
:1007B00008F0ECFA924B00221A70924B1B78002B37
:1007C00004D00AF0DDFD8F4B00221A708E4B1B788F
:1007D000002B00F0D7808D4B1B68002B1BD18C4B5E
:1007E0001B6803222F21184603F048FB884B1B6827
:1007F0004A2B03D1864B32221A6004E0844B1B68DB
:100800000C33834A1360824B1B6803222F21184646
:1008100003F0CCFAB1E07D4B1B68012B40F0AD80BA
:100820007C4B1B68032B00F2A88001A252F823F036
:100830004108000889080008D708000829090008AD
:10084000754B1968744B1B681A1F002300931346DD
:100850003A22322004F06EFF704B1B6801336F4A5E
:1008600013606E4B1B681B2B02D16C4B01221A606C
:10087000694B1968694B1A680123009313460422D7
:10088000322002F071FC78E0634B1B68991F624BC9
:100890001B68A3F10A020023009313463A22322078
:1008A00004F048FF5E4B1B6801335D4A13605C4BEC
:1008B0001B681B2B02D15A4B01221A60564B1B6836
:1008C000991F574B1A6801230093134604223220C4
:1008D00002F04AFC51E0504B1B68A3F10C014E4B57
:1008E0001B68A3F110020023009313463A22322022
:1008F00004F020FF4B4B1B6801334A4A1360494BFD
:100900001B681B2B02D1474B01221A60424B1B680C
:10091000A3F10C01434B1A680123009313460422F0
:10092000322002F021FC28E03B4B1B68A3F11201AE
:10093000394B1B68A3F116020023009313463A2299
:10094000322004F0F7FE384B1B680133364A13603F
:10095000354B1B681B2B02D1334B01221A602E4BE7
:100960001B68A3F11201304B1A6801230093134650
:100970000422322002F0F8FB00BF04F0A1FE224B5B
:1009800000221A70294B1B78002B00F0F3801F4BBC
:100990001B68002B1BD11E4B1B6803222F211846FE
:1009A00003F06CFA1A4B1B68322B03D1184B4A2206
:1009B0001A6004E0164B1B680C3B154A1360144B7D
:1009C0001B6803222F21184603F0F0F9CDE00F4BEE
:1009D0001B68012B40F0C9800E4B1B68032B00F2F3
:1009E000C48001A252F823F0310A0008790A0008F5
:1009F000C70A0008190B00085493012055930120E1
:100A000056930120579301205893012060930120B1
:100A1000349301206C9301204893012038930120E6
:100A20003C930120409301204493012059930120DD
:100A3000A24B1968A14B1B681A1F00230093134691
:100A40003A22322004F076FE9D4B1B68013B9C4A03
:100A500013609B4B1B68002B02D1994B1A221A6022
:100A6000964B1968964B1A6801230093134604228B
:100A7000322002F079FB78E0904B1B68991F8F4B76
:100A80001B68A3F10A020023009313463A22322086
:100A900004F050FE8B4B1B68013B8A4A1360894B64
:100AA0001B68002B02D1874B1A221A60834B1B68EC
:100AB000991F844B1A6801230093134604223220A5
:100AC00002F052FB51E07D4B1B68A3F10C017B4B04
:100AD0001B68A3F110020023009313463A22322030
:100AE00004F028FE784B1B68013B774A1360764B75
:100AF0001B68002B02D1744B1A221A606F4B1B68C3
:100B0000A3F10C01704B1A680123009313460422D1
:100B1000322002F029FB28E0684B1B68A3F1120188
:100B2000664B1B68A3F116020023009313463A227A
:100B3000322004F0FFFD654B1B68013B634A1360E4
:100B4000624B1B68002B02D1604B1A221A605B4B70
:100B50001B68A3F112015D4B1A6801230093134631
:100B60000422322002F000FB00BF04F0A9FD584B24
:100B700000221A70574B1B78002B1BD0564B1B685A
:100B8000002B14D1554B1B68322B02D1524B012242
:100B90001A60524B1B683E2B02D14F4B03221A6046
:100BA0004E4B1B684A2B02D14B4B05221A60494B16
:100BB00000221A704A4B1B78002B00F0BC80464B79
:100BC0001B68012B40F0B280464B1B68032B00F2E0
:100BD000AD8001A252F823F0E90B00082D0C0008AB
:100BE000750C0008E90C0008344B1B6804221946F8
:100BF000322002F07BFF314B1B6804221946322061
:100C000003F05EF8374B01221A602C4B1B68063B41
:100C100004221946322002F0F5FE284B1B68063BE1
:100C200004221946322002F0D5FF7FE0234B1B68D7
:100C3000063B04221946322002F058FF1F4B1B6866
:100C4000063B04221946322003F03AF8254B0222D3
:100C50001A601A4B1B680C3B04221946322002F022
:100C6000D1FE164B1B680C3B04221946322002F0C1
:100C7000B1FF5BE0114B1B680C3B0422194632208C
:100C800002F034FF0D4B1B680C3B04221946322046
:100C900003F016F8134B03221A60084B1B68123B33
:100CA00004221946322002F0ADFE044B1B68123BB1
:100CB00004221946322002F08DFF37E048930120CC
:100CC000389301203C93012040930120449301205C
:100CD000599301205A9301206093012034930120FD
:100CE0005C9301206C9301201D4B1B68123B042276
:100CF0001946322002F0FAFE194B1B68123B0422FF
:100D00001946322002F0DCFF164B00221A60144B09
:100D10001B6804221946322002F074FE104B1B6837
:100D200004221946322002F055FF00BF04F0C8FC2F
:100D30000D4B00221A7004F0C3FC00214FF08040DC
:100D40000CF036F800214FF080400CF023F8012120
:100D50004FF080400CF0AAF800BFBD4680BD00BF38
:100D6000489301206C9301205C93012080B500AF73
:100D7000012111480CF070F80346002B19D00F4BDD
:100D80001B680F4AD35C9BB219460020FFF752FA4A
:100D90000A4B1B680133094A1360084B1B68094A58
:100DA000934202D1054B00221A60012102480CF047
:100DB0007DF800BF80BD00BF000C0040689301209B
:100DC000000000203E93010080B582B002AFFFF723
:100DD0007DFA0BF0F1FC38200CF052F90BF000FC1E
:100DE00000F0F2F933E1A04B1B68032B00F22F81D6
:100DF00001A252F823F000BF090E0008250E0008DA
:100E0000250F00082710000804F068FA974B1B68AC
:100E100003222F21184602F0C9FFFFF7DDFB04F083
:100E20004FFC14E104F01EFC904B1B6803222F21A1
:100E3000184603F023F8002300932F2353220021A8
:100E4000002004F077FC012304222D21142004F05B
:100E5000F1F9874B1968874B1A68012300931346F1
:100E60000422322002F080F9814B1B68991F824BCB
:100E70001A680123009313460422322002F074F909
:100E80007B4B1B68A3F10C017C4B1A680123009378
:100E900013460422322002F067F9754B1B68A3F158
:100EA0001201774B1A680123009313460422322063
:100EB00002F05AF9734B00221A606D4B1B68042232
:100EC0001946322002F09EFD694B1B680422194628
:100ED000322002F07FFE04F0F3FB01E0FFF77CFB21
:100EE000694B1B7883F00103DBB2002BF6D1614B19
:100EF0001B68664A02FB03F25F4B1B6842F21071EB
:100F000001FB03F31A445D4B1B68642101FB03F3EF
:100F10001A445B4B1B6813445D4A1360524B022218
:100F20001A6094E004F09EFB02F028FD00222F21BD
:100F3000002004F0AFFC012304222A21262003F024
:100F40008FFF01E0FFF748FB524B1B7883F0010352
:100F5000DBB2002BF6D104F085FB02F00FFD00227E
:100F60002F21002004F096FC4B4B00221A704B4BB3
:100F700001221A704A4B01221A704A4B00221A6051
:100F8000012149480BF014FF012148480BF010FFE4
:100F900005E0424B1B78002B01D0FFF7A3FA3E4B34
:100FA0001B7883F00103DBB2002BF2D13C4B012212
:100FB0001A7000213C480BF0FBFE00213B480BF06F
:100FC000F7FE002300930B233B222621232004F06D
:100FD000B1FB012304222421262004F0C5F804F0EB
:100FE0006FFB334B1B68002B07DD314B1A68284B16
:100FF0001B681946104600F09BF82D4B00221A6022
:10100000234B00221A6001E0FFF7E6FA214B1B7820
:1010100083F00103DBB2002BF6D104F023FB124B6B
:1010200000221A6013E004F01DFB00F019F901E042
:10103000FFF7D2FA174B1B7883F00103DBB2002BCA
:10104000F6D104F00FFB084B00221A6000BF194BC9
:101050001B7883F00103DBB2002B7FF4C4AE0023C6
:101060001846BD4680BD00BF609301203493012027
:1010700048930120389301203C93012040930120A4
:10108000449301206C9301205A93012040420F00A9
:10109000CC9301205C9301207193012031930120B6
:1010A000309301206893012000040040000C0040B0
:1010B000749301205D93012080B483B000AF786009
:1010C0000B46FB70FB78002B06D00949084B1A6BC6
:1010D0007B6813430B6306E00549054B1A6B7B687D
:1010E000DB4313400B6300BF0C37BD4680BC704729
:1010F0000038024080B483B000AF78600B46FB70CC
:10110000FB78002B06D00949084B1A6C7B68134307
:101110000B6406E00549054B1A6C7B68DB43134002
:101120000B6400BF0C37BD4680BC704700380240DE
:1011300080B485B000AF786039600023FB6039E08F
:10114000204AFB6852F833207B689A422FDCFB6808
:10115000BB601CE0BB68C3F10603BA68C2F10502BC
:10116000184951F83220174941F83320BB68C3F1C0
:101170000601BB68C3F10503124ADB0013445A6839
:101180001048CB0003445A60BB680133BB60BB68A6
:10119000062BDFDD0B49FB687A6841F83320094AEA
:1011A000FB68DB0013443A685A600A23FB60FB6863
:1011B0000133FB60FB68062BC2DD00BF1437BD4660
:1011C00080BC70477893012080B400AF164B00229A
:1011D0001A60154B154A5A60134B00229A60124B45
:1011E000124ADA60104B00221A610F4B0F4A5A6103
:1011F0000D4B00229A610C4B0C4ADA610A4B00221B
:101200001A62094B094A5A62074B00229A62064B3E
:10121000064ADA62044B00221A63034B034A5A63FC
:1012200000BFBD4680BC704778930120C78AA900E3
:1012300080B485B000AF786039600123FB6004E0C2
:10124000FB687A6802FB03F3FB603B685A1E3A6056
:10125000002BF5D1FB6818461437BD4680BC70479B
:1012600090B58FB002AF0523BB612F237B610023B4
:10127000FB6216E0BB69191DFA6A13469B00134412
:101280005B001344CA187B69D91E8F4813465B0064
:1012900013441B0103440B4401221A70FB6A0133FF
:1012A000FB62FB6A062BE5DD012302227969B8693E
:1012B00002F06AF8BB6903F10B000123022279698D
:1012C00002F0A6F8BB6903F1160001230222796936
:1012D00002F02CF9BB6903F1210001230222796994
:1012E00002F09AF9BB6903F12C000123022279690B
:1012F00002F006FABB6903F1370001230222796983
:1013000002F010FABB6903F142000123022279695D
:1013100002F098FA3B1D00221A605A609A60DA6067
:101320000023BB6200237B6200233B62C2E0674A6A
:101330003B6ADB0013445B687B62644A3B6A52F899
:101340003330634A82FB03129211DB17D31A7B609E
:101350005E4A3B6A52F833207B685E4901FB03F327
:1013600013445D4A82FB03125211DB17D31ABB6090
:10137000564A3B6A52F833207B68564901FB03F317
:101380001A44BB686FF0630101FB03F31344534A33
:1013900082FB03129210DB17D31AFB604B4A3B6AA5
:1013A00052F833207B684B4901FB03F31A44BB68B6
:1013B0006FF0630101FB03F31A44FB686FF009014E
:1013C00001FB03F313443B610023FB616CE0FB6909
:1013D000642202FB03F3002B09D0F9696420FFF7B4
:1013E00027FF02463E4B93FBF2F3BB6201E03C4B0E
:1013F000BB623A6A13469B0013445B001A44BB6904
:10140000D018FA6913469B00134406337A69D11A3F
:101410007A6ABB6A92FBF3F201230093134602221D
:1014200001F0A2FEFB69002B0AD17A6ABB6A92FB2B
:10143000F3F32C4A02FB03F37A6A13447B6210E055
:101440007A6ABB6A92FBF3F4F9696420FFF7F0FE55
:101450000246234B93FBF2F303FB04F37A6AD31A9D
:101460007B623A6A13469B0013445B001A44BB69D3
:10147000D018FB695A1C13469B079B1A9B009A1AAB
:101480007B691344A3F11701FB699B0007F130024C
:10149000134453F82C2C012300931346022204F02A
:1014A0008DF9FB690133FB61FB69032B8FDD3B6A1F
:1014B00001333B623B6A062B7FF739AF04F000F93A
:1014C00000BF3437BD4690BDD093012078930120F2
:1014D000D34D621018FCFFFF1F85EB5167666666EF
:1014E00040420F00C0BDF0FF80B483B000AF786011
:1014F0007B68002B02DA7B685B427B607B68184666
:101500000C37BD4680BC704780B48BB000AFF8602C
:10151000B9607A60FB7000237B620FE0BA687B6A77
:10152000D11A4B48FA6813465B0013441B0103446D
:101530000B44FA781A707B6A01337B627B685A1C11
:101540007B6A9A42EADC00233B6211E0FA683B6A5C
:101550001A44B9687B68C91A3D4813465B001344B6
:101560001B0103440B44FA781A703B6A01333B6257
:101570007B685A1C3B6A9A42E8DC0023FB6113E05B
:10158000FA687B681A44FB691A44B9687B68C91A0F
:101590002F4813465B0013441B0103440B44FA78A5
:1015A0001A70FB690133FB617B685A1CFB699A4224
:1015B000E6DC0023BB6111E0FA687B681A44BB6972
:1015C0001A44234913465B0013441B01CA18BB6825
:1015D0001344FA781A70BB690133BB617B685A1CEB
:1015E000BB699A42E8DC00237B610FE0FA687B6903
:1015F0001A44174913465B0013441B01CA18BB6801
:101600001344FA781A707B6901337B617A697B68CD
:101610009A42EBDB00233B6111E0FA687B681A44D5
:10162000B9683B69C91A0A4813465B0013441B0199
:1016300003440B44FA781A703B6901333B613A6901
:101640007B689A42E9DB00BF2C37BD4680BC7047FF
:10165000D093012080B586B000AFF860B9607A60A1
:10166000FB70FB787A68B968F86800F07DFD0023AC
:101670007B6111E0FA687B681A44B9687B69C91A12
:10168000184813465B0013441B0103440B44FA78CB
:101690001A707B6901337B617A697B689A42E9DB66
:1016A000FA687B681A447B681A44B9687B68C91A6F
:1016B0000C4813465B0013441B0103440B440022F7
:1016C0001A70BA687B68D11A0648FA6813465B003C
:1016D00013441B0103440B4400221A7000BF183747
:1016E000BD4680BDD093012080B489B000AFF860C2
:1016F000B9607A60FB700023FB610FE0BA68FB6998
:10170000D11A2548FA6813465B0013441B010344B1
:101710000B44FA781A70FB690133FB617B685A1C31
:10172000FB699A42EADC0023BB610FE0FA68BB69FF
:101730001A44194913465B0013441B01CA18BB68BD
:101740001344FA781A70BB690133BB617B685B0094
:101750005A1CBB699A42E9DC00237B6112E07B687A
:101760005A00FB681A44B9687B69C91A0A481346CB
:101770005B0013441B0103440B44FA781A707B6925
:1017800001337B617B685A1C7B699A42E7DC00BFAE
:101790002437BD4680BC7047D093012080B584B00B
:1017A00000AFF860B9607A60FB70FB787A68B9685E
:1017B000F86800F0D9FCFA687B681A447B681A4420
:1017C000B9687B68C91A0D4813465B0013441B01B6
:1017D00003440B4400221A70BA687B68D11A074888
:1017E000FA6813465B0013441B0103440B440022B8
:1017F0001A7000BF1037BD4680BD00BFD0930120D6
:1018000080B489B000AFF860B9607A60FB700023E3
:10181000FB610FE0BA68FB69D11A3248FA681346D7
:101820005B0013441B0103440B44FA781A70FB69F4
:101830000133FB617B685A1CFB699A42EADC002396
:10184000BB610FE0FA68BB691A44264913465B0086
:1018500013441B01CA18BB681344FA781A70BB6999
:101860000133BB617B685B005A1CBB699A42E9DCAF
:1018700000237B6111E0FA687B681A44B9687B69D0
:10188000C91A184813465B0013441B0103440B4458
:10189000FA781A707B6901337B617B685A1C7B691B
:1018A0009A42E8DC00233B6112E07B685A00FB6847
:1018B0001A44B9683B69C91A0A4813465B001344C5
:1018C0001B0103440B44FA781A703B6901333B61F6
:1018D0007B685A1C3B699A42E7DC00BF2437BD464F
:1018E00080BC7047D093012080B489B000AFF8600D
:1018F000B9607A60FB700023FB610FE0BA68FB6996
:10190000D11A2548FA6813465B0013441B010344AF
:101910000B44FA781A70FB690133FB617B685A1C2F
:10192000FB699A42EADC0023BB610FE0FA68BB69FD
:101930001A44194913465B0013441B01CA18BB68BB
:101940001344FA781A70BB690133BB617B685B0092
:101950005A1CBB699A42E9DC00237B6111E0FA68FA
:101960007B681A44B9687B69C91A0B4813465B0047
:1019700013441B0103440B44FA781A707B6901334A
:101980007B617B685A1C7B699A42E8DC00BF243784
:10199000BD4680BC704700BFD093012080B586B0A3
:1019A00000AFF860B9607A60FB70FB787A68B9685C
:1019B000F868FFF799FE00237B6117E0FA687B68FF
:1019C0001A447B68D90F0B445B101946BB68591A3F
:1019D0007B69C91A194813465B0013441B01034471
:1019E0000B44FA781A707B6901337B617B68DA0FEC
:1019F00013445B105A1C7B699A42DFDC00233B6175
:101A000013E0FA687B681A443B691A44B9687B683A
:101A1000C91A0A4813465B0013441B0103440B44D4
:101A2000FA781A703B6901333B613A697B689A42E4
:101A3000E7DB00BF1837BD4680BD00BFD093012053
:101A400080B489B000AFF860B9607A60FB700023A1
:101A5000FB610FE0FA68FB691A44264913465B00F4
:101A600013441B01CA18BB681344FA781A70FB6947
:101A70000133FB617B685B005A1CFB699A42E9DC1D
:101A80000023BB6111E0FA68BB691A44B9687B683E
:101A9000C91A184813465B0013441B0103440B4446
:101AA000FA781A70BB690133BB617B685B005A1C12
:101AB000BB699A42E7DC00237B6111E0FA687B682E
:101AC0001A44B9687B69C91A0A4813465B00134473
:101AD0001B0103440B44FA781A707B6901337B6164
:101AE0007A697B689A42E9DB00BF2437BD4680BC37
:101AF000704700BFD093012080B487B000AFF8607A
:101B0000B9607A60FB7000237B6115E0FA687B693D
:101B10001A447B68D90F0B445B101946BB68591AED
:101B20000B4813465B0013441B0103440B44FA7833
:101B30001A707B6901337B617B685B005A1C7B698F
:101B40009A42E3DC00BF1C37BD4680BC704700BF33
:101B5000D093012080B489B000AFF860B9607A609A
:101B6000FB700023FB6111E0FA68FB691A44B96855
:101B70007B68C91A254813465B0013441B010344C4
:101B80000B44FA781A70FB690133FB617B685B00D8
:101B90005A1CFB699A42E7DC0023BB6114E07B68B6
:101BA0005A00FB681A44B9687B68C91ABB691944B2
:101BB000164813465B0013441B0103440B44FA7898
:101BC0001A70BB690133BB61BA697B689A42E6DB74
:101BD00000237B6111E0FA687B681A447B691A4430
:101BE0000A4913465B0013441B01CA18BB6813441F
:101BF000FA781A707B6901337B617A697B689A4253
:101C0000E9DB00BF2437BD4680BC7047D09301207C
:101C100080B489B000AFF860B9607A60FB700023CF
:101C2000FB6111E0FA687B681A44FB691A44404979
:101C300013465B0013441B01CA18BB681344FA78AF
:101C40001A70FB690133FB617B685A1CFB699A427D
:101C5000E8DC0023BB610FE0FA68BB691A44344931
:101C600013465B0013441B01CA18BB681344FA787F
:101C70001A70BB690133BB61BA697B689A42EBDBBE
:101C800000237B6113E0FA687B681A447B69D21AEF
:101C9000B9687B69C91A264813465B0013441B01C7
:101CA00003440B44FA781A707B6901337B617A69CB
:101CB0007B689A42E7DB00233B6113E0FA687B68AC
:101CC0001A443B691A44B9683B69C91A1848134653
:101CD0005B0013441B0103440B44FA781A703B6900
:101CE00001333B613A697B689A42E7DBBA687B68FB
:101CF000D11A0F48FA6813465B0013441B010344D2
:101D00000B44FA781A707B685A00FB681A44B96869
:101D10007B68C91A064813465B0013441B01034441
:101D20000B44FA781A7000BF2437BD4680BC704758
:101D3000D093012080B487B000AFF860B9607A60BA
:101D4000FB7000237B610FE0FA687B691A441A4933
:101D500013465B0013441B01CA18BB681344FA788E
:101D60001A707B6901337B617B685B005A1C7B695D
:101D70009A42E9DC00233B6114E07B685A00FB686F
:101D80001A44B9687B68C91A3B6919440A48134662
:101D90005B0013441B0103440B44FA781A703B693F
:101DA00001333B613A697B689A42E6DB00BF1C372E
:101DB000BD4680BC704700BFD093012080B48DB079
:101DC00000AFF860B9607A60FB707B68022B43D18A
:101DD0000023FB620FE0FA68FB6A1A445E4913466F
:101DE0005B0013441B01CA18BB681344FA781A70CD
:101DF000FB6A0133FB627B685B005A1CFB6A9A42F8
:101E0000E9DC0023BB6211E0FA68BB6A1A44B968D6
:101E10007B68C91A504813465B0013441B010344F6
:101E20000B44FA781A70BB6A0133BB627B685B00B3
:101E30005A1CBB6A9A42E7DCFB685A1CB9687B688B
:101E4000CB1A591C444813465B0013441B0103443E
:101E50000B44FA781A7079E000237B620FE0FA688D
:101E60007B6A1A443C4913465B0013441B01CA18A1
:101E7000BB681344FA781A707B6A01337B627B6813
:101E80005B005A1C7B6A9A42E9DC00233B6211E04A
:101E9000FA683B6A1A44B9687B68C91A2E48134627
:101EA0005B0013441B0103440B44FA781A703B6A2D
:101EB00001333B627B685B005A1C3B6A9A42E7DC59
:101EC0000023FB6110E0FA68FB691A44BB68591EE5
:101ED000214813465B0013441B0103440B44FA786A
:101EE0001A70FB690133FB61FB69022BEBDD0023F8
:101EF000BB6111E0FA68BB691344DA1CBB68991E28
:101F0000154813465B0013441B0103440B44FA7845
:101F10001A70BB690133BB61BB69022BEADD002388
:101F20007B6110E0FA687B691A44BB68D91E0A48D5
:101F300013465B0013441B0103440B44FA781A70E8
:101F40007B6901337B617B69022BEBDD00BF34379A
:101F5000BD4680BC704700BFD093012080B48FB0D5
:101F600000AFF860B9607A60FB707B68022B40D1EB
:101F700000237B630FE0FA687B6B1A4479491346B0
:101F80005B0013441B01CA18BB681344FA781A702B
:101F90007B6B01337B637B685B005A1C7B6B9A42D3
:101FA000E9DC00233B6311E0FA683B6B1A44B96833
:101FB0007B68C91A6B4813465B0013441B0103443A
:101FC0000B44FA781A703B6B01333B637B685B0010
:101FD0005A1C3B6B9A42E7DCBB68591E6148FA68A1
:101FE00013465B0013441B0103440B44FA781A7038
:101FF000B3E00023FB6211E0FA687B681A44FB6AD5
:102000001A44584913465B0013441B01CA18BB68A5
:102010001344FA781A70FB6A0133FB627B685A1C1E
:10202000FB6A9A42E8DC0023BB620FE0FA68BB6AF5
:102030001A444C4913465B0013441B01CA18BB6881
:102040001344FA781A70BB6A0133BB62BA6A7B68C0
:102050009A42EBDB00237B6211E0FA687B6A1A4448
:10206000B9687B68C91A3F4813465B0013441B01DB
:1020700003440B44FA781A707B6A01337B627B68F5
:102080005A1C7B6A9A42E8DC00233B6213E0FA6840
:102090007B681A443B6A1A44B9687B68C91A31489C
:1020A00013465B0013441B0103440B44FA781A7077
:1020B0003B6A01333B627B685A1C3B6A9A42E6DC0E
:1020C0000023FB6110E0FA68FB691A44BB68591EE3
:1020D000244813465B0013441B0103440B44FA7865
:1020E0001A70FB690133FB617B685A1EFB699A42D7
:1020F000E9DC0023BB6111E0FB68DA1CBB691A4410
:10210000BB68991E174813465B0013441B01034428
:102110000B44FA781A70BB690133BB617B685A1EA5
:10212000BB699A42E8DC00237B6111E0FB689A1DE1
:102130007B691A44BB68D91E0A4813465B001344E6
:102140001B0103440B44FA781A707B6901337B61ED
:102150007B685A1E7B699A42E8DC00BF3C37BD466B
:1021600080BC7047D093012080B489B000AFF86084
:10217000B9607A60FB700023FB610FE0BA68FB690D
:10218000D11A3348FA6813465B0013441B01034419
:102190000B44FA781A70FB690133FB617B685A1CA7
:1021A000FB699A42EADC0023BB610FE0FA68BB6975
:1021B0001A44274913465B0013441B01CA18BB6825
:1021C0001344FA781A70BB690133BB617B685B000A
:1021D0005A1CBB699A42E9DC00237B6112E07B68F0
:1021E0005A00FB681A44B9687B69C91A1848134633
:1021F0005B0013441B0103440B44FA781A707B699B
:1022000001337B617B685A1C7B699A42E7DC0023BF
:102210003B6111E0FA683B691A44B9687B68C91AE6
:102220000B4813465B0013441B0103440B44FA782C
:102230001A703B6901333B617B685B005A1C3B6948
:102240009A42E7DC00BF2437BD4680BC704700BF20
:10225000D093012080B489B000AFF860B9607A6093
:10226000FB700023FB610FE0BA68FB69D11A3248AA
:10227000FA6813465B0013441B0103440B44FA78CD
:102280001A70FB690133FB617B685A1CFB699A4237
:10229000EADC0023BB6112E0FA68BB6913445A1CF4
:1022A000B9687B68C91A244813465B0013441B01B4
:1022B00003440B44FA781A70BB690133BB61BA69F5
:1022C0007B689A42E8DB00237B610FE0FA687B6958
:1022D0001A44194913465B0013441B01CA18BB6812
:1022E0001344FA781A707B6901337B617B685B0069
:1022F0005A1C7B699A42E9DC00233B6111E0FA68D1
:102300007B681A44B9683B69C91A0B4813465B00DD
:1023100013441B0103440B44FA781A703B690133E0
:102320003B617B685A1C3B699A42E8DC00BF24375A
:10233000BD4680BC704700BFD093012090B587B0E8
:1023400000AFF860B9607A60FB70FB787A68B968B2
:10235000F868FFF709FF7B68022B1CD1FA687B68DD
:102360001A447B681A44BB68991EFB78002B14BF83
:1023700001230023DBB283F00103DBB203F001038E
:10238000DCB2154813465B0013441B0103440B44A5
:1023900022461A701BE002237B6113E0FA687B6817
:1023A0001A447B691A44B9687B69C91A0A481346FA
:1023B0005B0013441B0103440B44FA781A707B69D9
:1023C00001337B617B685A1C7B699A42E6DC00BF63
:1023D0001C37BD4690BD00BFD093012080B48BB0A8
:1023E00000AFF860B9607A60FB7000237B620FE099
:1023F000BA687B6AD11A4048FA6813465B001344F6
:102400001B0103440B44FA781A707B6A01337B6228
:102410007B685A1C7B6A9A42EADC00233B6212E02A
:10242000FA683B6A13445A1CB9687B68C91A324877
:1024300013465B0013441B0103440B44FA781A70E3
:102440003B6A01333B623A6A7B689A42E8DB0023CD
:10245000FB610FE0FA68FB691A44274913465B00E9
:1024600013441B01CA18BB681344FA781A70FB693D
:102470000133FB617B685B005A1CFB699A42E9DC13
:102480000023BB6111E0FA687B681A44B968BB6934
:10249000C91A194813465B0013441B0103440B443B
:1024A000FA781A70BB690133BB617B685A1CBB693F
:1024B0009A42E8DC00237B6113E0FA687B681A44E7
:1024C0007B691A44B9687B69C91A0B4813465B00DB
:1024D00013441B0103440B44FA781A707B690133DF
:1024E0007B617B685A1C7B699A42E6DC00BF2C3713
:1024F000BD4680BC704700BFD093012080B48BB034
:1025000000AFF860B9607A60FB7000237B620FE077
:10251000BA687B6AD11A3F48FA6813465B001344D5
:102520001B0103440B44FA781A707B6A01337B6207
:102530007B685A1C7B6A9A42EADC01233B620FE00B
:10254000FA683B6A1A44334913465B0013441B0183
:10255000CA18BB681344FA781A703B6A01333B62AD
:102560003A6A7B689A42EBDB0023FB6111E0FA6870
:102570007B681A44B968FB69C91A264813465B0090
:1025800013441B0103440B44FA781A70FB690133AE
:10259000FB61FA697B689A42E9DB0023BB6113E0C7
:1025A000FA687B681A44BB691A44B9687B68C91A1F
:1025B000184813465B0013441B0103440B44FA788C
:1025C0001A70BB690133BB61BA697B689A42E7DB69
:1025D00000237B6114E07B685A00FB681A44B968E9
:1025E0007B68C91A7B6919440A4813465B00134487
:1025F0001B0103440B44FA781A707B6901337B6139
:102600007B685A1C7B699A42E5DC00BF2C37BD46CB
:1026100080BC7047D093012080B586B000AFF860D1
:10262000B9607A60FB70FB787A68B968F868FFF780
:1026300063FA00237B610FE0BA687B69D11A0B480B
:10264000FA6813465B0013441B0103440B44FA78F9
:102650001A707B6901337B617B685A1C7B699A42E3
:10266000EADC00BF1837BD4680BD00BFD093012013
:1026700080B489B000AFF860B9607A60FB70002365
:10268000FB610FE0FA68FB691A44274913465B00B7
:1026900013441B01CA18BB681344FA781A70FB690B
:1026A0000133FB617B685B005A1CFB699A42E9DCE1
:1026B0000023BB6111E0FA68BB691A44B9687B6802
:1026C000C91A194813465B0013441B0103440B4409
:1026D000FA781A70BB690133BB617B685B005A1CD6
:1026E000BB699A42E7DC00237B6114E07B685A00F7
:1026F000FB681A44B9687B68C91A7B6919440A489F
:1027000013465B0013441B0103440B44FA781A7010
:102710007B6901337B617A697B689A42E6DB00BFA3
:102720002437BD4680BC7047D093012080B48BB065
:1027300000AFF860B9607A60FB707B68022B3BD118
:1027400000237B620FE0FA687B6A1A4466491346ED
:102750005B0013441B01CA18BB681344FA781A7053
:102760007B6A01337B627B6A032BECDD00233B62D7
:1027700011E0FA683B6A1A44B9687B68C91A5A487A
:1027800013465B0013441B0103440B44FA781A7090
:102790003B6A01333B623B6A032BEADDFB681A1D8F
:1027A000BB68591E504813465B0013441B01034489
:1027B0000B44FA781A7091E04B49FA6813465B00B3
:1027C00013441B01CA18BB681344FA781A70FB68DB
:1027D0005A1C454913465B0013441B01CA18BB68C9
:1027E0001344FA781A700023FB6111E0FA68FB6960
:1027F00013449A1CBB68591E3B4813465B001344A4
:102800001B0103440B44FA781A70FB690133FB6126
:10281000FB69032BEADD0023BB6111E0FA68BB69A9
:1028200013441A1DBB68991E2F4813465B001344BE
:102830001B0103440B44FA781A70BB690133BB6176
:10284000BB69022BEADD00237B6111E0FA687B693A
:1028500013449A1DBB68991E234813465B0013441A
:102860001B0103440B44FA781A707B6901337B61C6
:102870007B69012BEADDBA687B68D11A1A48FA68CD
:1028800013465B0013441B0103440B44FA781A708F
:10289000FB685A1CB9687B68C91A134813465B0069
:1028A00013441B0103440B44FA781A7000233B6164
:1028B00011E0FA683B6913449A1CBB68D91E0A48A8
:1028C00013465B0013441B0103440B44FA781A704F
:1028D0003B6901333B613B69032BEADD00BF2C37C9
:1028E000BD4680BC704700BFD093012090B58DB02D
:1028F00000AFF860B9607A60FB707B68022B2CD166
:10290000FB787A68B968F868FFF7B2FEFB68DA1CF2
:10291000BB68591E6C4813465B0013441B010344FB
:102920000B44FA781A70FB681A1DBB68591EFB78B5
:10293000002B14BF01230023DBB283F00103DBB2C1
:1029400003F00103DCB2604813465B0013441B0133
:1029500003440B4422461A70B2E00023FB6211E0EC
:10296000FA687B681A44FB6A1A44574913465B00AD
:1029700013441B01CA18BB681344FA781A70FB6A27
:102980000133FB627B685A1CFB6A9A42E8DC002335
:10299000BB620FE0FA68BB6A1A444B4913465B00FE
:1029A00013441B01CA18BB681344FA781A70BB6A37
:1029B0000133BB62BA6A7B689A42EBDB00237B621D
:1029C00011E0FA687B6A1A44B9687B68C91A3E4804
:1029D00013465B0013441B0103440B44FA781A703E
:1029E0007B6A01337B627B685A1C7B6A9A42E8DC13
:1029F00000233B6213E0FA687B681A443B6A1A447E
:102A0000B9687B68C91A304813465B0013441B0140
:102A100003440B44FA781A703B6A01333B627B68CB
:102A20005A1C3B6A9A42E6DC0023FB6112E0FA681A
:102A30007B681A44FB691A44BB68591E2248134636
:102A40005B0013441B0103440B44FA781A70FB69C2
:102A50000133FB61FB69022BE9DD0023BB6113E05D
:102A6000FA687B681A44BB691344DA1EBB68991E76
:102A7000154813465B0013441B0103440B44FA78CA
:102A80001A70BB690133BB61BB69022BE8DD00230F
:102A90007B6112E0FA687B681A447B691A44BB6860
:102AA000D91E094813465B0013441B0103440B4421
:102AB000FA781A707B6901337B617B69022BE9DD4F
:102AC00000BF3437BD4690BDD093012080B48FB095
:102AD00000AFF860B9607A60FB707B68022B6BD145
:102AE00000237B630FE0FA687B6B1A449D49134611
:102AF0005B0013441B01CA18BB681344FA781A70B0
:102B00007B6B01337B637B6B012BECDD00233B6331
:102B100011E0FA683B6B1A44B9687B68C91A91489E
:102B200013465B0013441B0103440B44FA781A70EC
:102B30003B6B01333B633B6B012BEADD0023FB6204
:102B400010E0FA68FB6A1344DA1C864913465B00FE
:102B500013441B01CA18BB681344FA781A70FB6A45
:102B60000133FB62FB6A012BEBDD0023BB6212E049
:102B7000FA68BB6A1344DA1CB9687B68C91A7948D9
:102B800013465B0013441B0103440B44FA781A708C
:102B9000BB6A0133BB62BB6A012BE9DDFB689A1C8F
:102BA000BB68591E6F4813465B0013441B01034466
:102BB0000B44FA781A70CFE000237B6210E0FA68C9
:102BC0007B6A1A44BB68591E664813465B0013446F
:102BD0001B0103440B44FA781A707B6A01337B6251
:102BE0007B685A1E7B6A9A42E9DC00233B6211E053
:102BF000FB68DA1C3B6A1A44BB68991E59481346A5
:102C00005B0013441B0103440B44FA781A703B6ABF
:102C100001333B627B685A1E3B6A9A42E8DC002320
:102C2000FB6111E0FB689A1DFB691A44BB68D91E61
:102C30004C4813465B0013441B0103440B44FA78D1
:102C40001A70FB690133FB617B685A1EFB699A426B
:102C5000E8DC0023BB6110E0FA68BB691A44BB687A
:102C6000D91E404813465B0013441B0103440B4428
:102C7000FA781A70BB690133BB617B685A1EBB6965
:102C80009A42E9DC00237B6111E0FB68DA1C7B6976
:102C90001A44BB68991E334813465B0013441B015A
:102CA00003440B44FA781A707B6901337B617B68BB
:102CB0005A1E7B699A42E8DC00233B6111E0FB6805
:102CC0009A1D3B691A44BB68591E264813465B008F
:102CD00013441B0103440B44FA781A703B69013317
:102CE0003B617B685A1E3B699A42E8DCBA687B68A4
:102CF000D11A1C48FA6813465B0013441B010344B5
:102D00000B44FA781A707B685A00FB681A44B96859
:102D10007B68C91A134813465B0013441B01034424
:102D20000B44FA781A700F49FA6813465B00134493
:102D30001B01CA18BB681344FA781A707B685A00E2
:102D4000FB681A44074913465B0013441B01CA1869
:102D5000BB681344FA781A7000BF3C37BD4680BC8C
:102D6000704700BFD093012080B489B000AFF860F5
:102D7000B9607A60FB707B68022B48D10023FB614D
:102D80000FE0FA68FB691A44634913465B00134479
:102D90001B01CA18BB681344FA781A70FB69013327
:102DA000FB61FB69022BECDD0023BB6111E0FA68DB
:102DB000BB691A44B9687B68C91A574813465B0057
:102DC00013441B0103440B44FA781A70BB690133A6
:102DD000BB61BB69022BEADDFB68DA1CBB68591ECC
:102DE0004D4813465B0013441B0103440B44FA781F
:102DF0001A70FB681A1DBB68591E474813465B00D2
:102E000013441B0103440B44FA781A707EE000233C
:102E10007B6112E0FA687B681A447B691A44BB68DC
:102E2000991E3D4813465B0013441B0103440B44A9
:102E3000FA781A707B6901337B617B685A1C7B6965
:102E40009A42E7DCBB68191F3348FA6813465B00F7
:102E500013441B0103440B44FA781A70FB685A1C94
:102E6000BB68191F2C4813465B0013441B01034425
:102E70000B44FA781A702849FA6813465B00134429
:102E80001B01CA18BB681344FA781A70FB685A1CF5
:102E9000214913465B0013441B01CA18BB68134445
:102EA000FA781A70FB689A1CBB68D91E1A48134638
:102EB0005B0013441B0103440B44FA781A70FB684F
:102EC000DA1CBB68D91E144813465B0013441B016F
:102ED00003440B44FA781A70FB689A1CBB68591EAD
:102EE0000D4813465B0013441B0103440B44FA785E
:102EF0001A70FB68DA1CBB68591E074813465B0052
:102F000013441B0103440B44FA781A7000BF2437A2
:102F1000BD4680BC704700BFD093012080B48FB005
:102F200000AFF860B9607A60FB707B68022B6CD1EF
:102F300000237B630FE0BA687B6BD11A7648FA688E
:102F400013465B0013441B0103440B44FA781A70C8
:102F50007B6B01337B637B6B022BECDD00233B63DC
:102F600013E0FA687B681A447B681A44B9683B6BC3
:102F7000C91A694813465B0013441B0103440B4400
:102F8000FA781A703B6B01333B633B6B022BE8DD35
:102F90000023FB6211E0FA68FB6A1A44B9687B6897
:102FA000C91A5D4813465B0013441B0103440B44DC
:102FB000FA781A70FB6A0133FB62FB6A012BEADDC7
:102FC0000023BB6210E0FA68BB6A1344DA1C524962
:102FD00013465B0013441B01CA18BB681344FA78FC
:102FE0001A70BB6A0133BB62BB6A012BEBDDFB6865
:102FF0009A1CBB68591E484813465B0013441B01CA
:1030000003440B44FA781A7081E000237B620FE0DE
:10301000BA687B6AD11A4048FA6813465B001344C9
:103020001B0103440B44FA781A707B6A01337B62FC
:103030007B685A1C7B6A9A42EADC00233B6210E000
:10304000FA683B6A1A44BB68D91E334813465B00D2
:1030500013441B0103440B44FA781A703B6A013392
:103060003B627B685A1E3B6A9A42E9DC0023FB61A3
:1030700011E0FB68DA1CFB691A44BB68991E2648FC
:1030800013465B0013441B0103440B44FA781A7087
:10309000FB690133FB617B685A1EFB699A42E8DCDD
:1030A0000023BB6111E0FB689A1DBB691A44BB6831
:1030B000591E194813465B0013441B0103440B447B
:1030C000FA781A70BB690133BB617B685A1EBB6911
:1030D0009A42E8DC00237B6114E07B685A00FB68BD
:1030E0001A44B9687B68C91A7B6919440A481346AF
:1030F0005B0013441B0103440B44FA781A707B698C
:1031000001337B617B685A1C7B699A42E5DC00BF16
:103110003C37BD4680BC7047D093012080B483B05B
:1031200000AF786039607B685A1C3B68591E0D48B7
:1031300013465B0013441B0103440B4401221A7025
:103140007B685A1D3B68591E064813465B001344B2
:103150001B0103440B4401221A7000BF0C37BD460B
:1031600080BC7047D093012080B584B000AFF86078
:10317000B9607A603B603B68013B192B00F2EE803E
:1031800001A252F823F000BFF1310008FF3100081E
:103190000D3200081B3200082932000837320008BF
:1031A0004532000853320008613200086F320008CF
:1031B0007D3200088B32000899320008A7320008DF
:1031C000B5320008C3320008D1320008DF320008EF
:1031D000ED320008FB3200080933000817330008FD
:1031E0002533000833330008413300084F3300080B
:1031F0003B7E7A68B968F868FEF786F9AEE03B7EF8
:103200007A68B968F868FEF725FAA7E03B7E7A6825
:10321000B968F868FEF768FAA0E03B7E7A68B9689A
:10322000F868FEF7BBFA99E03B7E7A68B968F868FF
:10323000FEF7E6FA92E03B7E7A68B968F868FEF736
:1032400053FB8BE03B7E7A68B968F868FEF7A6FB13
:1032500084E03B7E7A68B968F868FEF7F1FB7DE0B0
:103260003B7E7A68B968F868FEF746FC76E03B7EFC
:103270007A68B968F868FEF76DFC6FE03B7E7A68A3
:10328000B968F868FEF7C4FC68E03B7E7A68B96804
:10329000F868FEF74FFD61E03B7E7A68B968F86830
:1032A000FEF78CFD5AE03B7E7A68B968F868FEF755
:1032B00055FE53E03B7E7A68B968F868FEF754FF24
:1032C0004CE03B7E7A68B968F868FEF7C3FF45E0DA
:1032D0003B7E7A68B968F868FFF730F83EE03B7EDD
:1032E0007A68B968F868FFF779F837E03B7E7A6862
:1032F000B968F868FFF702F930E03B7E7A68B96890
:10330000F868FFF789F929E03B7E7A68B968F868C0
:10331000FFF7AEF922E03B7E7A68B968F868FFF7FC
:1033200005FA1BE03B7E7A68B968F868FFF7DEFAB9
:1033300014E03B7E7A68B968F868FFF7C7FB0DE0D8
:103340003B7E7A68B968F868FFF70EFD06E03B7EC1
:103350007A68B968F868FFF7E1FD00BF00BF103771
:10336000BD4680BD80B584B000AFF860B9607A60BA
:10337000FB70FB787A68B968F868FEF7F5FE00BF65
:103380001037BD4680BD00BF80B487B000AFF86085
:10339000B9607A60FB7000237B6113E0FA687B6997
:1033A0001A44B9687B68C91A7B69194417481346DF
:1033B0005B0013441B0103440B4401221A707B6918
:1033C00001337B617A697B689A42E7DB00233B61CA
:1033D00011E0FA683B691A44B9687B68C91A0B485E
:1033E00013465B0013441B0103440B4401221A7073
:1033F0003B6901333B617B685B005A1C3B699A4225
:10340000E7DC00BF1C37BD4680BC7047D09301206D
:1034100080B48BB000AFF860B9607A60FB700023B5
:103420007B620FE0BA687B6AD11A3F48FA6813469C
:103430005B0013441B0103440B4401221A707B6A96
:1034400001337B627B685A1C7B6A9A42EADC012367
:103450003B6211E0FA683B6A1A44B9687B68C91A92
:10346000314813465B0013441B0103440B44012203
:103470001A703B6A01333B623A6A7B689A42E9DB25
:103480000023FB6111E0FA687B681A44B968FB69A4
:10349000C91A254813465B0013441B0103440B441F
:1034A00001221A70FB690133FB61FA697B689A4259
:1034B000E9DB0023BB6111E0FA687B681A44BB6951
:1034C0001A44194913465B0013441B01CA18BB6810
:1034D000134401221A70BB690133BB61BA697B686E
:1034E0009A42E9DB00237B6114E07B685A00FB68A9
:1034F0001A44B9687B68C91A7B6919440A4813469B
:103500005B0013441B0103440B4401221A707B69C6
:1035100001337B617B685A1C7B699A42E5DC00BF02
:103520002C37BD4680BC7047D093012080B489B051
:1035300000AFF860B9607A60FB700023FB610FE0B8
:10354000BA68FB69D11A3348FA6813465B00134422
:103550001B0103440B4401221A70FB690133FB6118
:103560007B685A1CFB699A42EADC0023BB6111E0CC
:10357000FA68BB691A44B9687B68C91A25481346BA
:103580005B0013441B0103440B4401221A70BB6906
:103590000133BB617B685B005A1CBB699A42E7DC64
:1035A00000237B6111E0FA687B681A44B9687B6983
:1035B000C91A184813465B0013441B0103440B440B
:1035C00001221A707B6901337B617B685A1C7B691D
:1035D0009A42E8DC00233B6112E07B685A00FB68FA
:1035E0001A44B9683B69C91A0A4813465B00134478
:1035F0001B0103440B4401221A703B6901333B61F8
:103600007B685A1C3B699A42E7DC00BF2437BD4601
:1036100080BC7047D093012080B489B000AFF860BF
:10362000B9607A60FB700023FB610FE0FA68FB6908
:103630001A44324913465B0013441B01CA18BB6885
:10364000134401221A70FB690133FB61FA697B683C
:103650009A42EBDB0023BB6111E0FA68BB691A44B4
:10366000B9687B68C91A254813465B0013441B01DF
:1036700003440B4401221A70BB690133BB61BA6970
:103680007B689A42E9DB00237B6111E0FA687B6882
:103690001A44B9687B69C91A184813465B00134479
:1036A0001B0103440B4401221A707B6901337B61C7
:1036B0007A697B689A42E9DB00233B6113E0FA6890
:1036C0007B681A443B691A44B9687B68C91A0B487D
:1036D00013465B0013441B0103440B4401221A7080
:1036E0003B6901333B617B685A1C3B699A42E6DCCB
:1036F00000BF2437BD4680BC704700BFD093012077
:1037000080B584B000AFF860B9607A60FB70FB7878
:103710007A68B968F868FEF7F1FE00BF1037BD4659
:1037200080BD00BF80B48BB000AFF860B9607A6034
:10373000FB7000237B620FE0BA687B6AD11A4048B5
:10374000FA6813465B0013441B0103440B44012237
:103750001A707B6A01337B627B685A1C7B6A9A42CF
:10376000EADC00233B620FE0FA683B6A1A44344902
:1037700013465B0013441B01CA18BB6813440122A3
:103780001A703B6A01333B627B685B005A1C3B6AE0
:103790009A42E9DC0023FB6111E0FA687B681A4475
:1037A000B968FB69C91A264813465B0013441B011C
:1037B00003440B4401221A70FB690133FB61FA696F
:1037C0007B689A42E9DB0023BB6113E0FA687B68FF
:1037D0001A44BB691A44B9687B68C91A1848134669
:1037E0005B0013441B0103440B4401221A70BB69A4
:1037F0000133BB61BA697B689A42E7DB00237B61D6
:1038000014E07B685A00FB681A44B9687B68C91ADF
:103810007B6919440A4813465B0013441B010344A7
:103820000B4401221A707B6901337B617B685A1C4F
:103830007B699A42E5DC00BF2C37BD4680BC7047EF
:10384000D093012080B487B000AFF860B9607A608F
:10385000FB7000237B610FE0BA687B69D11A1948BD
:10386000FA6813465B0013441B0103440B44012216
:103870001A707B6901337B617B685A1C7B699A42B1
:10388000EADC00233B6111E0FA683B691A44B9683D
:103890007B68C91A0B4813465B0013441B010344A1
:1038A0000B4401221A703B6901333B617B685B006A
:1038B0005A1C3B699A42E7DC00BF1C37BD4680BCFE
:1038C000704700BFD093012080B586B000AFF8608C
:1038D000B9607A60FB70FB787A68B968F868FEF7BF
:1038E00043FC00237B6111E0FA687B681A44B968E5
:1038F0007B69C91A094813465B0013441B01034442
:103900000B4401221A707B6901337B617A697B6801
:103910009A42E9DB00BF1837BD4680BDD093012035
:1039200080B586B000AFF860B9607A60FB70FB7854
:103930007A68B968F868FFF7E3FE00237B6111E05D
:10394000FA687B691A44B9687B68C91A0A48134641
:103950005B0013441B0103440B4401221A707B6972
:1039600001337B617B685A1C7B699A42E8DC00BFAB
:103970001837BD4680BD00BFD093012080B483B00E
:1039800000AF00237B601AE07B6803F108021C494A
:1039900013465B0013441B010B442F3301221A70A2
:1039A0007B68C3F15202164913465B0013441B01A6
:1039B0000B44013301221A707B6801337B607B6802
:1039C0004A2BE1DD00233B6012E03B68C3F12F038B
:1039D0000B4A1344012283F8902F3B68C3F12F0355
:1039E000074A1344012283F850213B6801333B60AE
:1039F0003B682E2BE9DD00BF0C37BD4680BC70470D
:103A0000D093012080B489B000AFF860B9607A60CB
:103A1000FB68023BFB607B6801337B600023FB613A
:103A20000FE0BA68FB69D11A2F48FA6813465B00A9
:103A300013441B0103440B4401221A70FB69013338
:103A4000FB61FA697B689A42EBDBBB680133BB60C0
:103A50000123BB6111E0FA68BB69D21AB968BB697E
:103A6000C91A214813465B0013441B0103440B444D
:103A700001221A70BB690133BB617B68DA0F134402
:103A80005B105A1CBB699A42E5DC00237B611DE098
:103A90007B68DA0F13445B100133FA68D21A7B6932
:103AA0001A447B68D90F0B445B100133B968C91AFB
:103AB0007B69C91A0C4813465B0013441B0103447D
:103AC0000B4401221A707B6901337B617B68DA0F3A
:103AD00013445B105A1C7B699A42D9DC00BF24371F
:103AE000BD4680BC704700BFD093012080B489B030
:103AF00000AFF860B9607A60FB68023BFB607B68EE
:103B000001337B600023FB610FE0BA68FB69D11AC7
:103B10002F48FA6813465B0013441B0103440B440F
:103B200000221A70FB690133FB61FA697B689A42D3
:103B3000EBDBBB680133BB600123BB6111E0FA68BA
:103B4000BB69D21AB968BB69C91A214813465B0020
:103B500013441B0103440B4400221A70BB69013358
:103B6000BB617B68DA0F13445B105A1CBB699A4235
:103B7000E5DC00237B611DE07B68DA0F13445B10FA
:103B80000133FA68D21A7B691A447B68D90F0B4457
:103B90005B100133B968C91A7B69C91A0C4813460E
:103BA0005B0013441B0103440B4400221A707B6921
:103BB00001337B617B68DA0F13445B105A1C7B690D
:103BC0009A42D9DC00BF2437BD4680BC704700BF95
:103BD000D093012080B489B000AFF860B9607A60FA
:103BE0007B6801337B607B685B00FA681344FB6091
:103BF0000023FB610FE0BA68FB69D11A2F48FA680D
:103C000013465B0013441B0103440B4401221A704A
:103C1000FB690133FB61FA697B689A42EBDBBB68A5
:103C20000133BB600123BB6111E0FA68BB691A4430
:103C3000B968BB69C91A214813465B0013441B01CC
:103C400003440B4401221A70BB690133BB617B68DA
:103C5000DA0F13445B105A1CBB699A42E5DC00235F
:103C60007B611DE07B68DA0F13445B105A1CFB6814
:103C70001A447B69D21A7B68D90F0B445B1001335D
:103C8000B968C91A7B69C91A0C4813465B0013440A
:103C90001B0103440B4401221A707B6901337B61D1
:103CA0007B68DA0F13445B105A1C7B699A42D9DC9B
:103CB00000BF2437BD4680BC704700BFD0930120B1
:103CC00080B489B000AFF860B9607A607B68013376
:103CD0007B607B685B00FA681344FB600023FB6138
:103CE0000FE0BA68FB69D11A2F48FA6813465B00E7
:103CF00013441B0103440B4400221A70FB69013377
:103D0000FB61FA697B689A42EBDBBB680133BB60FD
:103D10000123BB6111E0FA68BB691A44B968BB6949
:103D2000C91A214813465B0013441B0103440B448A
:103D300000221A70BB690133BB617B68DA0F134440
:103D40005B105A1CBB699A42E5DC00237B611DE0D5
:103D50007B68DA0F13445B105A1CFB681A447B69BA
:103D6000D21A7B68D90F0B445B100133B968C91AAA
:103D70007B69C91A0C4813465B0013441B010344BA
:103D80000B4400221A707B6901337B617B68DA0F78
:103D900013445B105A1C7B699A42D9DC00BF24375C
:103DA000BD4680BC704700BFD093012080B487B06F
:103DB00000AFF860B9607A60FB680133FB600023F4
:103DC0007B610FE0FA687B691A442B4913465B005C
:103DD00013441B01CA18BB68134401221A707B6983
:103DE00001337B617B685A007B699A42EADC0023DD
:103DF0003B6123E0FA683B691A44B9683B69C91A18
:103E00001D4813465B0013441B0103440B4401226D
:103E10001A707B685A00FB681A443B69D21AB96869
:103E20003B69C91A144813465B0013441B01034441
:103E30000B4401221A703B6901333B613A697B688C
:103E40009A42D7DB7B68DA0F13445B101A46FB6893
:103E500013449A1CB9687B68C91A074813465B006B
:103E600013441B0103440B4401221A7000BF1C378A
:103E7000BD4680BC704700BFD093012080B586B09E
:103E800002AFF860B9607A60FB680133FB60FB68E1
:103E900003F10C02BB68191F002300930B46B9689D
:103EA000F86801F047FC00BF1037BD4680BD00BF79
:103EB00080B485B000AF786039600023FB604BE0D0
:103EC0007A68FB681A442A4913465B0013441B01B5
:103ED000CA183B68134401221A703A68FB68D11A69
:103EE00023487A6813465B0013441B0103440B44C8
:103EF00001221A701F4B1A687B681A443968FB68E4
:103F0000C91A1B4813465B0013441B0103440B44AE
:103F100001221A707A68FB681A44164B1B683968CC
:103F2000C91A134813465B0013441B0103440B4496
:103F300001221A707A68FB681A443968FB68C91A4A
:103F40000B4813465B0013441B0103440B4401223E
:103F50001A70FB680133FB60064B1B685A1CFB6838
:103F60009A42ADDC00BF1437BD4680BC704700BF2D
:103F7000D09301204C93012080B485B000AF7860CD
:103F800039600023FB604BE07A68FB681A442A49D9
:103F900013465B0013441B01CA183B6813440022FC
:103FA0001A703A68FB68D11A23487A6813465B0096
:103FB00013441B0103440B4400221A701F4B1A6860
:103FC0007B681A443968FB68C91A1B4813465B00B2
:103FD00013441B0103440B4400221A707A68FB68E7
:103FE0001A44164B1B683968C91A134813465B00FC
:103FF00013441B0103440B4400221A707A68FB68C7
:104000001A443968FB68C91A0B4813465B0013440D
:104010001B0103440B4400221A70FB680133FB6050
:10402000064B1B685A1CFB689A42ADDC00BF143774
:10403000BD4680BC704700BFD09301204C93012047
:1040400080B485B000AF786039600023FB605DE02C
:104050007A68FB681A44314913465B0013441B011C
:10406000CA183B68134400221A703A68FB68D11AD8
:104070002A487A6813465B0013441B0103440B442F
:1040800000221A70264B1A687B6813445A1E39683E
:10409000FB68C91A214813465B0013441B01034403
:1040A0000B4400221A707A68FB681A441C4B1B6888
:1040B0003968CB1A591C194813465B0013441B017D
:1040C00003440B4400221A70154B1A687B68134492
:1040D0005A1E3B68D91E114813465B0013441B014E
:1040E00003440B4400221A707A68FB681A4439684A
:1040F000FB68C91A094813465B0013441B010344BB
:104100000B4400221A70FB680133FB60FB68022B32
:104110009EDD00BF1437BD4680BC7047D0930120A0
:104120004C93012080B582B000AF78603960396867
:104130007868FFF7BDFE254B1B683A68D31A013B30
:1041400019467868FFF7B4FE204B1A687B68134461
:10415000013339681846FFF7ABFE1C4B1A687B68C1
:104160001344581C194B1B683A68D31A013B194673
:10417000FFF79EFE164A7B681360154A3B68136181
:10418000134A7B685360114B1B683A68D31A104A74
:1041900053610E4B1A687B68134401330C4A9360D9
:1041A0000B4A3B689361094B1A687B6813440133DF
:1041B000074AD360054B1B683A68D31A013B044A8F
:1041C000D36100BF0837BD4680BD00BF4C930120BE
:1041D00090A3012080B582B000AF78603960396863
:1041E0007868FFF765FE254B1B683A68D31A013BD8
:1041F00019467868FFF75CFE204B1B6801335B00B3
:104200003A68D31A19467868FFF752FE1B4B1B68B1
:1042100001331A469B00D21A3B681344194678684A
:10422000FFF746FE164A7B681360154A3B68136128
:10423000134A7B685360114B1B683A68D31A013BE1
:104240000F4A53610E4A7B6893600C4B1B68013325
:104250005B003A68D31A0A4A9361094A7B68D360C3
:10426000064B1B6801331A469B00D21A3B68134465
:10427000034AD36100BF0837BD4680BD4C9301207F
:1042800090A3012080B582B000AF786039603968B2
:104290007868FFF70DFE254B1A687B6813440133DD
:1042A00039681846FFF704FE204B1B6801335A009B
:1042B0007B68134439681846FFF7FAFD1B4B1B68EF
:1042C0005A1C13465B001A447B681344396818462D
:1042D000FFF7EEFD164A7B681360154A3B681361D1
:1042E000124B1A687B6813440133114A5360104A19
:1042F0003B6853610D4B1B6801335A007B681344C4
:104300000B4A93600A4A3B689361084B1B685A1C2E
:1043100013465B001A447B681344054AD360044A81
:104320003B68D36100BF0837BD4680BD4C93012078
:1043300090A3012080B582B000AF78603960396801
:104340007868FFF7B5FD274B1B683A68D31A013B25
:1043500019467868FFF7ACFD224B1B6801335B0000
:104360003A68D31A19467868FFF7A2FD1D4B1B68FF
:104370007A68D31A581E1B4B1B6801335B003A68DE
:10438000D31A1946FFF794FD174A7B681360164A43
:104390003B681361144A7B685360124B1B683A6890
:1043A000D31A013B104A53610F4A7B6893600D4B4F
:1043B0001B6801335B003A68D31A0B4A9361094BBF
:1043C0001B687A68D31A013B074AD360054B1B6808
:1043D00001335B003A68D31A034AD36100BF083740
:1043E000BD4680BD4C93012090A3012080B582B0D2
:1043F00000AF7860396039687868FFF759FD224B63
:104400001B683A68D31A013B19467868FFF750FDDC
:104410001D4B1B6801335B003A68D31A1946786854
:10442000FFF746FD184B1B687A68D31A013B3968C1
:104430001846FFF73DFD154A7B681360134A3B6839
:104440001361124A7B6853600F4B1B683A68D31A9A
:10445000013B0E4A53610D4A7B6893600A4B1B680F
:1044600001335B003A68D31A084A9361064B1B6814
:104470007A68D31A013B054AD360044A3B68D3618A
:1044800000BF0837BD4680BD4C93012090A301209A
:1044900080B582B000AF7860396039687868FFF71E
:1044A00007FD274B1B683A68D31A013B1946786809
:1044B000FFF7FEFC224B1B6801335B003A68D31AFE
:1044C00019467868FFF7F4FC1D4B1A687B681344A3
:1044D000581C1B4B1B6801335B003A68D31A194602
:1044E000FFF7E6FC174A7B681360164A3B681361C6
:1044F000144A7B685360124B1B683A68D31A013B1D
:10450000104A53610F4A7B6893600D4B1B6801335F
:104510005B003A68D31A0B4A9361094B1A687B68AF
:1045200013440133074AD360054B1B6801335B001A
:104530003A68D31A034AD36100BF0837BD4680BD2D
:104540004C93012090A3012080B582B000AF786029
:10455000396039687868FFF7ABFC224B1B683A6812
:10456000D31A013B19467868FFF7A2FC1D4B1B6864
:1045700001335B003A68D31A19467868FFF798FC54
:10458000184B1A687B681344013339681846FFF7E3
:104590008FFC154A7B681360134A3B681361124A0B
:1045A0007B6853600F4B1B683A68D31A013B0E4A75
:1045B00053610D4A7B6893600A4B1B6801335B00B3
:1045C0003A68D31A084A9361064B1A687B68134409
:1045D0000133054AD360044A3B68D36100BF083702
:1045E000BD4680BD4C93012090A3012080B582B0D0
:1045F00000AF7860396039687868FFF759FC274B5D
:104600001A687B681344013339681846FFF750FC79
:10461000224B1B6801335A007B68134439681846E3
:10462000FFF746FC1D4B1B6801335A007B68D0180E
:104630001A4B1B683A68D31A013B1946FFF738FC3E
:10464000174A7B681360164A3B681361134B1A685C
:104650007B6813440133124A5360114A3B6853612B
:104660000E4B1B6801335A007B6813440C4A93605D
:104670000B4A3B689361094B1B6801335A007B6806
:104680001344074AD360054B1B683A68D31A013BB1
:10469000034AD36100BF0837BD4680BD4C9301205B
:1046A00090A3012080B582B000AF7860396039688E
:1046B0007868FFF7FDFB274B1A687B6813440133CA
:1046C00039681846FFF7F4FB224B1B6801335A0088
:1046D0007B68134439681846FFF7EAFB1D4B1B68DB
:1046E00001335A007B68D0181A4B1A683B68134490
:1046F00001331946FFF7DCFB174A7B681360164A43
:104700003B681361134B1A687B6813440133124AE8
:104710005360114A3B6853610E4B1B6801335A00CA
:104720007B6813440C4A93600B4A3B689361094BC6
:104730001B6801335A007B681344074AD360054B5A
:104740001A683B6813440133034AD36100BF08373A
:10475000BD4680BD4C93012090A3012080B582B05E
:1047600000AF7860396039687868FFF7A1FB224BA9
:104770001A687B681344013339681846FFF798FBC1
:104780001D4B1B6801335A007B6813443968184677
:10479000FFF78EFB184B1B683A68D31A013B19468A
:1047A0007868FFF785FB154A7B681360134A3B68FE
:1047B0001361114B1A687B68134401330F4A53602D
:1047C0000E4A3B6853610C4B1B6801335A007B68EF
:1047D00013440A4A9360094A3B689361074A7B681D
:1047E000D360054B1B683A68D31A013B034AD36177
:1047F00000BF0837BD4680BD4C93012090A3012027
:1048000080B582B000AF7860396039687868FFF7AA
:104810004FFB224B1A687B681344013339681846F2
:10482000FFF746FB1D4B1B6801335A007B6813449E
:1048300039681846FFF73CFB184B1A683B6813446D
:10484000013319467868FFF733FB154A7B6813601C
:10485000134A3B681361114B1A687B681344013398
:104860000F4A53600E4A3B6853610C4B1B6801337F
:104870005A007B6813440A4A9360094A3B68936173
:10488000074A7B68D360054B1A683B6813440133C1
:10489000034AD36100BF0837BD4680BD4C93012059
:1048A00090A3012080B582B000AF7860396039688C
:1048B0007868FFF7FDFA264B1B683A68D31A013B6C
:1048C00019467868FFF7F4FA214B1B6801335B0047
:1048D0003A68D31A19467868FFF7EAFA1C4B1A6847
:1048E0007B681344581C1A4B1B683A68D31A013B67
:1048F0001946FFF7DDFA174A7B681360154A3B68D3
:104900001361144A7B685360114B1B683A68D31AD1
:10491000013B104A53610F4A7B6893600C4B1B6844
:1049200001335B003A68D31A0A4A9361084B1A684C
:104930007B6813440133074AD360054B1B683A6810
:10494000D31A013B034AD36100BF0837BD4680BD7F
:104950004C93012090A3012080B582B000AF786015
:10496000396039687868FFF7A3FA264B1B683A6804
:10497000D31A013B19467868FFF79AFA214B1B6856
:1049800001335B003A68D31A19467868FFF790FA4A
:104990001C4B1B687A68D31A581E1A4B1B683A685E
:1049A000D31A013B1946FFF783FA174A7B68136055
:1049B000154A3B681361144A7B685360114B1B68AE
:1049C0003A68D31A013B104A53610F4A7B689360DF
:1049D0000C4B1B6801335B003A68D31A0A4A936197
:1049E000084B1B687A68D31A013B074AD360054B12
:1049F0001B683A68D31A013B034AD36100BF0837EA
:104A0000BD4680BD4C93012090A3012080B582B0AB
:104A100000AF7860396039687868FFF749FA264B4B
:104A20001A687B681344013339681846FFF740FA67
:104A3000214B1B6801335A007B68134439681846C0
:104A4000FFF736FA1C4B1A687B681344581C1A4B44
:104A50001B683A68D31A013B1946FFF729FA174A2F
:104A60007B681360154A3B681361134B1A687B68B7
:104A700013440133114A5360104A3B6853610E4B93
:104A80001B6801335A007B6813440C4A93600B4A3D
:104A90003B689361084B1A687B6813440133074AEB
:104AA000D360054B1B683A68D31A013B034AD361B4
:104AB00000BF0837BD4680BD4C93012090A3012064
:104AC00080B582B000AF7860396039687868FFF7E8
:104AD000EFF9264B1A687B6813440133396818468E
:104AE000FFF7E6F9214B1B6801335A007B6813443A
:104AF00039681846FFF7DCF91C4B1A687B681344C9
:104B0000581C1A4B1A683B68134401331946FFF7C7
:104B1000CFF9174A7B681360154A3B681361134B42
:104B20001A687B6813440133114A5360104A3B688A
:104B300053610E4B1B6801335A007B6813440C4AC7
:104B400093600B4A3B689361084B1A687B68134477
:104B50000133074AD360054B1A683B68134401339D
:104B6000034AD36100BF0837BD4680BD4C93012086
:104B700090A3012080B582B000AF786039603968B9
:104B80007868FFF795F92A4B1B683A68D31A013BFE
:104B900019467868FFF78CF9254B1A687B6813442F
:104BA000581C234B1B6801335B003A68D31A194623
:104BB000FFF77EF91E4B1A687B681344581C1C4B88
:104BC0001B683A68D31A013B1946FFF771F9194A75
:104BD0007B681360174A3B681361164A7B68536011
:104BE000134B1B683A68D31A013B124A5361104BAE
:104BF0001A687B68134401330E4A93600C4B1B68A0
:104C000001335B003A68D31A0A4A9361084B1A6869
:104C10007B6813440133074AD360054B1B683A682D
:104C2000D31A013B034AD36100BF0837BD4680BD9C
:104C30004C93012090A3012080B582B000AF786032
:104C400039602D4B1A687B68134401333968184664
:104C5000FFF72EF9284B1B683A68D31A013B194617
:104C60007868FFF725F9244B1B6801335B003A682D
:104C7000D31A19467868FFF71BF91F4B1A687B682F
:104C80001344581C1C4B1B683A68D31A013B194645
:104C9000FFF70EF9184B1A687B6813440133174A63
:104CA0001360164A3B681361144A7B685360124BC9
:104CB0001B683A68D31A013B104A53610F4A7B685C
:104CC00093600D4B1B6801335B003A68D31A0B4AA3
:104CD0009361094B1A687B6813440133074AD36018
:104CE000054B1B683A68D31A013B044AD36100BFE5
:104CF0000837BD4680BD00BF4C93012090A3012022
:104D000080B582B000AF7860396039687868FFF7A5
:104D1000CFF8254B1B683A68D31A013B19467868CF
:104D2000FFF7C6F8204B1A687B68134401333968D3
:104D30001846FFF7BDF81C4B1B687A68D31A581E3B
:104D4000194B1B683A68D31A013B1946FFF7B0F8B4
:104D5000164A7B681360154A3B681361134A7B68E7
:104D60005360114B1B683A68D31A013B0F4A5361D9
:104D70000D4B1A687B68134401330C4A93600B4A4D
:104D80003B689361084B1B687A68D31A013B074A5A
:104D9000D360054B1B683A68D31A013B034AD361C1
:104DA00000BF0837BD4680BD4C93012090A3012071
:104DB00080B582B000AF7860396039687868FFF7F5
:104DC00077F8254B1B687A68D31A013B3968184677
:104DD000FFF76EF8204B1B683A68D31A013B19465F
:104DE0007868FFF765F81C4B1A687B681344581CF9
:104DF000194B1B683A68D31A013B1946FFF758F85C
:104E0000164A7B681360154A3B681361134A7B6836
:104E10005360114B1B683A68D31A013B0F4A536128
:104E20000D4B1A687B68134401330C4A93600A4B9C
:104E30001B683A68D31A013B084A9361064B1B680A
:104E40007A68D31A013B054AD360044A3B68D361B0
:104E500000BF0837BD4680BD4C93012090A30120C0
:104E600080B584B000AFF860B9607A60FB70FB7801
:104E70007A68B968F868FCF737FDBA687B68D31AB6
:104E8000023BBB60FB787A68B968F868FDF7F0FB15
:104E9000BA687B68D31A023BBB60FB787A68B96852
:104EA000F868FDF75BF8BA687B68D31A023BBB6011
:104EB000FB787A68B968F868FCF716FCBA687B6812
:104EC000D31A043BBB60FB787A68B968F868FDF7D1
:104ED000A3FBBA687B68D31A023BBB60FB787A6895
:104EE000B968F868FDF740F97B689A00BB6813441D
:104EF0000A33BB60FB680A33FB60FB787A68B968E9
:104F0000F868FDF7FBFABA687B68D31A023BBB600E
:104F1000FB787A68B968F868FDF77EFBBA687B6849
:104F2000D31A023BBB60FB787A68B968F868FCF773
:104F3000EBFABA687B68D31A023BBB60FB787A68ED
:104F4000B968F868FDF74AFABA687B68D31A023B79
:104F5000BB60FB787A68B968F868FDF75DFB00BF55
:104F60001037BD4680BD00BF80B584B000AFF8608B
:104F7000B9607A60FB70FB787A68B968F868FCF70A
:104F8000EDFFBA687B68D31A023BBB60FB787A6896
:104F9000B968F868FCF734FCBA687B68D31A023B3E
:104FA000BB60FB787A68B968F868FDF79FFCBA685F
:104FB0007B68D31A043BBB60FB787A68B968F868F1
:104FC000FCF7ECFCBA687B68D31A023BBB60FB7849
:104FD0007A68B968F868FCF797FABA687B68D31AF8
:104FE000023BBB60FB787A68B968F868FCF7E6FEBC
:104FF000BA687B68D31A023BBB60FB787A68B968F1
:10500000F868FCF7FDFB00BF1037BD4680BD00BF50
:1050100080B584B000AFF860B9607A60FB70FB784F
:105020007A68B968F868FDF7D9F9BA687B68D31A65
:10503000023BBB60FB787A68B968F868FCF764FAF1
:10504000BA687B68D31A023BBB60FB787A68B968A0
:10505000F868FCF783FFBA687B68D31A023BBB6031
:10506000FB787A68B968F868FCF7D2FD00BF1037A2
:10507000BD4680BD80B584B000AFF860B9607A608D
:10508000FB70FB787A68B968F868FCF7B9FBBA6816
:105090007B68D31A023BBB60FB787A68B968F86812
:1050A000FDF714FDBA687B68D31A023BBB60FB783E
:1050B0007A68B968F868FCF71FFDBA687B68D31A8C
:1050C000023BBB60FB787A68B968F868FDF7A4FA20
:1050D00000BF1037BD4680BD80B584B000AFF8601A
:1050E000B9607A60FB70FB787A68B968F868FDF798
:1050F00093FABA687B68D31A033BBB60FB787A6883
:10510000B968F868FCF77CFBBA687B68D31A023B85
:10511000BB60FB787A68B968F868FDF77DFABA6811
:105120007B68D31A033BBB60FB787A68B968F86880
:10513000FDF754F9BA687B68D31A023BBB60FB7871
:105140007A68B968F868FCF7D7FCBA687B68D31A44
:10515000023BBB60FB787A68B968F868FDF7CEF966
:1051600000BF1037BD4680BD80B584B000AFF86089
:10517000B9607A60FB70FB787A68B968F868FCF708
:105180000DFCBA687B68D31A023BBB60FB787A6877
:10519000B968F868FCF7B8F9BA687B68D31A023BBB
:1051A000BB60FB787A68B968F868FCF707FEBA68F4
:1051B0007B68D31A023BBB60FB787A68B968F868F1
:1051C000FCF71EFB7B689A1C13465B001344BA680D
:1051D0001344BB60FA687B6813440633FB60FB78BA
:1051E0007A68B968F868FCF7BFFFBA687B68D31AB9
:1051F000023BBB60FB787A68B968F868FDF796FAFD
:10520000BA687B68D31A023BBB60FB787A68B968DE
:10521000F868FCF7F5FABA687B68D31A023BBB6002
:10522000FB787A68B968F868FDF7D8F800BF1037DE
:10523000BD4680BD80B584B000AFF860B9607A60CB
:10524000FB70FB787A68B968F868FDF757F9BA68B7
:105250007B68D31A023BBB60FB787A68B968F86850
:10526000FCF7CEFABA687B68D31A023BBB60FB78C6
:105270007A68B968F868FDF7CFF9BA687B68D31A1D
:10528000063BBB60FB787A68B968F868FCF766FE95
:10529000BA687B68D31A023BBB60FB787A68B9684E
:1052A000F868FCF729FCBA687B68D31A023BBB603C
:1052B000FB787A68B968F868FCF716FABA687B6810
:1052C000D31A023BBB60FB787A68B968F868FCF7D0
:1052D0009FFC00BF1037BD4680BD00BF80B586B0C3
:1052E00000AF3223FB602A23BB6004237B600123D1
:1052F0007A68B968F868FFF737FEFB6803F10C00BD
:1053000001237A68B968FFF783FEFB6803F1180090
:1053100001237A68B968FFF7ADFE00237B6116E0D0
:1053200000233B610DE06A497A6913465B00134430
:105330001B01CA183B69134401221A703B690133EF
:105340003B613B692F2BEEDD7B6901337B617B6920
:105350002F2BE5DDFB68A3F12C0000237A68B968E8
:10536000FFF7BAFEFB681C3BB9681846FEF768FEFB
:10537000FB68A3F11C02BB68043B19461046FEF70C
:105380005FFEFB68A3F11C02BB68083B1946104690
:10539000FEF756FEFB68A3F11802BB68043B1946F2
:1053A0001046FEF74DFEFB68A3F12002BB681E3BD2
:1053B00019461046FEF744FEFB68A3F11C02BB68C9
:1053C0001A3B19461046FEF73BFEFB68A3F120028C
:1053D000BB681A3B19461046FEF732FEFB68A3F184
:1053E0001C02BB681E3B19461046FEF729FEFB68EF
:1053F000A3F11402BB680C3B19461046FEF720FED1
:10540000FB68A3F11402BB68103B19461046FEF777
:1054100017FEFB68A3F11402BB68143B1946104643
:10542000FEF70EFEFB68A3F11402BB68183B194699
:105430001046FEF705FEFB68A3F11402BB68203B93
:1054400019461046FEF7FCFDFB68A3F11002BB688D
:10545000203B19461046FEF7F3FDFB68A3F110024E
:10546000BB68243B19461046FEF7EAFDFB68A3F132
:105470000C02BB68243B19461046FEF7E1FDFB68B1
:10548000A3F10A02BB68063B19461046FEF7D8FD99
:10549000FB68A3F10A02BB680A3B19461046FEF7F7
:1054A000CFFDFB68A3F10E02BB680A3B194610460C
:1054B000FEF7C6FDFB68A3F10E02BB680E3B194662
:1054C0001046FEF7BDFD00BF1837BD4680BD00BFCA
:1054D000D093012080B584B000AF78607B68FB601A
:1054E0003CE00123BB6033E0FA6813469B001344A1
:1054F00003F10D02B9680B469B000B44591C1B4875
:1055000013465B0013441B0103440B441B78002B20
:105510001BD0FA6813469B00134403F10D00BA68D0
:1055200013469B00134401331946FEF725FDFA6824
:1055300013469B00134403F11200BA6813469B0004
:10554000134401331946FEF7B3FCBB680133BB605B
:10555000BB68092BC8DDFB68013BFB60FB68002BC7
:10556000BFDA00BF1037BD4680BD00BFD093012019
:1055700080B586B002AF0023FB600023BB6042E031
:1055800001237B601AE0BA6813469B00134403F1C1
:105590000D0279680B469B000B44591C1E481346AC
:1055A0005B0013441B0103440B441B78002B02D007
:1055B000FB680133FB607B6801337B607B68092BF0
:1055C000E1DDFB68092B19D1B86800F029F8B8684B
:1055D000FFF780FF114B1B680133104A1360002353
:1055E0000093002308222F21002000F0A3F80B4B8A
:1055F0001B681A462F21002000F04CF90023FB60A5
:10560000BB680133BB60BB680D2BB9DDFEF7B6F993
:1056100000BF1037BD4680BDD09301207493012098
:1056200080B584B000AF78607B6801337B60012374
:10563000FB6010E07A6813469B00134403F10800F6
:10564000FA6813469B00134401331946FEF794FC95
:10565000FB680133FB60FB68092BEBDD00BF1037F3
:10566000BD4680BD80B582B000AF00237B601EE0E8
:1056700000233B6015E011497A6813465B00134430
:105680001B01CA183B68134400221A707B68DBB206
:105690003A68D1B20022184607F050FD3B6801334A
:1056A0003B603B682F2BE6DD7B6801337B607B68CA
:1056B000532BDDDD00BF0837BD4680BDD0930120F0
:1056C00080B582B000AF00237B6028E000233B6000
:1056D0001FE017497A6813465B0013441B01CA1880
:1056E0003B6813441B78002B08D07B68DBB23A6818
:1056F000D1B20122184607F021FD07E07B68DBB23A
:105700003A68D1B20022184607F018FD3B68013311
:105710003B603B682F2BDCDD7B6801337B607B6863
:10572000532BD3DD07F09AFD00BF0837BD4680BD7F
:10573000D093012080B588B000AFF860B9607A607E
:105740003B60FA687B68D31A1846FBF7CDFE786198
:10575000BA683B68D31A1846FBF7C6FE38610023C7
:10576000FB611DE00023BB6112E0FA69FB681A448B
:10577000B9693B681944104813465B0013441B0188
:1057800003440B4497F828201A70BB690133BB61AE
:105790003B695A1CBB699A42E7DCFB690133FB6138
:1057A0007B695A1CFB699A42DCDCFFF789FF00BF6A
:1057B0002037BD4680BD00BFD093012080B584B0A6
:1057C00000AFF860B9607A603B603B68092B5DD838
:1057D00001A252F823F000BF015800080F5800083A
:1057E0001D5800082B580008395800084758000871
:1057F0005558000863580008715800087F58000881
:105800003B7E7A68B968F868FDF7ACFD3EE03B7E08
:105810007A68B968F868FDF7B7FD37E03B7E7A68CB
:10582000B968F868FDF7F4FD30E03B7E7A68B96846
:10583000F868FDF77BFE29E03B7E7A68B968F86876
:10584000FDF7EAFE22E03B7E7A68B968F868FDF76A
:1058500057FF1BE03B7E7A68B968F868FDF762FF86
:1058600014E03B7E7A68B968F868FDF7EBFF0DE05D
:105870003B7E7A68B968F868FEF726F806E03B7E5A
:105880007A68B968F868FEF74BF800BF00BF1037B8
:10589000BD4680BD80B58AB000AFF860B9607A605F
:1058A0007B68B14A82FB03129211DB17D31A7B6229
:1058B0007B6AAE4A02FB03F27B681344AC4A82FB6C
:1058C00003125211DB17D31A3B627B6AA74A02FB11
:1058D00003F27B681A443B6A6FF0630101FB03F338
:1058E0001344A44A82FB03129210DB17D31AFB6104
:1058F0007B6A9E4A02FB03F27B681A443B6A6FF0A4
:10590000630101FB03F31A44FB696FF0090101FB1A
:1059100003F31344BB6103237B6101237A69B968F4
:10592000F868FCF7EBFDBA687B69D31A023BBB60F1
:1059300001237A69B968F868FBF7D6FEBA687B6913
:10594000D31A023BBB6001237A69B968F868FCF797
:105950000BFCBA687B69D31A023BBB6001237A69EE
:10596000B968F868FCF73AFDBA687B69D31A023B5C
:10597000BB6001237A69B968F868FBF741FFBA6830
:105980007B69D31A013BBB60B968F868FDF7C6FBB9
:10599000BA687B69D31A013BBB607B6A092B5DD86F
:1059A00001A252F823F000BFD1590008DF590008C6
:1059B000ED590008FB590008095A0008175A000859
:1059C000255A0008335A0008415A00084F5A000867
:1059D00001237A69B968F868FDF7C4FC3EE0012349
:1059E0007A69B968F868FDF7CFFC37E001237A6976
:1059F000B968F868FDF70CFD30E001237A69B968F1
:105A0000F868FDF793FD29E001237A69B968F86821
:105A1000FDF702FE22E001237A69B968F868FDF714
:105A20006FFE1BE001237A69B968F868FDF77AFE1A
:105A300014E001237A69B968F868FDF703FF0DE007
:105A400001237A69B968F868FDF73EFF06E0012393
:105A50007A69B968F868FDF763FF00BFBA687B69C7
:105A6000D31A023BBB603B6A092B5DD801A252F8F6
:105A700023F000BF9D5A0008AB5A0008B95A00082D
:105A8000C75A0008D55A0008E35A0008F15A00081E
:105A9000FF5A00080D5B00081B5B000801237A69B0
:105AA000B968F868FDF75EFC3EE001237A69B968E1
:105AB000F868FDF769FC37E001237A69B968F8688E
:105AC000FDF7A6FC30E001237A69B968F868FDF7B4
:105AD0002DFD29E001237A69B968F868FDF79CFD7E
