:020000040800F2
:10000000141A002089010008E5010008E501000834
:10001000E5010008E5010008E50100080000000016
:10002000000000000000000000000000E5010008E2
:10003000E501000800000000E5010008E5010008F6
:10004000E5010008E5010008E5010008E5010008F8
:10005000E5010008E5010008E5010008E5010008E8
:10006000E5010008E5010008E5010008E5010008D8
:10007000E5010008E5010008E5010008E5010008C8
:10008000E5010008E5010008E5010008E5010008B8
:10009000E5010008E5010008E5010008E5010008A8
:1000A000E5010008E5010008E5010008E501000898
:1000B000890500084D040008E5010008E501000875
:1000C000E5010008E5010008E5010008E501000878
:1000D000E5010008E5010008E5010008E501000868
:1000E000E5010008E5010008E5010008E501000858
:1000F000E5010008E5010008E5010008E501000848
:10010000E5010008E5010008E5010008E501000837
:10011000E5010008E5010008E5010008E501000827
:10012000E5010008E5010008E5010008E501000817
:10013000E5010008E5010008E5010008E501000807
:10014000E5010008E5010008E5010008E5010008F7
:10015000E5010008E5010008E5010008E5010008E7
:10016000E5010008E5010008E5010008E5010008D7
:10017000E5010008E5010008E5010008E5010008C7
:10018000E5010008E501000880B582B000AF104B22
:100190007B60104B3B6007E03B681A1D3A607A6851
:1001A000111D796012681A603B680B4A9342F3D3C1
:1001B0000A480B494FF000028842B8BF40F8042BB0
:1001C000FADB00F049FA00BF0837BD4680BD00BF2A
:1001D000BC990008000000200C0000200C0000204A
:1001E0001412002080B400AFFEE700BF80B584B0D9
:1001F00000AF78607B68FB603CE00123BB6033E0CC
:10020000FA6813469B00134403F10802B9680B46D1
:100210009B000B44591C1B4813465B0013441B01F5
:1002200003440B441B78002B1BD0FA6813469B0039
:10023000134403F10800BA6813469B0013440133CA
:10024000194601F0A7F8FA6813469B00134403F11E
:100250000D00BA6813469B0013440133194601F0A0
:1002600035F8BB680133BB60BB68092BC8DDFB6890
:10027000013BFB60FB68002BBFDA00BF1037BD46B7
:1002800080BD00BF3800002080B584B000AF0023DF
:10029000FB600023BB6033E001237B601AE0BA6897
:1002A00013469B00134403F1080279680B469B0038
:1002B0000B44591C174813465B0013441B010344AD
:1002C0000B441B78002B02D0FB680133FB607B687A
:1002D00001337B607B68092BE1DDFB68092B0AD1C8
:1002E000B86800F01BF8B868FFF780FF0A4B1B687E
:1002F0000133094A13600023FB60BB680133BB6014
:10030000BB680E2BC8DD00F09DFF00BF1037BD4657
:1003100080BD00BF380000201400002080B584B0EC
:1003200000AF78600123FB6010E07A6813469B0001
:10033000134403F10800FA6813469B001344013389
:10034000194601F027F8FB680133FB60FB68092BB5
:10035000EBDD00BF1037BD4680BD00BF80B500AFEC
:100360000421344808F0ECFC0346002B0DD14FF477
:100370008051314808F0FEFC304B01221A700121F7
:100380004FF0804009F00EF804E04FF480512A4805
:1003900008F0FEFC0821274808F0D2FC0346002B99
:1003A0000DD1274B01221A7001214FF0804008F037
:1003B000F9FF4FF40051204808F0DCFC04E04FF452
:1003C00000511D4808F0E4FC10211A4808F0B8FC60
:1003D0000346002B0DD11B4B01221A7001214FF057
:1003E000804008F0DFFF4FF48041134808F0C2FC62
:1003F00004E04FF48041104808F0CAFC20210D4869
:1004000008F09EFC0346002B0DD10F4B01221A7001
:1004100001214FF0804008F0C5FF4FF4004106482D
:1004200008F0A8FC04E04FF40041034808F0B0FCD9
:1004300000BF80BD00000240000C02401000002000
:1004400011000020120000201300002080B500AF32
:10045000464B1B78002B28D008F0D2FB0146444BBA
:10046000A3FB01231A0913461B019B1A5B00CA1A3E
:10047000404B1A6007E03F4B1B68DA0F13445B10D8
:100480001A463C4B1A603B4B1B68132BF3DC394B71
:100490001B68002B02DA374B00221A601A21122047
:1004A00006F0BEFC314B00221A700121324808F0E0
:1004B000CDFF0346002B56D0304B18682F4B1969DF
:1004C0002C4B1B681A4605F01DF800F0BBFE01F02E
:1004D0002BFF2B4B1B78002B3DD0284B1A68274B4A
:1004E0001969284813465B0013441B0103440B445D
:1004F00001221A70214B5A68204B59692148134632
:100500005B0013441B0103440B4401221A701B4B74
:100510009A681A4B99691B4813465B0013441B01E8
:1005200003440B4401221A70144BDA68134BD96947
:10053000144813465B0013441B0103440B4401227F
:100540001A700F4B00221A70FFF79EFE01F0ECFEAE
:10055000064B01221A700121074808F067FF0121AC
:10056000054808F09DFF00BF80BD00BF00000020CF
:10057000898888880800002000040040F80F0020C7
:10058000180000203800002080B500AF01214FF096
:10059000804008F05BFF0346002B4FD0284B1B78B0
:1005A000002B0DD0274B1868264B1969264B1B686A
:1005B0001A4601F059FF01F0B7FE214B00221A70D4
:1005C000224B1B78002B0DD01E4B18681D4B196950
:1005D0001D4B1B681A4603F007FC01F0A5FE1B4BE0
:1005E00000221A701A4B1B78002B0DD0154B18687F
:1005F000144B1969144B1B681A4604F083FF01F071
:1006000093FE134B00221A70124B1B78002B06D05E
:1006100007F0AAF901F088FE0E4B00221A700021A3
:100620004FF0804008F0BEFE00214FF0804008F0FF
:10063000ABFE01214FF0804008F032FF00BF80BDCB
:1006400010000020F80F00200800002011000020FA
:10065000120000201300002080B58AB000AF0121F5
:10066000082000F0BFF84FF470433B62012387F885
:100670002430002387F82630032387F82530002311
:1006800087F8273007F120031946514808F0CAFAC5
:100690000121012000F0A6F83C233B62002387F8EB
:1006A0002430012387F8273007F1200319464948F1
:1006B00008F0B8FA0121022000F0B2F842F2CF03AC
:1006C000BB6142F22733BB820023BB831023FB8232
:1006D00007F114031946404808F0ECFD01213E489B
:1006E00008F060FE4FF4C06008F070FC1D233B74FE
:1006F00000237B740023BB740123FB7407F11003F8
:10070000184608F075FC0121334808F0C9FE0122A3
:100710000121314808F066FE0121012000F080F837
:1007200042F2CF03BB6040F2CF73BB800023BB819A
:100730000023FB803B1D19464FF0804008F0BAFDB6
:1007400000214FF0804008F02DFE1C233B70002359
:100750007B700023BB700123FB703B46184608F0FA
:1007600047FC01214FF0804008F09AFE0122012150
:100770004FF0804008F036FE0121042000F050F8D0
:1007800042F2CF03BB6040F2CF73BB800023BB813A
:100790000023FB803B1D1946104808F08BFD01210A
:1007A0000E4808F0FFFD08F001FB382008F062FF5A
:1007B00000F048FD08F00EFA01F0B6FD084B1B787A
:1007C00083F00103DBB2002BF8D0FFF7C7FDF5E79C
:1007D000000C0240000002400004004000080040FD
:1007E0001900002080B483B000AF78600B46FB7026
:1007F000FB78002B06D00949084B1A6B7B68134322
:100800000B6306E00549054B1A6B7B68DB4313401D
:100810000B6300BF0C37BD4680BC704700380240F8
:1008200080B483B000AF78600B46FB70FB78002B80
:1008300006D00949084B1A6C7B6813430B6406E029
:100840000549054B1A6C7B68DB4313400B6400BF02
:100850000C37BD4680BC70470038024080B483B07E
:1008600000AF78607B68002B02DA7B685B427B60BC
:100870007B6818460C37BD4680BC704780B48BB08F
:1008800000AFF860B9607A6000237B620FE0BA685D
:100890007B6AD11A3F48FA6813465B0013441B0178
:1008A00003440B4401221A707B6A01337B627B682C
:1008B0005A1C7B6A9A42EADC01233B620FE0FA6829
:1008C0003B6A1A44334913465B0013441B01CA18A0
:1008D000BB68134401221A703B6A01333B623A6AD7
:1008E0007B689A42EBDB0023FB6111E0FA687B68CE
:1008F0001A44B968FB69C91A264813465B001344B9
:100900001B0103440B4401221A70FB690133FB6194
:10091000FA697B689A42E9DB0023BB6113E0FA685D
:100920007B681A44BB691A44B9687B68C91A1948BC
:1009300013465B0013441B0103440B4401221A704D
:10094000BB690133BB61BA697B689A42E7DB00236C
:100950007B6114E07B685A00FB681A44B9687B68C5
:10096000C91A7B6919440B4813465B0013441B01E9
:1009700003440B4401221A707B6901337B617B685D
:100980005A1C7B699A42E5DC00BF2C37BD4680BC0F
:10099000704700BF3800002080B489B000AFF86015
:1009A000B9607A600023FB610FE0BA68FB69D11A75
:1009B0002548FA6813465B0013441B0103440B44AB
:1009C00001221A70FB690133FB617B685A1CFB69C9
:1009D0009A42EADC0023BB610FE0FA68BB691A4463
:1009E000194913465B0013441B01CA18BB68134422
:1009F00001221A70BB690133BB617B685B005A1C22
:100A0000BB699A42E9DC00237B6112E07B685A00F3
:100A1000FB681A44B9687B69C91A0B4813465B0026
:100A200013441B0103440B4401221A707B690133F8
:100A30007B617B685A1C7B699A42E7DC00BF2437E4
:100A4000BD4680BC704700BF3800002080B489B02C
:100A500000AFF860B9607A600023FB610FE0BA680C
:100A6000FB69D11A3248FA6813465B0013441B0134
:100A700003440B4401221A70FB690133FB617B685C
:100A80005A1CFB699A42EADC0023BB610FE0FA685A
:100A9000BB691A44264913465B0013441B01CA185C
:100AA000BB68134401221A70BB690133BB617B68C8
:100AB0005B005A1CBB699A42E9DC00237B6112E0AF
:100AC0007B685A00FB681A44B9687B69C91A1848E0
:100AD00013465B0013441B0103440B4401221A70AC
:100AE0007B6901337B617B685A1C7B699A42E7DC36
:100AF00000233B6111E0FA683B691A44B9687B68DE
:100B0000C91A0B4813465B0013441B0103440B44F2
:100B100001221A703B6901333B617B685B005A1C00
:100B20003B699A42E7DC00BF2437BD4680BC704772
:100B30003800002080B48BB000AFF860B9607A60F4
:100B400000237B620FE0BA687B6AD11A3F48FA68DB
:100B500013465B0013441B0103440B4401221A702B
:100B60007B6A01337B627B685A1C7B6A9A42EADCAF
:100B700000233B6212E0FA683B6A13445A1CB968CE
:100B80007B68C91A314813465B0013441B010344B8
:100B90000B4401221A703B6A01333B623A6A7B685C
:100BA0009A42E8DB0023FB610FE0FA68FB691A4414
:100BB000264913465B0013441B01CA18BB68134443
:100BC00001221A70FB690133FB617B685B005A1CD0
:100BD000FB699A42E9DC0023BB6111E0FA687B689B
:100BE0001A44B968BB69C91A184813465B00134414
:100BF0001B0103440B4401221A70BB690133BB6122
:100C00007B685A1CBB699A42E8DC00237B6113E0D5
:100C1000FA687B681A447B691A44B9687B69C91A07
:100C20000A4813465B0013441B0103440B44012292
:100C30001A707B6901337B617B685A1C7B699A421D
:100C4000E6DC00BF2C37BD4680BC70473800002072
:100C500080B489B000AFF860B9607A600023FB61AE
:100C60000FE0BA68FB69D11A3248FA6813465B0094
:100C700013441B0103440B4401221A70FB69013326
:100C8000FB617B685A1CFB699A42EADC0023BB616A
:100C90000FE0FA68BB691A44264913465B00134407
:100CA0001B01CA18BB68134401221A70BB690133C7
:100CB000BB617B685B005A1CBB699A42E9DC00237C
:100CC0007B6111E0FA687B681A44B9687B69C91ACC
:100CD000184813465B0013441B0103440B440122D4
:100CE0001A707B6901337B617B685A1C7B699A426D
:100CF000E8DC00233B6112E07B685A00FB681A4481
:100D0000B9683B69C91A0B4813465B0013441B01C1
:100D100003440B4401221A703B6901333B617B6839
:100D20005A1C3B699A42E7DC00BF2437BD4680BCB1
:100D3000704700BF3800002080B483B000AF7860F7
:100D400039607B685A1C3B68591E0D4813465B008E
:100D500013441B0103440B4401221A707B685A1D83
:100D60003B68591E064813465B0013441B010344AD
:100D70000B4401221A7000BF0C37BD4680BC70477F
:100D80003800002080B586B000AFF860B9607A60A6
:100D90007A68B968F868FFF7FFFD00237B6117E008
:100DA000FA687B681A447B68D90F0B445B101946BC
:100DB000BB68591A7B69C91A194813465B0013446A
:100DC0001B0103440B4401221A707B6901337B61D0
:100DD0007B68DA0F13445B105A1C7B699A42DFDC94
:100DE00000233B6113E0FA687B681A443B691A44AC
:100DF000B9687B68C91A0A4813465B0013441B0193
:100E000003440B4401221A703B6901333B613A6988
:100E10007B689A42E7DB00BF1837BD4680BD00BF44
:100E20003800002080B48BB000AFF860B9607A6001
:100E300000237B620FE0BA687B6AD11A4B48FA68DC
:100E400013465B0013441B0103440B4401221A7038
:100E50007B6A01337B627B685A1C7B6A9A42EADCBC
:100E600000233B6211E0FA683B6A1A44B9687B6868
:100E7000C91A3E4813465B0013441B0103440B444C
:100E800001221A703B6A01333B627B685A1C3B6A41
:100E90009A42E8DC0023FB6113E0FA687B681A449D
:100EA000FB691A44B9687B68C91A304813465B006D
:100EB00013441B0103440B4401221A70FB690133E4
:100EC000FB617B685A1CFB699A42E6DC0023BB612C
:100ED00011E0FA687B681A44BB691A442349134637
:100EE0005B0013441B01CA18BB68134401221A702B
:100EF000BB690133BB617B685A1CBB699A42E8DC61
:100F000000237B610FE0FA687B691A441749134696
:100F10005B0013441B01CA18BB68134401221A70FA
:100F20007B6901337B617A697B689A42EBDB002342
:100F30003B6111E0FA687B681A44B9683B69C91AD9
:100F40000A4813465B0013441B0103440B4401226F
:100F50001A703B6901333B613A697B689A42E9DB6D
:100F600000BF2C37BD4680BC704700BF3800002052
:100F700080B48DB000AFF860B9607A600023FB6286
:100F800011E0FA687B681A44FB6A1A445449134614
:100F90005B0013441B01CA18BB68134401221A707A
:100FA000FB6A0133FB627B685A1CFB6A9A42E8DCED
:100FB0000023BB620FE0FA68BB6A1A444849134633
:100FC0005B0013441B01CA18BB68134401221A704A
:100FD000BB6A0133BB62BA6A7B689A42EBDB0023CF
:100FE0007B6211E0FA687B6A1A44B9687B68C91AA7
:100FF0003B4813465B0013441B0103440B4401228E
:101000001A707B6A01337B627B685A1C7B6A9A4246
:10101000E8DC00233B6213E0FA687B681A443B6A11
:101020001A44B9687B68C91A2D4813465B001344FB
:101030001B0103440B4401221A703B6A01333B62DB
:101040007B685A1C3B6A9A42E6DC0023FB6110E095
:10105000FA68FB691A44BB68591E214813465B00B5
:1010600013441B0103440B4401221A70FB69013332
:10107000FB61FB69022BEBDD0023BB6111E0FA6829
:10108000BB691344DA1CBB68991E154813465B0004
:1010900013441B0103440B4401221A70BB69013342
:1010A000BB61BB69022BEADD00237B6110E0FA68BB
:1010B0007B691A44BB68D91E094813465B00134478
:1010C0001B0103440B4401221A707B6901337B61CD
:1010D0007B69022BEBDD00BF3437BD4680BC704717
:1010E0003800002080B489B000AFF860B9607A6041
:1010F0004B49FA6813465B0013441B01CA18BB68CE
:10110000134401221A70FB685A1C454913465B00C0
:1011100013441B01CA18BB68134401221A70002330
:10112000FB6111E0FA68FB6913449A1CBB68591E05
:101130003B4813465B0013441B0103440B4401224C
:101140001A70FB690133FB61FB69032BEADD0023A5
:10115000BB6111E0FA68BB6913441A1DBB68991E94
:101160002F4813465B0013441B0103440B44012228
:101170001A70BB690133BB61BB69022BEADD002336
:101180007B6111E0FA687B6913449A1DBB68991E64
:10119000234813465B0013441B0103440B44012204
:1011A0001A707B6901337B617B69012BEADDBA68C8
:1011B0007B68D11A1A48FA6813465B0013441B0176
:1011C00003440B4401221A70FB685A1CB9687B68FF
:1011D000C91A134813465B0013441B0103440B4414
:1011E00001221A7000233B6111E0FA683B69134445
:1011F0009A1CBB68D91E0A4813465B0013441B01A6
:1012000003440B4401221A703B6901333B613B6983
:10121000032BEADD00BF2437BD4680BC704700BF0A
:101220003800002080B584B000AFF860B9607A6003
:101230007A68B968F868FFF709FC00BF1037BD4647
:1012400080BD00BF80B483B000AF00237B601AE094
:101250007B6803F108021C4913465B0013441B0121
:101260000B442F3301221A707B68C3F152021649D6
:1012700013465B0013441B010B44013301221A7017
:101280007B6801337B607B684A2BE1DD00233B6098
:1012900012E03B68C3F12F030B4A1344012283F889
:1012A000902F3B68C3F12F03074A1344012283F8B0
:1012B00080213B6801333B603B682E2BE9DD00BF9A
:1012C0000C37BD4680BC70473800002080B485B024
:1012D00000AF786039600023FB604BE07A68FB6800
:1012E0001A442A4913465B0013441B01CA183B6881
:1012F000134401221A703A68FB68D11A23487A68AD
:1013000013465B0013441B0103440B4401221A7073
:101310001F4B1A687B681A443968FB68C91A1B4856
:1013200013465B0013441B0103440B4401221A7053
:101330007A68FB681A44164B1B683968C91A134847
:1013400013465B0013441B0103440B4401221A7033
:101350007A68FB681A443968FB68C91A0B48134657
:101360005B0013441B0103440B4401221A70FB6809
:101370000133FB60064B1B685A1CFB689A42ADDCCC
:1013800000BF1437BD4680BC704700BF3800002046
:101390000400002080B485B000AF7860396000237D
:1013A000FB604BE07A68FB681A442A4913465B00ED
:1013B00013441B01CA183B68134400221A703A6890
:1013C000FB68D11A23487A6813465B0013441B015B
:1013D00003440B4400221A701F4B1A687B681A449E
:1013E0003968FB68C91A1B4813465B0013441B018C
:1013F00003440B4400221A707A68FB681A44164BA7
:101400001B683968C91A134813465B0013441B0153
:1014100003440B4400221A707A68FB681A44396846
:10142000FB68C91A0B4813465B0013441B010344B5
:101430000B4400221A70FB680133FB60064B1B68EB
:101440005A1CFB689A42ADDC00BF1437BD4680BC15
:10145000704700BF380000200400002080B582B033
:1014600000AF7860396039687868FFF72FFF254B47
:101470001B683A68D31A013B19467868FFF726FFC4
:10148000204B1A687B681344013339681846FFF70C
:101490001DFF1C4B1A687B681344581C194B1B68B2
:1014A0003A68D31A013B1946FFF710FF164A7B68CA
:1014B0001360154A3B681361134A7B685360114BF4
:1014C0001B683A68D31A104A53610E4B1A687B683E
:1014D000134401330C4A93600B4A3B689361094BF8
:1014E0001A687B6813440133074AD360054B1B68B5
:1014F0003A68D31A013B044AD36100BF0837BD469E
:1015000080BD00BF04000020F80F002080B582B02D
:1015100000AF7860396039687868FFF7D7FE254BEF
:101520001B683A68D31A013B19467868FFF7CEFE6C
:10153000204B1B6801335B003A68D31A1946786860
:10154000FFF7C4FE1B4B1B6801331A469B00D21ADF
:101550003B68134419467868FFF7B8FE164A7B6863
:101560001360154A3B681361134A7B685360114B43
:101570001B683A68D31A013B0F4A53610E4A7B68D5
:1015800093600C4B1B6801335B003A68D31A0A4A1C
:101590009361094A7B68D360064B1B6801331A4686
:1015A0009B00D21A3B681344034AD36100BF08373B
:1015B000BD4680BD04000020F80F002080B582B039
:1015C00000AF7860396039687868FFF77FFE254B97
:1015D0001A687B681344013339681846FFF776FEB2
:1015E000204B1B6801335A007B6813443968184646
:1015F000FFF76CFE1B4B1B685A1C13465B001A441A
:101600007B68134439681846FFF760FE164A7B680A
:101610001360154A3B681361124B1A687B681344C8
:101620000133114A5360104A3B6853610D4B1B68EC
:1016300001335A007B6813440B4A93600A4A3B68A3
:101640009361084B1B685A1C13465B001A447B6865
:101650001344054AD360044A3B68D36100BF08378E
:10166000BD4680BD04000020F80F002080B582B088
:1016700000AF7860396039687868FFF727FE274B3C
:101680001B683A68D31A013B19467868FFF71EFEBB
:10169000224B1B6801335B003A68D31A19467868FD
:1016A000FFF714FE1D4B1B687A68D31A581E1B4B9C
:1016B0001B6801335B003A68D31A1946FFF706FE30
:1016C000174A7B681360164A3B681361144A7B68AB
:1016D0005360124B1B683A68D31A013B104A53619E
:1016E0000F4A7B6893600D4B1B6801335B003A68BF
:1016F000D31A0B4A9361094B1B687A68D31A013BD2
:10170000074AD360054B1B6801335B003A68D31A64
:10171000034AD36100BF0837BD4680BD04000020E6
:10172000F80F002080B582B000AF7860396039686A
:101730007868FFF7CBFD224B1B683A68D31A013B50
:1017400019467868FFF7C2FD1D4B1B6801335B002B
:101750003A68D31A19467868FFF7B8FD184B1B682A
:101760007A68D31A013B39681846FFF7AFFD154A6E
:101770007B681360134A3B681361124A7B685360AD
:101780000F4B1B683A68D31A013B0E4A53610D4A4E
:101790007B6893600A4B1B6801335B003A68D31A7D
:1017A000084A9361064B1B687A68D31A013B054AC5
:1017B000D360044A3B68D36100BF0837BD4680BD93
:1017C00004000020F80F002080B582B000AF7860E0
:1017D000396039687868FFF779FD274B1B683A68EC
:1017E000D31A013B19467868FFF770FD224B1B683E
:1017F00001335B003A68D31A19467868FFF766FD33
:101800001D4B1A687B681344581C1B4B1B68013323
:101810005B003A68D31A1946FFF758FD174A7B68F0
:101820001360164A3B681361144A7B685360124B7D
:101830001B683A68D31A013B104A53610F4A7B6810
:1018400093600D4B1B6801335B003A68D31A0B4A57
:101850009361094B1A687B6813440133074AD360CC
:10186000054B1B6801335B003A68D31A034AD36106
:1018700000BF0837BD4680BD04000020F80F0020DF
:1018800080B582B000AF7860396039687868FFF75A
:101890001DFD224B1B683A68D31A013B1946786834
:1018A000FFF714FD1D4B1B6801335B003A68D31A28
:1018B00019467868FFF70AFD184B1A687B681344CD
:1018C000013339681846FFF701FD154A7B6813603C
:1018D000134A3B681361124A7B6853600F4B1B68C5
:1018E0003A68D31A013B0E4A53610D4A7B689360F4
:1018F0000A4B1B6801335B003A68D31A084A9361AC
:10190000064B1A687B6813440133054AD360044AC6
:101910003B68D36100BF0837BD4680BD040000208E
:10192000F80F002080B582B000AF78603960396868
:101930007868FFF7CBFC274B1A687B6813440133A8
:1019400039681846FFF7C2FC224B1B6801335A0066
:101950007B68134439681846FFF7B8FC1D4B1B68B9
:1019600001335A007B68D0181A4B1B683A68D31AA7
:10197000013B1946FFF7AAFC174A7B681360164A19
:101980003B681361134B1A687B6813440133124A96
:101990005360114A3B6853610E4B1B6801335A0078
:1019A0007B6813440C4A93600B4A3B689361094B74
:1019B0001B6801335A007B681344074AD360054B08
:1019C0001B683A68D31A013B034AD36100BF08374A
:1019D000BD4680BD04000020F80F002080B582B015
:1019E00000AF7860396039687868FFF76FFC274B83
:1019F0001A687B681344013339681846FFF766FCA0
:101A0000224B1B6801335A007B681344396818461F
:101A1000FFF75CFC1D4B1B6801335A007B68D01834
:101A20001A4B1A683B68134401331946FFF74EFC02
:101A3000174A7B681360164A3B681361134B1A6898
:101A40007B6813440133124A5360114A3B68536167
:101A50000E4B1B6801335A007B6813440C4A936099
:101A60000B4A3B689361094B1B6801335A007B6842
:101A70001344074AD360054B1A683B68134401338B
:101A8000034AD36100BF0837BD4680BD0400002073
:101A9000F80F002080B582B000AF786039603968F7
:101AA0007868FFF713FC224B1A687B6813440133F4
:101AB00039681846FFF70AFC1D4B1B6801335A00B2
:101AC0007B68134439681846FFF700FC184B1B6805
:101AD0003A68D31A013B19467868FFF7F7FB154AB5
:101AE0007B681360134A3B681361114B1A687B686B
:101AF000134401330F4A53600E4A3B6853610C4B49
:101B00001B6801335A007B6813440A4A9360094AF0
:101B10003B689361074A7B68D360054B1B683A6852
:101B2000D31A013B034AD36100BF0837BD4680BDCD
:101B300004000020F80F002080B582B000AF78606C
:101B4000396039687868FFF7C1FB224B1A687B68F7
:101B50001344013339681846FFF7B8FB1D4B1B6867
:101B600001335A007B68134439681846FFF7AEFB0F
:101B7000184B1A683B681344013319467868FFF71D
:101B8000A5FB154A7B681360134A3B681361114B30
:101B90001A687B68134401330F4A53600E4A3B684E
:101BA00053610C4B1B6801335A007B6813440A4A8B
:101BB0009360094A3B689361074A7B68D360054B91
:101BC0001A683B6813440133034AD36100BF0837E6
:101BD000BD4680BD04000020F80F002080B582B013
:101BE00000AF7860396039687868FFF76FFB264B83
:101BF0001B683A68D31A013B19467868FFF766FB01
:101C0000214B1B6801335B003A68D31A1946786888
:101C1000FFF75CFB1C4B1A687B681344581C1A4B7B
:101C20001B683A68D31A013B1946FFF74FFB174A66
:101C30007B681360154A3B681361144A7B685360E4
:101C4000114B1B683A68D31A013B104A53610F4A83
:101C50007B6893600C4B1B6801335B003A68D31AB6
:101C60000A4A9361084B1A687B6813440133074A98
:101C7000D360054B1B683A68D31A013B034AD36112
:101C800000BF0837BD4680BD04000020F80F0020CB
:101C900080B582B000AF7860396039687868FFF746
:101CA00015FB264B1B683A68D31A013B1946786826
:101CB000FFF70CFB214B1B6801335B003A68D31A1A
:101CC00019467868FFF702FB1C4B1B687A68D31A29
:101CD000581E1A4B1B683A68D31A013B1946FFF786
:101CE000F5FA174A7B681360154A3B681361144A7A
:101CF0007B685360114B1B683A68D31A013B104A4A
:101D000053610F4A7B6893600C4B1B6801335B0087
:101D10003A68D31A0A4A9361084B1B687A68D31A47
:101D2000013B074AD360054B1B683A68D31A013B55
:101D3000034AD36100BF0837BD4680BD04000020C0
:101D4000F80F002080B582B000AF78603960396844
:101D50007868FFF7BBFA264B1A687B681344013397
:101D600039681846FFF7B2FA214B1B6801335A0055
:101D70007B68134439681846FFF7A8FA1C4B1A68A9
:101D80007B681344581C1A4B1B683A68D31A013BF2
:101D90001946FFF79BFA174A7B681360154A3B68A0
:101DA0001361134B1A687B6813440133114A536063
:101DB000104A3B6853610E4B1B6801335A007B6825
:101DC00013440C4A93600B4A3B689361084B1A68B2
:101DD0007B6813440133074AD360054B1B683A689C
:101DE000D31A013B034AD36100BF0837BD4680BD0B
:101DF00004000020F80F002080B582B000AF7860AA
:101E0000396039687868FFF761FA264B1A687B6891
:101E10001344013339681846FFF758FA214B1B6801
:101E200001335A007B68134439681846FFF74EFAAD
:101E30001C4B1A687B681344581C1A4B1A683B6881
:101E4000134401331946FFF741FA174A7B681360C0
:101E5000154A3B681361134B1A687B6813440133BE
:101E6000114A5360104A3B6853610E4B1B680133A3
:101E70005A007B6813440C4A93600B4A3B68936199
:101E8000084B1A687B6813440133074AD360054B3B
:101E90001A683B6813440133034AD36100BF083713
:101EA000BD4680BD04000020F80F002080B582B040
:101EB00000AF7860396039687868FFF707FA2A4B15
:101EC0001B683A68D31A013B19467868FFF7FEF998
:101ED000254B1A687B681344581C234B1B6801333D
:101EE0005B003A68D31A1946FFF7F0F91E4B1A68DF
:101EF0007B681344581C1C4B1B683A68D31A013B7F
:101F00001946FFF7E3F9194A7B681360174A3B68E3
:101F10001361164A7B685360134B1B683A68D31AE7
:101F2000013B124A5361104B1A687B68134401331A
:101F30000E4A93600C4B1B6801335B003A68D31A5E
:101F40000A4A9361084B1A687B6813440133074AB5
:101F5000D360054B1B683A68D31A013B034AD3612F
:101F600000BF0837BD4680BD04000020F80F0020E8
:101F700080B582B000AF786039602D4B1A687B68FD
:101F80001344013339681846FFF7A0F9284B1B6842
:101F90003A68D31A013B19467868FFF797F9244B42
:101FA0001B6801335B003A68D31A19467868FFF75B
:101FB0008DF91F4B1A687B681344581C1C4B1B6817
:101FC0003A68D31A013B1946FFF780F9184B1A6893
:101FD0007B6813440133174A1360164A3B68136148
:101FE000144A7B685360124B1B683A68D31A013B52
:101FF000104A53610F4A7B6893600D4B1B68013395
:102000005B003A68D31A0B4A9361094B1A687B68E4
:1020100013440133074AD360054B1B683A68D31A4F
:10202000013B044AD36100BF0837BD4680BD00BFF5
:1020300004000020F80F002080B582B000AF786067
:10204000396039687868FFF741F9254B1B683A68B1
:10205000D31A013B19467868FFF738F9204B1A6804
:102060007B681344013339681846FFF72FF91C4B7E
:102070001B687A68D31A581E194B1B683A68D31A22
:10208000013B1946FFF722F9164A7B681360154A8F
:102090003B681361134A7B685360114B1B683A68B5
:1020A000D31A013B0F4A53610D4B1A687B681344E6
:1020B00001330C4A93600B4A3B689361084B1B68E1
:1020C0007A68D31A013B074AD360054B1B683A680C
:1020D000D31A013B034AD36100BF0837BD4680BD18
:1020E00004000020F80F002080B582B000AF7860B7
:1020F000396039687868FFF7E9F8254B1B687A681A
:10210000D31A013B39681846FFF7E0F8204B1B68EB
:102110003A68D31A013B19467868FFF7D7F81C4B89
:102120001A687B681344581C194B1B683A68D31A09
:10213000013B1946FFF7CAF8164A7B681360154A37
:102140003B681361134A7B685360114B1B683A6804
:10215000D31A013B0F4A53610D4B1A687B68134435
:1021600001330C4A93600A4B1B683A68D31A013B4F
:10217000084A9361064B1B687A68D31A013B054AEB
:10218000D360044A3B68D36100BF0837BD4680BDB9
:1021900004000020F80F002080B584B000AFF86084
:1021A000B9607A603B607A68B968F868FEF766FBE8
:1021B000BA687B68D31A023BBB607A68B968F86872
:1021C000FEF7EAFBBA687B68D31A023BBB607A6809
:1021D000B968F868FEF73AFCBA687B68D31A023B24
:1021E000BB607A68B968F868FEF7A4FCBA687B68D7
:1021F000D31A023BBB607A68B968F868FEF728FD1D
:10220000BA687B68D31A013BBB60B968F868FEF70F
:1022100093FDBA687B68D31A013BBB607A68B968E2
:10222000F868FEF7FFFFBA687B68D31A023BBB6011
:102230007A68B968F868FEF7F5FFBA687B68D31A60
:10224000023BBB607A68B968F868FEF7EBFFBA68D2
:102250007B68D31A023BBB607A68B968F868FEF7FE
:10226000E1FF00BF1037BD4680BD00BF80B584B020
:1022700000AFF860B9607A607A68B968F868FEF70C
:1022800081FDBA687B68D31A023BBB607A68B96883
:10229000F868FEF7C7FDBA687B68D31A023BBB60DB
:1022A0007A68B968F868FEF763FEBA687B68D31A83
:1022B000023BBB607A68B968F868FEF7C9FC7B68C6
:1022C0009A1C13465B001344BA681344BB60FA6857
:1022D0007B6813440633FB607A68B968F868FEF7D8
:1022E000B5FBBA687B68D31A023BBB607A68B968F1
:1022F000F868FEF7F7FEBA687B68D31A023BBB604A
:102300007A68B968F868FEF7A3FCBA687B68D31AE4
:10231000023BBB607A68B968F868FEF70BFC00BF47
:102320001037BD4680BD00BF80B582B000AF00232E
:102330007B6028E000233B601FE017497A68134662
:102340005B0013441B01CA183B6813441B78002B25
:1023500008D07B68DBB23A68D1B20122184607F098
:10236000E7F907E07B68DBB23A68D1B20022184691
:1023700007F0DEF93B6801333B603B682F2BDCDD67
:102380007B6801337B607B68532BD3DD07F060FAF9
:1023900000BF0837BD4680BD3800002080B588B03A
:1023A00000AFF860B9607A603B60FA687B68D31A66
:1023B0001846FEF753FA7861BA683B68D31A184694
:1023C000FEF74CFA38610023FB611BE00023BB6180
:1023D00011E0FA69FB681A44B9693B6819440E4870
:1023E00013465B0013441B0103440B4400221A7084
:1023F000BB690133BB61BA693B699A42E9DBFB699E
:102400000133FB61FA697B699A42DFDBFFF78CFFDE
:1024100000BF2037BD4680BD3800002080B500AF2A
:102420000F4B01221A7000214FF0804006F0BAFFD6
:1024300000210C4806F0B6FF0B233B222621232067
:10244000FFF7ACFF042224212620FFF70FFF002313
:1024500003222F210020FFF79FFE00BF80BD00BF99
:10246000190000200004004080B584B000AFF8607F
:10247000B9607A607B68122B01F2AC8401A252F839
:1024800023F000BFD1240008EB2500089D2600089A
:102490008D280008B7290008D12A0008FB2B000866
:1024A000152D00089D2E000829300008A5310008D0
:1024B0001B3300084534000861350008E136000888
:1024C0004D3800087D3900089F3A00081D3C00087F
:1024D0006F4B1B68BA68D31A5A1E6D4B1B68D31A10
:1024E000591E6C48FA6813465B0013441B010344F1
:1024F0000B441B7883F00103DBB2002B01F0458411
:10250000634B1A68FB6813445A1C614B1B68B9681B
:10251000CB1A591E5E4B1B68CB1A591E5D481346D9
:102520005B0013441B0103440B441B7883F001033D
:10253000DBB2002B01F02984B968F868FEF72AFFA6
:10254000534B1A68FB6813440133B9681846FEF709
:1025500021FF4F4B1B6801335B00BA68D31A194641
:10256000F868FEF7B3FE4A4B1A68FB681344581C20
:10257000474B1B6801335B00BA68D31A1946FEF754
:10258000A5FE454AFB681360434AFB685360404B15
:102590001B68BA68D31A013B3F4A13613C4B1B6866
:1025A00001335B00BA68D31A3B4A5361384B1A684F
:1025B000FB6813440133384A9360354B1A68FB6853
:1025C00013440133344AD360314B1B68BA68D31AC1
:1025D000013B314A93612E4B1B6801335B00BA68A3
:1025E000D31A2D4AD36101F0D0BB294B1B680133AC
:1025F0009B00BA68D11A2748FA6813465B00134457
:102600001B0103440B441B7883F00103DBB2002B56
:1026100001F0BD83B968F868FEF7BCFE1C4B1B686F
:1026200001339B00BA68D31A1946F868FEF74EFECC
:10263000194AFB681360184AFB685360144B1B6807
:10264000BA68D31A013B144A1361114B1B6801335A
:102650005B00BA68D31A104A53610F4AFB68936053
:102660000D4AFB68D3600A4B1B6801331A469B0076
:10267000D21ABB681344084A9361054B1B680133A7
:102680009B00BA68D31A044AD36101F080BB00BF33
:102690000400002038000020F80F0020784B1B6851
:1026A000BA68D31A591E7748FA6813465B00134478
:1026B0001B0103440B441B7883F00103DBB2002BA6
:1026C00001F067836E4B1A68FB6813445A1C6C4B0D
:1026D0001B68B968CB1A591E6A4813465B0013443D
:1026E0001B0103440B441B7883F00103DBB2002B76
:1026F00001F04F83624B1B6801335A00FB681A4498
:102700005F4B1B68B968CB1A591E5E4813465B00C5
:1027100013441B0103440B441B7883F00103DBB219
:10272000002B01F03683564B1B685A1C13465B0086
:102730001A44FB681A44524B1B68B968CB1A591EDD
:10274000504813465B0013441B0103440B441B78A1
:1027500083F00103DBB2002B01F01B83B968F8683A
:10276000FEF718FE464B1B685A1CFB681344B968F9
:102770001846FEF70FFE424B1B6801335A00FB68F8
:102780001344B9681846FEF705FE3D4B1B685A1CFA
:1027900013465B001A44FB681344B9681846FEF7F9
:1027A000F9FD374B1B68BA68D31A013B1946F86824
:1027B000FEF78CFD324B1B685A1CFB68D018304B5F
:1027C0001B68BA68D31A013B1946FEF77FFD2C4BF4
:1027D0001B6801335A00FB68D018294B1B68BA6884
:1027E000D31A013B1946FEF771FD254B1B685A1C95
:1027F00013465B001A44FB68D018214B1B68BA686B
:10280000D31A013B1946FEF761FD1F4AFB681360AE
:102810001B4B1B68BA68D31A013B1B4A1361184B48
:102820001B685A1CFB681344174A5360144B1B68FF
:10283000BA68D31A013B144A5361114B1B68013328
:102840005A00FB681344104A93600D4B1B68BA682A
:10285000D31A013B0C4A9361094B1B685A1C13465F
:102860005B001A44FB681344074AD360044B1B689F
:10287000BA68D31A013B044AD36101F08ABA00BF97
:102880000400002038000020F80F00208D4B1B684A
:1028900001331A469B00D21ABB68D1188A48FA68DD
:1028A00013465B0013441B0103440B441B7883F065
:1028B0000103DBB2002B01F06E82824B1B68FA68C9
:1028C000D31A5A1E7F4B1B68013319469B00C91A45
:1028D000BB6819447C4813465B0013441B01034446
:1028E0000B441B7883F00103DBB2002B01F0538211
:1028F000B968F868FEF74EFD724B1B68FA68D31A88
:10290000581E704B1B6801335B00BA68D31A194616
:10291000FEF740FD6B4B1B6801331A469B00D21A31
:10292000BB6813441946F868FEF7D0FC654B1B687A
:10293000FA68D31A581E634B1B6801331A469B0072
:10294000D21ABB6813441946FEF7C0FC5F4AFB6805
:1029500013605C4B1B68BA68D31A013B5B4A136176
:102960005A4AFB685360574B1B6801335B00BA68D7
:10297000D31A564A5361554AFB689360514B1B6802
:1029800001331A469B00D21ABB6813444F4A936125
:102990004C4B1B68FA68D31A013B4C4AD360494B35
:1029A0001B6801331A469B00D21ABB681344474A7E
:1029B000D36101F0F0B9434B1B68FA68D31A5A1E71
:1029C000404B1B68B968CB1A591E3F4813465B0041
:1029D00013441B0103440B441B7883F00103DBB257
:1029E000002B01F0DA81374B1B6801331A469B003C
:1029F000D21ABB68D1183448FA6813465B001344F6
:102A00001B0103440B441B7883F00103DBB2002B52
:102A100001F0C381B968F868FEF7BCFC294B1B685C
:102A2000FA68D31A013BB9681846FEF7B3FC254B88
:102A30001B68FA68D31A581E224B1B68BA68D31A4F
:102A4000013B1946FEF742FC1E4B1B6801331A4638
:102A50009B00D21ABB6813441946F868FEF736FC8F
:102A60001A4AFB681360174B1B68BA68D31A013BFC
:102A7000164A1361154AFB685360124B1B680133F9
:102A80005B00BA68D31A114A5361104AFB6893601D
:102A90000C4B1B6801331A469B00D21ABB681344C7
:102AA0000A4A9361074B1B68FA68D31A013B074A2D
:102AB000D360044B1B68BA68D31A013B034AD36145
:102AC00001F06BB90400002038000020F80F00204E
:102AD0008D4B1B6801331A469B00D21ABB68D11874
:102AE0008A48FA6813465B0013441B0103440B44F5
:102AF0001B7883F00103DBB2002B01F05081824B85
:102B00001A68FB6813445A1C7F4B1B680133194633
:102B10009B00C91ABB6819447C4813465B001344E8
:102B20001B0103440B441B7883F00103DBB2002B31
:102B300001F03581B968F868FEF72CFC724B1A6811
:102B4000FB681344581C704B1B6801335B00BA6868
:102B5000D31A1946FEF71EFC6B4B1B6801331A464D
:102B60009B00D21ABB6813441946F868FEF7AEFB07
:102B7000654B1A68FB681344581C634B1B68013390
:102B80001A469B00D21ABB6813441946FEF79EFBF7
:102B90005F4AFB6813605C4B1B68BA68D31A013B41
:102BA0005B4A13615A4AFB685360574B1B680133F9
:102BB0005B00BA68D31A564A5361554AFB68936062
:102BC000514B1B6801331A469B00D21ABB68134451
:102BD0004F4A93614C4B1A68FB68134401334C4ACB
:102BE000D360494B1B6801331A469B00D21ABB685D
:102BF0001344474AD36101F0D2B8434B1B680133F9
:102C00001A469B00D21ABB68D1184048FA6813468E
:102C10005B0013441B0103440B441B7883F0010346
:102C2000DBB2002B01F0BD80374B1A68FB68134400
:102C30005A1C354B1B68B968CB1A591E33481346CA
:102C40005B0013441B0103440B441B7883F0010316
:102C5000DBB2002B01F0A580B968F868FEF79AFB9B
:102C6000294B1A68FB6813440133B9681846FEF70C
:102C700091FB254B1A68FB681344581C224B1B68B8
:102C8000BA68D31A013B1946FEF720FB1E4B1B689E
:102C900001331A469B00D21ABB6813441946F868E0
:102CA000FEF714FB1A4AFB681360174B1B68BA68DF
:102CB000D31A013B164A1361154AFB685360124B45
:102CC0001B6801335B00BA68D31A114A5361104A7A
:102CD000FB6893600C4B1B6801331A469B00D21AA9
:102CE000BB6813440A4A9361074B1A68FB68134494
:102CF0000133074AD360044B1B68BA68D31A013BFF
:102D0000034AD36101F04DB80400002038000020D0
:102D1000F80F00205E4B1B68BA68D31A591E5D4835
:102D2000FA6813465B0013441B0103440B441B78F1
:102D300083F00103DBB2002B01F03580544B1A689D
:102D4000FB6813445A1C524B1B68B968CB1A591EB6
:102D5000504813465B0013441B0103440B441B788B
:102D600083F00103DBB2002B01F01D80484B1B6890
:102D700001335A00FB681A44454B1B6801335B0062
:102D8000B968C91A434813465B0013441B01034446
:102D90000B441B7883F00103DBB2002B01F00380AE
:102DA000B968F868FEF7F6FA394B1A68FB681344FD
:102DB0000133B9681846FEF7EDFA354B1A68FB681F
:102DC00013445A1C324B1B6813440133B96818462C
:102DD000FEF7E0FA2E4B1B68BA68D31A013B19467E
:102DE000F868FEF773FA2A4B1A68FB681344581CFC
:102DF000274B1B68BA68D31A013B1946FEF766FADF
:102E0000234B1B6801335A00FB68D018204B1B680A
:102E100001335B00BA68D31A1946FEF757FA1E4A07
:102E2000FB6813601A4B1B68BA68D31A013B1A4A35
:102E30001361174B1A68FB6813440133164A536039
:102E4000134B1B68BA68D31A013B134A5361104BEA
:102E50001B6801335A00FB6813440F4A93600C4B04
:102E60001B68BA68D31A013B0B4A9361084B1B6875
:102E700001335A00FB681344074AD360044B1B68B4
:102E800001335B00BA68D31A034AD36100F08BBFE9
:102E90000400002038000020F80F00205F4B1B6862
:102EA000BA68D31A591E5E48FA6813465B00134489
:102EB0001B0103440B441B7883F00103DBB2002B9E
:102EC00000F07387554B1A68FB6813445A1C534B28
:102ED0001B68B968CB1A591E514813465B0013444E
:102EE0001B0103440B441B7883F00103DBB2002B6E
:102EF00000F05B87494B1B6801335A00FB681A449A
:102F0000464B1B68B968CB1A591E454813465B00EF
:102F100013441B0103440B441B7883F00103DBB211
:102F2000002B00F04287B968F868FEF733FA3B4B94
:102F30001A68FB6813440133B9681846FEF72AFA89
:102F4000364B1A68FB6813445A1C344B1B681344F5
:102F5000581C324B1A68BB68134401331946FEF7FC
:102F600019FA2E4B1B68BA68D31A013B1946F86848
:102F7000FEF7ACF9294B1A68FB681344581C274B21
:102F80001B68BA68D31A013B1946FEF79FF9234B19
:102F90001B6801335A00FB68D018204B1B68BA68C5
:102FA000D31A013B1946FEF791F91E4AFB681360DC
:102FB0001A4B1B68BA68D31A013B1A4A1361174BA4
:102FC0001A68FB6813440133164A5360134B1B689D
:102FD000BA68D31A013B134A5361104B1B68013383
:102FE0005A00FB6813440F4A93600C4B1B68BA6885
:102FF000D31A013B0B4A9361084B1B6801335A00FB
:10300000FB681344074AD360044B1B68BA68D31AA1
:10301000013B044AD36100F0C8BE00BF0400002099
:1030200038000020F80F00205B4B1B6801335B0069
:10303000BA68D11A5948FA6813465B0013441B0159
:1030400003440B441B7883F00103DBB2002B00F038
:10305000AE86514B1A68FB6813445A1C4E4B1B68D2
:10306000B968CB1A591E4D4813465B0013441B0127
:1030700003440B441B7883F00103DBB2002B00F008
:103080009686454B1B6801335A00FB681A44424B35
:103090001B68B968CB1A591E404813465B0013449D
:1030A0001B0103440B441B7883F00103DBB2002BAC
:1030B00000F07D86B968F868FEF76CF9364B1A683F
:1030C000FB6813440133B9681846FEF763F9324BC5
:1030D0001A68FB6813445A1C2F4B1B6813440133B6
:1030E000B9681846FEF756F92B4B1B6801335B0095
:1030F000BA68D31A1946F868FEF7E8F8264B1A683A
:10310000FB681344581C244B1B68BA68D31A013B54
:103110001946FEF7DBF8204B1B6801335A00FB68A9
:10312000D0181D4B1B68BA68D31A013B1946FEF72D
:10313000CDF81B4AFB681360174B1B68BA68D31A9B
:10314000013B174A1361144B1A68FB68134401339F
:10315000134A5360104B1B68BA68D31A013B104ADC
:1031600053610D4B1B6801335A00FB6813440C4A32
:103170009360094B1B68BA68D31A013B084A9361F4
:10318000074AFB68D360044B1B68BA68D31A013B3B
:10319000034AD36100F00BBE040000203800002079
:1031A000F80F0020A44B1B68BA68D31A591EA34815
:1031B000FA6813465B0013441B0103440B441B785D
:1031C00083F00103DBB2002B00F0F3859A4B1A6801
:1031D000FB6813445A1C984B1B68B968CB1A591EDC
:1031E000964813465B0013441B0103440B441B78B1
:1031F00083F00103DBB2002B00F0DB858E4B1B68F4
:1032000001335A00FB681A448B4B1B68B968CB1A10
:10321000591E8A4813465B0013441B0103440B44A8
:103220001B7883F00103DBB2002B00F0C285824BD8
:103230001A68BB68134401331946F868FEF7AAF808
:103240007D4B1A68FB6813440133B9681846FEF7D2
:10325000A1F8794B1A68FB6813445A1C764B1B681B
:1032600013440133B9681846FEF794F8724B1B6893
:10327000BA68D31A013B1946F868FEF727F86E4B77
:103280001A68FB681344581C6B4B1B68BA68D31A46
:10329000013B1946FEF71AF8674B1B6801335A00C9
:1032A000FB68D018644B1B68BA68D31A013B1946F7
:1032B000FEF70CF8624AFB6813605F4B1B68BA6844
:1032C000D31A013B5E4A13615B4B1A68FB681344D7
:1032D00001335B4A5360584B1B68BA68D31A013BF1
:1032E000574A5361544B1B6801335A00FB6813441F
:1032F000534A9360504B1B68BA68D31A013B504A3B
:1033000093614F4AFB68D3604B4B1B68BA68D31A72
:10331000013B4B4AD36100F04CBD474B1B68013366
:103320001A469B00D21ABB68D1184448FA68134663
:103330005B0013441B0103440B441B7883F001031F
:10334000DBB2002B00F037853B4B1A68FB68134457
:103350005A1C394B1B6801335B00B968C91A3748DE
:1033600013465B0013441B0103440B441B7883F09A
:103370000103DBB2002B00F01E85B968F868FEF788
:1033800009F82D4B1A68FB681344581C2A4B1B681C
:10339000BA68D31A013B1946FDF7FCFF264B1B68A0
:1033A00001331A469B00D21ABB6813441946F868C9
:1033B000FDF78CFF204B1A68FB681344581C1E4B0A
:1033C0001B6801335B00BA68D31A1946FDF77EFF0C
:1033D0001B4AFB681360184B1B68BA68D31A013B81
:1033E000174A1361164AFB685360134B1B6801337D
:1033F0005B00BA68D31A124A5361114AFB689360A2
:103400000D4B1B6801331A469B00D21ABB6813444C
:103410000B4A9361084B1A68FB6813440133084A4E
:10342000D360054B1B6801335B00BA68D31A044AAA
:10343000D36100F0C0BC00BF0400002038000020B1
:10344000F80F0020A34B1B6801331A469B00D21AC9
:10345000BB68D118A048FA6813465B0013441B01EF
:1034600003440B441B7883F00103DBB2002B00F014
:10347000A484984B1B68FA68D31A5A1E954B1B6894
:1034800001335B00B968C91A934813465B001344C3
:103490001B0103440B441B7883F00103DBB2002BB8
:1034A00000F08B84B968F868FDF774FF894B1B68DE
:1034B000FA68D31A581E874B1B68BA68D31A013BA7
:1034C0001946FDF767FF834B1B6801331A469B00C3
:1034D000D21ABB6813441946F868FDF7F7FE7D4B16
:1034E0001B68FA68D31A581E7A4B1B6801335B00BD
:1034F000BA68D31A1946FDF7E9FE784AFB681360EB
:10350000744B1B68BA68D31A013B744A1361734A3F
:10351000FB6853606F4B1B6801335B00BA68D31ABA
:103520006E4A53616D4AFB6893606A4B1B680133B6
:103530001A469B00D21ABB681344684A9361654BD4
:103540001B68FA68D31A013B644AD360614B1B685D
:1035500001335B00BA68D31A604AD36100F02DBC16
:103560005C4B1B68BA68D31A591E5B48FA6813464D
:103570005B0013441B0103440B441B7883F00103DD
:10358000DBB2002B00F01B84524B1B6801335A0046
:10359000FB681A444F4B1B68B968CB1A591E4E483A
:1035A00013465B0013441B0103440B441B7883F058
:1035B0000103DBB2002B00F00284464B1A68FB6863
:1035C00013445A1C434B1B6801335B00B968C91A8A
:1035D000414813465B0013441B0103440B441B7812
:1035E00083F00103DBB2002B00F0E983B968F868CF
:1035F000FDF7D0FE374B1A68FB6813440133B968F6
:103600001846FDF7C7FE334B1B6801335A00FB68B1
:103610001344B9681846FDF7BDFE2E4B1B68BA6807
:10362000D31A013B1946F868FDF750FE294B1A687A
:10363000FB681344581C274B1B6801335B00BA68B6
:10364000D31A1946FDF742FE224B1B6801335A007C
:10365000FB68D0181F4B1B68BA68D31A013B194688
:10366000FDF734FE1D4AFB6813601A4B1B68BA68ED
:10367000D31A013B194A1361164B1A68FB681344AD
:103680000133164A5360134B1B68BA68D31A013BC7
:10369000124A53610F4B1B6801335A00FB681344F5
:1036A0000E4A93600B4B1B68BA68D31A013B0B4A56
:1036B0009361084B1A68FB6813440133074AD360CF
:1036C000044B1B6801335B00BA68D31A034AD36109
:1036D00075E300BF0400002038000020F80F002030
:1036E000A34B1B68BA68D31A591EA248FA6813463E
:1036F0005B0013441B0103440B441B7883F001035C
:10370000DBB2002B00F05D83994B1A68FB68134411
:103710005A1C974B1B68B968CB1A591E954813461B
:103720005B0013441B0103440B441B7883F001032B
:10373000DBB2002B00F045838D4B1B6801335A0030
:10374000FB681A448A4B1B68B968CB1A591E894812
:1037500013465B0013441B0103440B441B7883F0A6
:103760000103DBB2002B00F02C83B968F868FDF789
:1037700011FE7F4B1A68FB681344581C7C4B1A6877
:10378000BB68134401331946FDF704FE784B1B68F0
:1037900001335A00FB681344B9681846FDF7FAFD77
:1037A000734B1B68BA68D31A013B1946F868FDF7DA
:1037B0008DFD6F4B1A68FB681344581C6C4B1B68DB
:1037C000BA68D31A013B1946FDF780FD684B1B68A8
:1037D00001335A00FB68D018654B1B68BA68D31ACE
:1037E000013B1946FDF772FD634AFB681360604BAD
:1037F0001B68BA68D31A013B5F4A13615C4B1A68B5
:10380000FB68134401335C4A5360594B1B68BA6828
:10381000D31A013B584A5361554B1B6801335A0078
:10382000FB681344544A9360514B1B68BA68D31A1F
:10383000013B514A93614E4B1A68FB6813440133B4
:103840004D4AD3604C4ABB68D361BAE2484B1B680F
:1038500001335B00BA68D11A4648FA6813465B0028
:1038600013441B0103440B441B7883F00103DBB2B8
:10387000002B00F0A8823E4B1A68FB6813445A1CC8
:103880003B4B1B68013319469B00C91ABB6819449E
:10389000384813465B0013441B0103440B441B7858
:1038A00083F00103DBB2002B00F08D82B968F86869
:1038B000FDF770FD2E4B1A68FB681344581C2C4B07
:1038C0001B68BA68D31A013B1946FDF763FD284B04
:1038D0001B6801335B00BA68D31A1946F868FDF714
:1038E000F5FC234B1A68FB681344581C204B1B68DB
:1038F00001331A469B00D21ABB6813441946FDF7E0
:10390000E5FC1D4AFB681360194B1B68BA68D31AA3
:10391000013B194A1361184AFB685360144B1B683A
:1039200001335B00BA68D31A134A5361104B1A680B
:10393000FB6813440133104A93600D4B1B6801333D
:103940005B00BA68D31A0C4A9361094B1A68FB688A
:1039500013440133084AD360054B1B6801331A46F0
:103960009B00D21ABB681344034AD3612BE200BF09
:103970000400002038000020F80F0020A44B1B6832
:1039800001335B00BA68D11AA248FA6813465B009B
:1039900013441B0103440B441B7883F00103DBB287
:1039A000002B00F012829A4B1B68FA68D31A5A1E39
:1039B000974B1B68013319469B00C91ABB68194411
:1039C000944813465B0013441B0103440B441B78CB
:1039D00083F00103DBB2002B00F0F781B968F868CF
:1039E000FDF7D8FC8A4B1B68FA68D31A581E884B1F
:1039F0001B68BA68D31A013B1946FDF7CBFC844B10
:103A00001B6801335B00BA68D31A1946F868FDF7E2
:103A10005DFC7F4B1B68FA68D31A581E7C4B1B68F1
:103A200001331A469B00D21ABB6813441946FDF7AE
:103A30004DFC794AFB681360754B1B68BA68D31A52
:103A4000013B754A1361744AFB685360704B1B68F5
:103A500001335B00BA68D31A6F4A53616C4B1B6821
:103A6000FA68D31A013B6C4A9360694B1B680133B7
:103A70005B00BA68D31A684A9361654B1B68FA68A1
:103A8000D31A013B644AD360614B1B6801331A4669
:103A90009B00D21ABB6813445F4AD36195E15C4B2B
:103AA0001B68FA68D31A5A1E594B1B6801335B0016
:103AB000B968C91A574813465B0013441B010344F5
:103AC0000B441B7883F00103DBB2002B00F07F81F5
:103AD0004F4B1B6801335B00BA68D11A4D48FA6836
:103AE00013465B0013441B0103440B441B7883F013
:103AF0000103DBB2002B00F06A81454B1A68FB68BA
:103B000013445A1C424B1B68B968CB1A591E4148D2
:103B100013465B0013441B0103440B441B7883F0E2
:103B20000103DBB2002B00F05281B968F868FDF7A1
:103B300031FC374B1A68FB6813440133B9681846E7
:103B4000FDF728FC324B1B68FA68D31A581E304B1D
:103B50001B68BA68D31A013B1946FDF71BFC2C4BB6
:103B60001A68FB681344581C294B1B68BA68D31A9F
:103B7000013B1946FDF7AAFB254B1B6801335B008F
:103B8000BA68D31A1946F868FDF7A0FB204B1B68EA
:103B9000FA68D31A581E1E4B1B6801335B00BA68C3
:103BA000D31A1946FDF792FB1B4AFB681360184BAA
:103BB0001B68BA68D31A013B174A1361164AFB689F
:103BC0005360134B1B6801335B00BA68D31A124A67
:103BD00053610F4B1A68FB68134401330E4A93601C
:103BE0000B4B1B68BA68D31A013B0B4A9361084B15
:103BF0001B68FA68D31A013B074AD360044B1B6861
:103C000001335B00BA68D31A034AD361DFE000BF17
:103C10000400002038000020F80F00206F4B1B68C4
:103C2000FA68D31A5A1E6D4B1B68B968CB1A591E15
:103C30006B4813465B0013441B0103440B441B7881
:103C400083F00103DBB2002B00F0C380634B1B68E1
:103C500001335B00BA68D11A6148FA6813465B0009
:103C600013441B0103440B441B7883F00103DBB2B4
:103C7000002B00F0AE80594B1A68FB6813445A1CA5
:103C8000564B1B6801335B00B968C91A5448134688
:103C90005B0013441B0103440B441B7883F00103B6
:103CA000DBB2002B00F09580B968F868FDF772FB75
:103CB0004A4B1B68FA68D31A013BB9681846FDF7EE
:103CC00069FB464B1A68FB681344581C434B1B683E
:103CD000BA68D31A013B1946FDF75CFB3F4B1B68E2
:103CE000FA68D31A581E3D4B1B68BA68D31A013BB9
:103CF0001946FDF7EBFA394B1B6801335B00BA68D4
:103D0000D31A1946F868FDF7E1FA344B1A68FB68D4
:103D10001344581C314B1B6801335B00BA68D31A3B
:103D20001946FDF7D3FA2F4AFB6813602B4B1B682B
:103D3000BA68D31A013B2B4A13612A4AFB685360C5
:103D4000264B1B6801335B00BA68D31A254A5361BE
:103D5000224B1A68FB6813440133224A93601F4BBD
:103D60001B68BA68D31A013B1E4A93611B4B1B6840
:103D7000FA68D31A013B1B4AD360184B1B68BA6818
:103D8000D31A013B174AD36123E000BF22E000BFF2
:103D900020E000BF1EE000BF1CE000BF1AE000BF33
:103DA00018E000BF16E000BF14E000BF12E000BF43
:103DB00010E000BF0EE000BF0CE000BF0AE000BF53
:103DC00008E000BF06E000BF04E000BF02E000BF63
:103DD00000E000BF00BF1037BD4680BD04000020DA
:103DE00038000020F80F002080B584B000AFF860E4
:103DF000B9607A607B68122B01F27A8301A252F8D3
:103E000023F000BF513E0008493F0008F13F000881
:103E1000C9410008CB420008C9430008CB44000850
:103E2000C945000839470008B5480008254A000878
:103E3000894B00087D4C0008634D0008C94E0008FE
:103E40002D5000082951000817520008655300083A
:103E5000BB68591C6348FA6813465B0013441B0196
:103E600003440B441B7883F00103DBB2002B01F009
:103E70001A835D4B1A68FB6813445A1CBB68591CB3
:103E8000584813465B0013441B0103440B441B7842
:103E900083F00103DBB2002B01F00583524B1B685A
:103EA000BA68D31A013B1946F868FDF773FA4E4B0E
:103EB0001A68FB681344581C4B4B1B68BA68D31A2A
:103EC000013B1946FDF766FA474B1A68BB68134475
:103ED00001331946F868FDF7F9F9434B1A68FB6896
:103EE0001344581C404B1A68BB68134401331946ED
:103EF000FDF7ECF93D4AFB6813603C4AFB685360F0
:103F0000394B1A68BB6813440133384A1361374A86
:103F1000BB685361344B1A68FB6813440133334A5E
:103F20009360314B1A68FB68134401332F4AD36006
:103F30002D4B1A68BB68134401332C4A93612B4AFA
:103F4000BB68D36101F0AFBABB68591C2548FA6859
:103F500013465B0013441B0103440B441B7883F09E
:103F60000103DBB2002B01F0A0821F4B1B68013361
:103F70001A469B00D21ABB6813441946F868FDF72D
:103F800009FA194B1B685A1CBB6813441946F86898
:103F9000FDF79CF9154AFB681360134B1A68BB6860
:103FA00013440133114A1361104AFB6853600F4AEE
:103FB000BB6853610D4AFB6893600B4B1B68013370
:103FC000BA68D31A094A9361084AFB68D360064B62
:103FD0001B6801335B00BA68D31A044AD36101F04D
:103FE00064BA00BF3800002004000020F80F002051
:103FF000BB68591C7148FA6813465B0013441B01E7
:1040000003440B441B7883F00103DBB2002B01F067
:104010004E826B4B1A68FB6813445A1CBB68591CD0
:10402000664813465B0013441B0103440B441B7892
:1040300083F00103DBB2002B01F03982604B1B6877
:1040400001335A00FB681A44BB68591C5B4813468D
:104050005B0013441B0103440B441B7883F00103F2
:10406000DBB2002B01F02382554B1B685A1C134610
:104070005B001A44FB681A44BB68591C4F4813463E
:104080005B0013441B0103440B441B7883F00103C2
:10409000DBB2002B01F00B82B968F868FDF77AF902
:1040A000474B1B685A1CFB681344B9681846FDF758
:1040B00071F9434B1B6801335A00FB681344B9681C
:1040C0001846FDF767F93E4B1B685A1C13465B0008
:1040D0001A44FB681344B9681846FDF75BF9384B7E
:1040E0001A68BB68134401331946F868FDF7EEF807
:1040F000334B1B685A1CFB68D018314B1A68BB68DD
:10410000134401331946FDF7E1F82D4B1B680133C9
:104110005A00FB68D0182A4B1A68BB681344013355
:104120001946FDF7D3F8264B1B685A1C13465B0053
:104130001A44FB68D018224B1A68BB681344013339
:104140001946FDF7C3F81F4AFB6813601C4B1A6839
:10415000BB68134401331B4A1361194B1B685A1C7B
:10416000FB681344174A5360154B1A68BB68134425
:104170000133144A5361124B1B6801335A00FB6828
:104180001344104A93600E4B1A68BB681344013302
:104190000C4A93610A4B1B685A1C13465B001A4475
:1041A000FB681344074AD360054B1A68BB68134485
:1041B0000133044AD36101F07AB900BF380000200E
:1041C00004000020F80F0020BB68591C7B48FA68E7
:1041D00013465B0013441B0103440B441B7883F01C
:1041E0000103DBB2002B01F06481754B1B68FA6898
:1041F000D31A5A1E724B1B68B968CB1A591E6F48E6
:1042000013465B0013441B0103440B441B7883F0EB
:104210000103DBB2002B01F04C81694B1B680133B9
:104220005B00BA68D31A1946F868FDF7B3F8644B17
:104230001B68FA68D31A581E614B1B6801335B0078
:10424000BA68D31A1946FDF7A5F85D4B1A68BB6822
:10425000134401331946F868FDF738F8584B1B68CA
:10426000FA68D31A581E564B1B68BA68D31A013B1A
:104270001946FDF72BF8534AFB681360504B1A6838
:10428000BB68134401334F4A13614E4AFB685360C5
:104290004C4ABB6853614B4AFB689360484B1B68B0
:1042A000BA68D31A013B474A9361454B1B68FA68C9
:1042B000D31A013B434AD360414B1B68BA68D31AF7
:1042C000013B404AD36101F0F4B8BB68591C3B483C
:1042D000FA6813465B0013441B0103440B441B782C
:1042E00083F00103DBB2002B01F0E580344B1B6847
:1042F000FA68D31A5A1EBB68591C304813465B0033
:1043000013441B0103440B441B7883F00103DBB20D
:10431000002B01F0D0802A4B1B6801335B00BA6888
:10432000D31A1946F868FDF735F8254B1B68FA686B
:10433000D31A013BB9681846FDF72CF8204B1A68D0
:10434000BB68134401331946F868FCF7BFFF1C4BE8
:104350001B68FA68D31A581E194B1A68BB681344B5
:1043600001331946FCF7B2FF164AFB681360144B81
:104370001A68BB6813440133124A1361114AFB687F
:104380005360104ABB6853610E4AFB6893600C4B44
:104390001B68BA68D31A013B0A4A9361084B1B6831
:1043A000FA68D31A013B074AD360054B1A68BB6809
:1043B00013440133034AD36101F07DB83800002073
:1043C00004000020F80F0020BB68591C7B48FA68E5
:1043D00013465B0013441B0103440B441B7883F01A
:1043E0000103DBB2002B01F06880754B1A68FB6893
:1043F00013445A1C724B1B68B968CB1A591E6F487C
:1044000013465B0013441B0103440B441B7883F0E9
:104410000103DBB2002B01F05080694B1B680133B4
:104420005B00BA68D31A1946F868FCF7B3FF644B0F
:104430001A68FB681344581C614B1B6801335B000E
:10444000BA68D31A1946FCF7A5FF5D4B1A68BB681A
:10445000134401331946F868FCF738FF584B1A68C3
:10446000FB681344581C564B1B68BA68D31A013BAF
:104470001946FCF72BFF534AFB681360504B1A6830
:10448000BB68134401334F4A13614E4AFB685360C3
:104490004C4ABB6853614B4AFB689360484B1B68AE
:1044A000BA68D31A013B474A9361454B1A68FB68C7
:1044B00013440133434AD360414B1B68BA68D31A93
:1044C000013B404AD36100F0F8BFBB68591C3B4830
:1044D000FA6813465B0013441B0103440B441B782A
:1044E00083F00103DBB2002B00F0E987344B1A683C
:1044F000FB6813445A1CBB68591C304813465B00C8
:1045000013441B0103440B441B7883F00103DBB20B
:10451000002B00F0D4872A4B1B6801335B00BA687C
:10452000D31A1946F868FCF735FF254B1A68FB6863
:1045300013440133B9681846FCF72CFF204B1A6866
:10454000BB68134401331946F868FCF7BFFE1C4BE7
:104550001A68FB681344581C194B1A68BB6813444B
:1045600001331946FCF7B2FE164AFB681360144B80
:104570001A68BB6813440133124A1361114AFB687D
:104580005360104ABB6853610E4AFB6893600C4B42
:104590001B68BA68D31A013B0A4A9361084B1A6830
:1045A000FB6813440133074AD360054B1A68BB68A4
:1045B00013440133034AD36100F081BF3800002067
:1045C00004000020F80F0020BB68591C5748FA6807
:1045D00013465B0013441B0103440B441B7883F018
:1045E0000103DBB2002B00F06C87514B1A68FB68AB
:1045F00013445A1CBB68591C4C4813465B001344B7
:104600001B0103440B441B7883F00103DBB2002B36
:1046100000F05787464B1B6801335A00FB681A4469
:10462000BB68591C414813465B0013441B010344FB
:104630000B441B7883F00103DBB2002B00F04187B1
:10464000B968F868FCF7A6FE394B1A68FB68134492
:104650000133B9681846FCF79DFE354B1A68FB68B4
:1046600013445A1C324B1B681344581C304B1B68B4
:10467000BA68D31A013B1946FCF78CFE2C4B1A681A
:10468000BB68134401331946F868FCF71FFE284B3A
:104690001A68FB681344581C254B1A68BB681344FE
:1046A00001331946FCF712FE214B1B6801335A00F7
:1046B000FB68D0181E4B1A68BB68134401331946B7
:1046C000FCF704FE1B4AFB681360194B1A68BB68B1
:1046D00013440133174A1361154B1A68FB681344DE
:1046E0000133144A5360124B1A68BB6813440133F8
:1046F000104A53610E4B1B6801335A00FB68134488
:104700000C4A93600A4B1A68BB6813440133094A88
:104710009361074B1B6801335A00FB681344054A39
:10472000D360044ABB68D36100F0CBBE38000020E0
:1047300004000020F80F0020BB68591C5A48FA6892
:1047400013465B0013441B0103440B441B7883F0A6
:104750000103DBB2002B00F0B686544B1A68FB68ED
:1047600013445A1CBB68591C4F4813465B00134442
:104770001B0103440B441B7883F00103DBB2002BC5
:1047800000F0A186494B1B6801335A00FB681A44AC
:10479000464B1968BB680B44991C434813465B00A1
:1047A00013441B0103440B441B7883F00103DBB269
:1047B000002B00F08886B968F868FCF7EBFD3B4BEE
:1047C0001A68FB6813440133B9681846FCF7E2FD28
:1047D000364B1A68FB6813445A1C344B1B6813444D
:1047E0000133B9681846FCF7D5FD304B1A68BB6831
:1047F000134401331946F868FCF768FD2B4B1A681F
:10480000FB681344581C294B1A68BB6813440133D6
:104810001946FCF75BFD254B1B6801335A00FB680A
:10482000D018224B1B6801335A00BB681344194649
:10483000FCF74CFD1E4AFB6813601C4B1A68BB68F2
:10484000134401331A4A1361184B1A68FB68134466
:104850000133174A5360154B1A68BB681344013380
:10486000134A5361114B1B6801335A00FB68134410
:104870000F4A93600D4B1A68BB68134401330C4A0E
:1048800093610A4B1B6801335A00FB681344084AC2
:10489000D360064B1B6801335A00BB681344044ABB
:1048A000D36100F010BE00BF3800002004000020DB
:1048B000F80F0020BB68591C5748FA6813465B0084
:1048C00013441B0103440B441B7883F00103DBB248
:1048D000002B00F0FA85514B1A68FB6813445A1CF0
:1048E000BB68591C4C4813465B0013441B0103442E
:1048F0000B441B7883F00103DBB2002B00F0E5854D
:10490000464B1B6801335A00FB681A44BB68591CAC
:10491000414813465B0013441B0103440B441B78BE
:1049200083F00103DBB2002B00F0CF853B4B1B680B
:10493000BA68D31A013B1946F868FCF72BFD374BD0
:104940001A68FB6813440133B9681846FCF722FD66
:10495000324B1A68FB6813445A1C304B1B681344D3
:104960000133B9681846FCF715FD2C4B1A68BB6873
:10497000134401331946F868FCF7A8FC274B1A6862
:10498000FB681344581C254B1A68BB681344013359
:104990001946FCF79BFC214B1B6801335A00FB684E
:1049A000D0181E4B1A68BB68134401331946FCF734
:1049B0008DFC1B4AFB681360184B1A68BB681344D4
:1049C0000133174A1361154B1A68FB68134401330E
:1049D000134A5360114B1A68BB6813440133104AE1
:1049E00053610E4B1B6801335A00FB6813440C4A99
:1049F00093600A4B1A68BB6813440133084A9361F9
:104A0000074AFB68D360054B1B68BA68D31A013BA1
:104A1000034AD36100F059BD380000200400002093
:104A2000F80F0020924B1A68BB681344991C9148F8
:104A3000FA6813465B0013441B0103440B441B78C4
:104A400083F00103DBB2002B00F04185884B1A682C
:104A5000FB6813445A1CBB68591C864813465B000C
:104A600013441B0103440B441B7883F00103DBB2A6
:104A7000002B00F02C857E4B1B6801335A00FB682D
:104A80001A44BB68591C7B4813465B0013441B0146
:104A900003440B441B7883F00103DBB2002B00F0CE
:104AA0001685B968F868FCF775FC714B1A68FB68E5
:104AB00013440133B9681846FCF76CFC6C4B1A6858
:104AC000FB6813445A1C6A4B1B6813440133B968D2
:104AD0001846FCF75FFC664B1B6801335A00BB6845
:104AE00013441946F868FCF7F1FB614B1A68FB6840
:104AF0001344581C5E4B1A68BB68134401331946B3
:104B0000FCF7E4FB5A4B1B6801335A00FB68D018D2
:104B1000574B1A68BB68134401331946FCF7D6FBA0
:104B2000554AFB681360524B1A68BB681344013343
:104B3000514A13614E4B1A68FB68134401334E4AC5
:104B400053604B4B1A68BB68134401334A4A5361A4
:104B5000474B1B6801335A00FB681344464A936075
:104B6000434B1A68BB6813440133434A9361424A7A
:104B7000FB68D3603E4B1B6801335A00BB6813448B
:104B80003D4AD36100F0A3BCBB68591C3948FA68A0
:104B900013465B0013441B0103440B441B7883F052
:104BA0000103DBB2002B00F09484314B1A68FB68E0
:104BB00013445A1C2F4913465B0013441B01CA18A7
:104BC000BB6813441B7883F00103DBB2002B00F0B9
:104BD0008084274B1B6801335B00BA68D31A1946DF
:104BE000F868FCF7D7FB224B1A68FB681344581C83
:104BF0001F4B1B68BA68D31A013B1946FCF7CAFB66
:104C00001B4B1A68FB6813440133B9681846FCF75C
:104C10005DFB174B1A68BB68134401331946F868EB
:104C2000FCF754FB144AFB681360114B1A68BB680D
:104C300013440133104A13610F4AFB6853600E4A54
:104C4000BB6853610C4AFB689360094B1B68BA68E8
:104C5000D31A013B084A9361054B1A68FB68134459
:104C60000133054AD360044ABB68D36100F031BC0C
:104C70000400002038000020F80F0020BB68591CF9
:104C80008E48FA6813465B0013441B0103440B442F
:104C90001B7883F00103DBB2002B00F01C84884BEF
:104CA0001B68FA68D31A5A1E844913465B001344E2
:104CB0001B01CA18BB6813441B7883F00103DBB2E5
:104CC000002B00F008847E4B1B6801335B00BA6840
:104CD000D31A1946F868FCF75DFB794B1B68FA6834
:104CE000D31A581E764B1B68BA68D31A013B194673
:104CF000FCF750FB724B1A68BB681344013319462A
:104D0000F868FCF7E3FA6E4B1B68FA68D31A013BAC
:104D1000B9681846FCF7DAFA6A4AFB681360684B10
:104D20001A68BB6813440133664A1361654AFB681D
:104D30005360644ABB685361624AFB689360604B8E
:104D40001B68BA68D31A013B5E4A93615C4B1B68CF
:104D5000FA68D31A013B5B4AD3605A4ABB68D361F5
:104D6000B9E3BB68591C5548FA6813465B00134405
:104D70001B0103440B441B7883F00103DBB2002BBF
:104D800000F0AB834E4B1B6801335A00FB681A449A
:104D9000BB68591C494813465B0013441B0103447C
:104DA0000B441B7883F00103DBB2002B00F09583EA
:104DB000434B1A68FB6813445A1CBB68591C3F4894
:104DC00013465B0013441B0103440B441B7883F020
:104DD0000103DBB2002B00F08083B968F868FCF7B0
:104DE000D9FA374B1A68FB681344581C344B1B68BC
:104DF000BA68D31A013B1946FCF7CCFA304B1B6852
:104E000001335A00FB681344B9681846FCF7C2FA2C
:104E10002B4B1A68BB68134401331946F868FCF73A
:104E200055FA274B1A68FB681344581C244B1A6820
:104E3000BB68134401331946FCF748FA204B1B6842
:104E400001335A00FB68D0181D4B1A68BB68134425
:104E500001331946FCF73AFA1A4AFB681360184BFB
:104E60001A68BB6813440133164A1361144B1A685D
:104E7000FB6813440133134A5360114B1A68BB6833
:104E8000134401330F4A53610D4B1B6801335A0021
:104E9000FB6813440B4A9360094B1A68BB681344C0
:104EA0000133084A9361064B1A68FB6813440133C7
:104EB000044AD360034ABB68D3610EE33800002084
:104EC00004000020F80F0020BB68591C9348FA68C2
:104ED00013465B0013441B0103440B441B7883F00F
:104EE0000103DBB2002B00F0FA828D4B1A68FB68DD
:104EF00013445A1C8A4B1968BB680B44991C874899
:104F000013465B0013441B0103440B441B7883F0DE
:104F10000103DBB2002B00F0E282814B1B680133FE
:104F20005A00FB681A44BB68591C7C4813465B0056
:104F300013441B0103440B441B7883F00103DBB2D1
:104F4000002B00F0CC82B968F868FCF723FA744BA8
:104F50001A68FB6813440133B9681846FCF71AFA5B
:104F60006F4B1B6801335A00FB681344B96818463D
:104F7000FCF710FA6A4B1A68BB68134401331946F0
:104F8000F868FCF7A3F9664B1A68FB681344581CD1
:104F9000634B1B6801335A00BB6813441946FCF786
:104FA00095F95F4B1B6801335A00FB68D0185C4BC6
:104FB0001A68BB68134401331946FCF787F9594A4C
:104FC000FB681360564B1A68BB6813440133554A9B
:104FD0001361534B1A68FB6813440133514A536001
:104FE0004F4B1A68BB68134401334E4A53614C4B14
:104FF0001B6801335A00FB6813444A4A9360484BCC
:105000001A68BB6813440133464A9361444B1A68DB
:10501000FB6813440133434AD360414B1B6801339F
:105020005A00BB6813443F4AD36158E2BB68591C1D
:105030003A48FA6813465B0013441B0103440B44CF
:105040001B7883F00103DBB2002B00F04A82344B63
:105050001A68FB6813445A1C304913465B0013441A
:105060001B01CA18BB6813441B7883F00103DBB231
:10507000002B00F036822A4B1B68BA68D31A013B1A
:105080001946F868FCF786F9254B1A68FB68134443
:10509000581C234B1B6801335B00BA68D31A1946AE
:1050A000FCF778F91E4B1A68BB68134401331946A4
:1050B000F868FCF70BF91A4B1A68FB6813440133C4
:1050C000B9681846FCF702F9164AFB681360144BDE
:1050D0001A68BB6813440133124A1361114AFB6812
:1050E0005360104ABB6853610D4B1A68FB68134448
:1050F00001330C4A93600B4ABB689361084B1A68F2
:10510000FB6813440133074AD360054B1B68BA6838
:10511000D31A013B034AD361E3E100BF380000200A
:1051200004000020F80F0020BB68591C8A48FA6868
:1051300013465B0013441B0103440B441B7883F0AC
:105140000103DBB2002B00F0CE81844B1B68FA68B0
:10515000D31A5A1E804913465B0013441B01CA1818
:10516000BB6813441B7883F00103DBB2002B00F013
:10517000BA817A4B1B68BA68D31A013B1946F868A2
:10518000FCF708F9754B1B68FA68D31A581E734B65
:105190001B6801335B00BA68D31A1946FCF7FAF8AA
:1051A0006E4B1A68BB68134401331946F868FCF764
:1051B0008DF86A4B1B68FA68D31A013BB968184628
:1051C000FCF784F8664AFB681360644B1A68BB6896
:1051D00013440133624A1361614AFB685360604AB9
:1051E000BB6853615D4B1B68FA68D31A013B5C4A8C
:1051F00093605B4ABB689361584B1A68FB68134421
:105200000133574AD360554B1B68BA68D31A013B28
:10521000534AD36167E1BB68591C4F48FA6813468B
:105220005B0013441B0103440B441B7883F0010310
:10523000DBB2002B00F05981484B1A68FB6813441D
:105240005A1CBB68591C444813465B0013441B019D
:1052500003440B441B7883F00103DBB2002B00F006
:1052600044813E4B1B68FA68D31A5A1E3A491346CA
:105270005B0013441B01CA18BB6813441B7883F0FE
:105280000103DBB2002B00F03081344B1B68BA689D
:10529000D31A013B1946F868FCF77CF82F4B1A68C3
:1052A000FB6813440133B9681846FCF773F82B4BBD
:1052B0001B68FA68D31A581E284B1B68BA68D31AA1
:1052C000013B1946FCF766F8244B1A68BB68134487
:1052D00001331946F868FBF7F9FF204B1A68FB68A1
:1052E0001344581C1D4B1A68BB68134401331946FC
:1052F000FBF7ECFF194B1B68FA68D31A013BB9683E
:105300001846FBF7E3FF164AFB681360134B1A6855
:10531000BB6813440133124A1361114AFB6853609E
:105320000F4ABB6853610D4B1A68FB681344013385
:105330000B4A9360094B1A68BB6813440133084A4F
:105340009361064B1B68FA68D31A013B044AD36089
:10535000034ABB68D361C8E0380000200400002085
:10536000F80F0020BB68591C6348FA6813465B00BD
:1053700013441B0103440B441B7883F00103DBB28D
:10538000002B00F0B4805D4B1B68FA68D31A5A1EDC
:10539000BB68591C584813465B0013441B01034467
:1053A0000B441B7883F00103DBB2002B00F09F80DD
:1053B000524B1A68FB6813445A1C4F4913465B0052
:1053C00013441B01CA18BB6813441B7883F0010304
:1053D000DBB2002B00F08B80484B1B68FA68D31AB5
:1053E000013BB9681846FBF7D5FF444B1B68BA6808
:1053F000D31A013B1946F868FBF7CCFF3F4B1A68FC
:10540000FB681344581C3D4B1B68BA68D31A013B18
:105410001946FBF7BFFF394B1B68FA68D31A581EB1
:10542000364B1A68BB68134401331946FBF74EFF2D
:10543000324B1A68BB68134401331946F868FBF70E
:1054400045FF2E4B1A68FB6813440133B9681846B0
:10545000FBF73CFF2A4AFB681360284B1A68BB68BD
:1054600013440133264A1361254AFB685360244ADA
:10547000BB685361214B1A68FB6813440133204A0F
:1054800093601F4ABB6893611C4B1B68FA68D31A70
:10549000013B1B4AD360194B1A68BB6813440133A4
:1054A000174AD36123E000BF22E000BF20E000BF25
:1054B0001EE000BF1CE000BF1AE000BF18E000BF04
:1054C00016E000BF14E000BF12E000BF10E000BF14
:1054D0000EE000BF0CE000BF0AE000BF08E000BF24
:1054E00006E000BF04E000BF02E000BF00E000BF34
:1054F00000BF1037BD4680BD3800002004000020EA
:10550000F80F002080B584B000AFF860B9607A6011
:105510007B68122B01F2778401A252F823F000BFBE
:105520006D55000893560008C557000877580008C5
:10553000015A0008895B0008255D00089F5E00088D
:10554000EF5F00082D6100085962000873630008CE
:10555000056500087D660008B1670008D568000889
:10556000756A0008DD6B0008F56C0008914B1A683D
:10557000FB6813445A1C8F4B1B6813445A1C8E49FA
:1055800013465B0013441B01CA18BB6813441B7805
:1055900083F00103DBB2002B76D0864B1A68FB68E0
:1055A00013445A1C834B1B6813445A1C814B1B68C1
:1055B000B968CB1A591E804813465B0013441B017F
:1055C00003440B441B7883F00103DBB2002B5BD058
:1055D0007A4B00221A70B968F868FBF7DBFE754B4E
:1055E0001B68BA68D31A013B1946F868FBF7D2FE6C
:1055F000704B1B6801335A00FB681344B9681846A6
:10560000FBF764FE6B4B1B6801335A00FB68D01834
:10561000684B1B68BA68D31A013B1946FBF756FE64
:10562000644B1A68FB6813440133654A1360614B8D
:105630001A68FB6813440133614A5360604ABB68CF
:1056400013615C4B1B68BA68D31A013B5C4A536117
:10565000584B1B6801335A00FB681344584A936047
:10566000544B1B6801335A00FB681344544AD360FF
:10567000534ABB6893614F4B1B68BA68D31A013B0E
:105680004F4AD36101F0C0BB4C4B01221A7001F0AC
:10569000BBBB484B1A68FB6813445A1C4649134667
:1056A0005B0013441B01CA18BB6813441B7883F0CA
:1056B0000103DBB2002B77D0404B00221A70B9688F
:1056C000F868FBF767FE3B4B1B680133BA68D31AD7
:1056D0001946F868FBF75EFE364B1B6801335B002A
:1056E000BA68D31A1946F868FBF754FE314B1B68A9
:1056F00001331A469B00D21ABB6813441946F86856
:10570000FBF748FE2B4B1A68FB6813440133B9685A
:105710001846FBF7DBFD274B1A68FB681344581C3F
:10572000244B1B680133BA68D31A1946FBF7CEFD28
:10573000204B1A68FB681344581C1E4B1B6801332E
:105740005B00BA68D31A1946FBF7C0FD194B1A68FB
:10575000FB681344581C174B1B6801331A469B0007
:10576000D21ABB6813441946FBF7B0FD114B1A68F7
:10577000FB6813440133124A13600E4B1A68FB682E
:10578000134401330E4A53600A4B1A68FB681344F2
:1057900001330B4A9360074B1A68FB6813440133CB
:1057A000074AD36001F030BB044B01221A7001F0AC
:1057B0002BBB00BF04000020380000201800002090
:1057C000F80F00208A4B1B6801339A00FB681A44CB
:1057D000884913465B0013441B01CA18BB68134475
:1057E0001B7883F00103DBB2002B3FD0B968F86867
:1057F000FBF7D0FD804B00221A707D4B1B680133F4
:105800009A00FB681344B9681846FBF75FFD784BB4
:105810001A68FB6813440133784A1360774ABB68FF
:105820001361734B1B6801335A00FB681344734ABE
:105830005360724ABB6853616D4B1B685A1C134618
:105840005B001A44FB6813446C4A93606B4ABB6864
:105850009361674B1B6801339A00FB681344674AE6
:10586000D360664ABB68D36101F0CEBA624B0122B5
:105870001A7001F0C9BA5E4B1A68FB6813445A1CCF
:105880005C4913465B0013441B01CA18BB681344F0
:105890001B7883F00103DBB2002B00F0A380544B94
:1058A0001A68FB6813445A1C514B1B68B968CB1A21
:1058B000591E504813465B0013441B0103440B441C
:1058C0001B7883F00103DBB2002B00F08B80484B88
:1058D0001A68FB6813445A1C454B1B6801335B0074
:1058E000B968C91A434813465B0013441B010344BB
:1058F0000B441B7883F00103DBB2002B72D0B96834
:10590000F868FBF747FD3A4B1B68BA68D31A013BAE
:105910001946F868FBF73EFD354B1B68FA68D31A49
:10592000581E334B1B6801335B00BA68D31A194603
:10593000FBF730FD2E4B1A68FB6813440133B9683E
:105940001846FBF7C3FC2A4B1A68FB681344581C23
:10595000274B1B68BA68D31A013B1946FBF7B6FC04
:10596000234B1A68FB681344581C214B1B680133F6
:105970005B00BA68D31A1946FBF7A8FC1C4B1A68DF
:10598000FB68134401331D4A13601C4ABB68136152
:10599000174B1A68FB6813440133184A5360144BC1
:1059A0001B68BA68D31A013B144A5361104B1A683A
:1059B000FB6813440133114A93600D4B1B6801339C
:1059C0005B00BA68D31A0D4A93610C4AFB68D36036
:1059D000074B1B6801335B00BA68D31A074AD361CF
:1059E00001F012BA044B01221A7001F00DBA00BF87
:1059F000040000203800002018000020F80F0020CC
:105A00005D4B1A68FB6813445A1C5C4913465B00E3
:105A100013441B01CA18BB6813441B7883F00103AD
:105A2000DBB2002B00F0A280534B1A68FB681344D2
:105A30005A1C514B1B68B968CB1A591E4F48134664
:105A40005B0013441B0103440B441B7883F00103E8
:105A5000DBB2002B00F08A80474B1A68FB681344C6
:105A60005A1C454B1B6801335B00B968C91A43488F
:105A700013465B0013441B0103440B441B7883F063
:105A80000103DBB2002B71D03D4B00221A703A4B60
:105A90001B68BA68D31A013B1946F868FBF77AFC11
:105AA000354B1B6801335B00BA68D31A1946F86896
:105AB000FBF770FC304B1B68FA68D31A013BB968DE
:105AC0001846FBF767FC2C4B1A68FB68134401333C
:105AD000B9681846FBF7FAFB274B1A68FB681344B2
