:020000040800F2
:10000000A4AD0120B5AD000811AE000811AE000886
:1000100011AE000811AE000811AE0008000000008B
:1000200000000000000000000000000011AE000809
:1000300011AE00080000000011AE000811AE00086B
:1000400011AE000811AE000811AE000811AE000894
:1000500011AE000811AE000811AE000811AE000884
:1000600011AE000811AE000811AE000811AE000874
:1000700011AE000811AE000811AE000811AE000864
:1000800011AE000811AE000811AE000811AE000854
:1000900011AE000811AE000811AE000811AE000844
:1000A00011AE000811AE000811AE000811AE000834
:1000B00025B100083DB7000811AE000811AE0008D8
:1000C00011AE000811AE000811AE000811AE000814
:1000D00011AE000811AE000811AE000811AE000804
:1000E00011AE000811AE000811AE000811AE0008F4
:1000F00011AE000811AE000811AE000811AE0008E4
:1001000011AE000811AE0008DDB7000811AE0008FE
:1001100011AE000811AE000811AE000811AE0008C3
:1001200011AE000811AE000811AE000811AE0008B3
:1001300011AE000811AE000811AE000811AE0008A3
:1001400011AE000811AE000811AE000811AE000893
:1001500011AE000811AE000811AE000811AE000883
:1001600011AE000811AE000811AE000811AE000873
:1001700011AE000811AE000811AE000811AE000863
:1001800011AE000811AE000880B485B000AF7860F1
:1001900039600123FB6004E0FB687A6802FB03F32B
:1001A000FB603B685A1E3A60002BF5D1FB6818468D
:1001B0001437BD4680BC704780B483B000AF786010
:1001C0007B68002B02DA7B685B427B607B681846A9
:1001D0000C37BD4680BC704780B485B000AF7860F6
:1001E00039600023FB6039E0204AFB6852F8332075
:1001F0007B689A422FDCFB68BB601CE0BB68C3F1E4
:100200000603BA68C2F10502184951F832201749AD
:1002100041F83320BB68C3F10601BB68C3F1050395
:10022000124ADB0013445A681048CB0003445A605A
:10023000BB680133BB60BB68062BDFDD0B49FB6885
:100240007A6841F83320094AFB68DB0013443A68B6
:100250005A600A23FB60FB680133FB60FB68062BD6
:10026000C2DD00BF1437BD4680BC70475C930120DF
:1002700080B400AF164B00221A60154B154A5A6025
:10028000134B00229A60124B124ADA60104B002284
:100290001A610F4B0F4A5A610D4B00229A610C4BA9
:1002A0000C4ADA610A4B00221A62094B094A5A6267
:1002B000074B00229A62064B064ADA62044B002280
:1002C0001A63034B034A5A6300BFBD4680BC7047A4
:1002D0005C930120C78AA90090B58FB002AF0523B7
:1002E000BB612F237B610023FB6216E0BB69191DF4
:1002F000FA6A13469B0013445B001344CA187B69D7
:10030000D91E8F4813465B0013441B0103440B4462
:1003100001221A70FB6A0133FB62FB6A062BE5DDE2
:10032000012302227969B86901F08EFEBB6903F1ED
:100330000B0001230222796901F0CAFEBB6903F1B7
:10034000160001230222796901F032FFBB6903F133
:10035000210001230222796901F08AFFBB6903F1C0
:100360002C0001230222796901F0E2FFBB6903F14D
:10037000370001230222796901F0ECFFBB6903F128
:10038000420001230222796902F060F83B1D00223D
:100390001A605A609A60DA600023BB6200237B62B5
:1003A00000233B62C2E0674A3B6ADB0013445B68A0
:1003B0007B62644A3B6A52F83330634A82FB031221
:1003C0009211DB17D31A7B605E4A3B6A52F83320E6
:1003D0007B685E4901FB03F313445D4A82FB031211
:1003E0005211DB17D31ABB60564A3B6A52F83320CE
:1003F0007B68564901FB03F31A44BB686FF0630145
:1004000001FB03F31344534A82FB03129210DB17E0
:10041000D31AFB604B4A3B6A52F833207B684B4946
:1004200001FB03F31A44BB686FF0630101FB03F3A4
:100430001A44FB686FF0090101FB03F313443B61AD
:100440000023FB616CE0FB69642202FB03F3002BD9
:1004500009D0F9696420FFF797FE02463E4B93FBF3
:10046000F2F3BB6201E03C4BBB623A6A13469B006D
:1004700013445B001A44BB69D018FA6913469B0009
:10048000134406337A69D11A7A6ABB6A92FBF3F293
:10049000012300931346022201F0C6FCFB69002BE6
:1004A0000AD17A6ABB6A92FBF3F32C4A02FB03F38C
:1004B0007A6A13447B6210E07A6ABB6A92FBF3F4B7
:1004C000F9696420FFF760FE0246234B93FBF2F3C9
:1004D00003FB04F37A6AD31A7B623A6A13469B00E1
:1004E00013445B001A44BB69D018FB695A1C1346BD
:1004F0009B079B1A9B009A1A7B691344A3F117016F
:10050000FB699B0007F13002134453F82C2C0123A4
:1005100000931346022203F0A5FDFB690133FB6142
:10052000FB69032B8FDD3B6A01333B623B6A062B81
:100530007FF739AF04F052F800BF3437BD4690BDA5
:10054000C89301205C930120D34D621018FCFFFF7B
:100550001F85EB516766666640420F00C0BDF0FF25
:1005600080B487B000AFF860B9607A60FB70002398
:100570007B613EE0BA687B69D11A3648FA68134657
:100580005B0013441B0103440B44FA781A70FA68A9
:100590007B691A44B9687B68C91A2E4813465B0008
:1005A00013441B0103440B44FA781A70FA687B6801
:1005B0001A447B691A44B9687B68C91A25481346EE
:1005C0005B0013441B0103440B44FA781A70FA6869
:1005D0007B681A447B691A441E4913465B00134426
:1005E0001B01CA18BB681344FA781A707B6901337F
:1005F0007B617B685A1C7B699A42BBDC00233B61B0
:100600001EE0FA683B691A44124913465B00134422
:100610001B01CA18BB681344FA781A70FA687B6821
:100620001A44B9683B69C91A0A4813465B00134467
:100630001B0103440B44FA781A703B6901333B6198
:100640003A697B689A42DCDB00BF1C37BD4680BC40
:10065000704700BFC893012090B587B000AFF86025
:10066000B9607A60FB70FB787A68B968F86800F066
:10067000F5FC00237B6111E0FA687B681A44B968D5
:100680007B69C91A244813465B0013441B010344C9
:100690000B44FA781A707B6901337B617A697B6855
:1006A0009A42E9DBFA687B681A447B681A44B968A5
:1006B0007B68C91AFB78002B14BF01230023DBB22F
:1006C00083F00103DBB203F00103DCB212481346EE
:1006D0005B0013441B0103440B4422461A70BA68A2
:1006E0007B68D11AFB78002B14BF01230023DBB2F7
:1006F00083F00103DBB203F00103DCB20648FA68C1
:1007000013465B0013441B0103440B4422461A703A
:1007100000BF1C37BD4690BDC893012080B487B090
:1007200000AFF860B9607A60FB7000237B611FE066
:100730007B685A00FB681A44B9687B69C91A1E486D
:1007400013465B0013441B0103440B44FA781A70F0
:10075000BA687B69D11A1848FA6813465B001344DB
:100760001B0103440B44FA781A707B6901337B61E7
:100770007B685A1C7B699A42DADC00233B610FE0FC
:10078000FA683B691A440C4913465B0013441B0189
:10079000CA18BB681344FA781A703B6901333B618D
:1007A0007B685B005A1C3B699A42E9DC00BF1C373E
:1007B000BD4680BC704700BFC893012090B585B08E
:1007C00000AFF860B9607A60FB70FB787A68B9684E
:1007D000F86800F043FCFA687B681A447B681A44A6
:1007E000B9687B68C91AFB78002B14BF012300236A
:1007F000DBB283F00103DBB203F00103DCB2134888
:1008000013465B0013441B0103440B4422461A7039
:10081000BA687B68D11AFB78002B14BF0123002330
:10082000DBB283F00103DBB203F00103DCB2074863
:10083000FA6813465B0013441B0103440B44224631
:100840001A7000BF1437BD4690BD00BFC893012089
:1008500080B487B000AFF860B9607A60FB700023A5
:100860007B612EE0BA687B69D11A2748FA68134683
:100870005B0013441B0103440B44FA781A70FA68B6
:100880007B681A44B9687B69C91A1F4813465B0024
:1008900013441B0103440B44FA781A707B685A0016
:1008A000FB681A44B9687B69C91A174813465B008C
:1008B00013441B0103440B44FA781A707B6901331B
:1008C0007B617B685A1C7B699A42CBDC00233B61CD
:1008D0000FE0FA683B691A440B4913465B00134466
:1008E0001B01CA18BB681344FA781A703B690133BC
:1008F0003B617B685B005A1C3B699A42E9DC00BFA4
:100900001C37BD4680BC7047C893012080B487B0B7
:1009100000AFF860B9607A60FB7000237B611EE075
:10092000BA687B69D11A1F48FA6813465B00134402
:100930001B0103440B44FA781A70FA687B681A4466
:10094000B9687B69C91A174813465B0013441B0139
:1009500003440B44FA781A707B6901337B617B682E
:100960005A1C7B699A42DBDC00233B610FE0FA688A
:100970003B691A440B4913465B0013441B01CA1818
:10098000BB681344FA781A703B6901333B617B689A
:100990005B005A1C3B699A42E9DC00BF1C37BD462C
:1009A00080BC7047C893012080B586B000AFF86066
:1009B000B9607A60FB70FB787A68B968F868FFF70D
:1009C000ADFE00237B6117E0FA687B681A447B6800
:1009D000D90F0B445B101946BB68591A7B69C91AB9
:1009E000194813465B0013441B0103440B44FA7877
:1009F0001A707B6901337B617B68DA0F13445B10EB
:100A00005A1C7B699A42DFDC00233B6113E0FA68E1
:100A10007B681A443B691A44B9687B68C91A0A485A
:100A200013465B0013441B0103440B44FA781A700D
:100A30003B6901333B613A697B689A42E7DB00BF5F
:100A40001837BD4680BD00BFC893012080B487B071
:100A500000AFF860B9607A60FB7000237B611EE034
:100A6000FA687B691A44204913465B0013441B0152
:100A7000CA18BB681344FA781A70FA687B691A447A
:100A8000B9687B68C91A184813465B0013441B01F8
:100A900003440B44FA781A707B6901337B617B68ED
:100AA0005B005A1C7B699A42DADC00233B6111E04F
:100AB000FA687B681A44B9683B69C91A0A48134640
:100AC0005B0013441B0103440B44FA781A703B6922
:100AD00001333B613A697B689A42E9DB00BF1C370E
:100AE000BD4680BC704700BFC893012080B487B06A
:100AF00000AFF860B9607A60FB7000237B6115E09D
:100B0000FA687B691A447B68D90F0B445B1019465D
:100B1000BB68591A0B4813465B0013441B0103447E
:100B20000B44FA781A707B6901337B617B685B0048
:100B30005A1C7B699A42E3DC00BF1C37BD4680BC6F
:100B4000704700BFC893012080B487B000AFF86041
:100B5000B9607A60FB7000237B6111E0FA687B6901
:100B60001A44B9687B68C91A204813465B001344CD
:100B70001B0103440B44FA781A707B6901337B61D3
:100B80007B685B005A1C7B699A42E7DC00233B616F
:100B900023E07B685A00FB681A44B9687B68C91A6D
:100BA0003B691944114813465B0013441B0103447D
:100BB0000B44FA781A70FA687B681A443B691A4445
:100BC0000A4913465B0013441B01CA18BB6813444F
:100BD000FA781A703B6901333B613A697B689A4243
:100BE000D7DB00BF1C37BD4680BC7047C8930120CF
:100BF00080B487B000AFF860B9607A60FB70002302
:100C00007B6111E0FA687B681A447B691A443649B3
:100C100013465B0013441B01CA18BB681344FA78DF
:100C20001A707B6901337B617B685A1C7B699A422D
:100C3000E8DC00233B6131E0FA683B691A442A4949
:100C400013465B0013441B01CA18BB681344FA78AF
:100C50001A70FA687B681A443B69D21AB9683B6912
:100C6000C91A214813465B0013441B0103440B447B
:100C7000FA781A70FA687B681A443B691A44B968B2
:100C80003B69C91A184813465B0013441B0103440F
:100C90000B44FA781A703B6901333B613A697B680F
:100CA0009A42C9DBBA687B68D11A0F48FA681346C2
:100CB0005B0013441B0103440B44FA781A707B68F1
:100CC0005A00FB681A44B9687B68C91A064813467B
:100CD0005B0013441B0103440B44FA781A7000BFF5
:100CE0001C37BD4680BC7047C893012080B487B0D4
:100CF00000AFF860B9607A60FB7000237B610FE0A1
:100D0000FA687B691A441A4913465B0013441B01B5
:100D1000CA18BB681344FA781A707B6901337B6187
:100D20007B685B005A1C7B699A42E9DC00233B61CB
:100D300014E07B685A00FB681A44B9687B68C91ADA
:100D40003B6919440A4813465B0013441B010344E2
:100D50000B44FA781A703B6901333B613A697B684E
:100D60009A42E6DB00BF1C37BD4680BC704700BF1F
:100D7000C893012080B489B000AFF860B9607A6090
:100D8000FB707B68022B37D10023FB611EE0FA6801
:100D9000FB691A44494913465B0013441B01CA18F6
:100DA000BB681344FA781A70FA68FB691A44B96888
:100DB0007B68C91A414813465B0013441B01034476
:100DC0000B44FA781A70FB690133FB617B685B00A6
:100DD0005A1CFB699A42DADCFB685A1CB9687B68CA
:100DE000CB1A591C354813465B0013441B010344BE
:100DF0000B44FA781A705BE00023BB611EE0FA68CE
:100E0000BB691A442D4913465B0013441B01CA18E1
:100E1000BB681344FA781A70FA68BB691A44B96857
:100E20007B68C91A254813465B0013441B01034421
:100E30000B44FA781A70BB690133BB617B685B00B5
:100E40005A1CBB699A42DADC00237B612DE0FA6808
:100E50007B691A44BB68591E184813465B0013444B
:100E60001B0103440B44FA781A70FA687B69134437
:100E7000DA1CBB68991E114813465B0013441B0122
:100E800003440B44FA781A70FA687B691A44BB6809
:100E9000D91E0A4813465B0013441B0103440B444C
:100EA000FA781A707B6901337B617B69022BCEDD96
:100EB00000BF2437BD4680BC704700BFC8930120E7
:100EC00080B489B000AFF860B9607A60FB707B686D
:100ED000022B34D10023FB611EE0FA68FB691A443F
:100EE0005D4913465B0013441B01CA18BB681344D9
:100EF000FA781A70FA68FB691A44B9687B68C91AEB
:100F0000554813465B0013441B0103440B44FA7815
:100F10001A70FB690133FB617B685B005A1CFB693B
:100F20009A42DADCBB68591E4B48FA6813465B00EC
:100F300013441B0103440B44FA781A7087E0002322
:100F4000BB6122E0FA687B681A44BB691A444249D3
:100F500013465B0013441B01CA18BB681344FA789C
:100F60001A70FA687B681A44BB691A44B9687B68CE
:100F7000C91A394813465B0013441B0103440B4450
:100F8000FA781A70BB690133BB617B685A1CBB6974
:100F90009A42D7DC00237B611EE0FA687B691A4421
:100FA0002D4913465B0013441B01CA18BB68134448
:100FB000FA781A70FA687B691A44B9687B68C91AAA
:100FC000254813465B0013441B0103440B44FA7885
:100FD0001A707B6901337B617A697B689A42DCDB3A
:100FE00000233B612EE0FA683B691A44BB68591E36
:100FF000194813465B0013441B0103440B44FA7861
:101000001A70FB68DA1C3B691A44BB68991E1248C7
:1010100013465B0013441B0103440B44FA781A7017
:10102000FB689A1D3B691A44BB68D91E0A481346DF
:101030005B0013441B0103440B44FA781A703B69AC
:1010400001333B617B685A1E3B699A42CBDC00BF8F
:101050002437BD4680BC7047C893012080B487B058
:1010600000AFF860B9607A60FB7000237B611EE01E
:10107000FA687B691A44274913465B0013441B0135
:10108000CA18BB681344FA781A70FA687B691A4464
:10109000B9687B68C91A1F4813465B0013441B01DB
:1010A00003440B44FA781A707B6901337B617B68D7
:1010B0005B005A1C7B699A42DADC00233B611FE02B
:1010C0007B685A00FB681A44B9683B69C91A114821
:1010D00013465B0013441B0103440B44FA781A7057
:1010E000BA683B69D11A0B48FA6813465B0013448F
:1010F0001B0103440B44FA781A703B6901333B61CE
:101100007B685A1C3B699A42DADC00BF1C37BD463B
:1011100080BC7047C893012080B489B000AFF860EC
:10112000B9607A60FB700023FB611EE0BA68FB695E
:10113000D11A2C48FA6813465B0013441B01034480
:101140000B44FA781A70FA687B681A44B968FB692C
:10115000C91A244813465B0013441B0103440B4483
:10116000FA781A70FB690133FB617B685A1CFB69D2
:101170009A42DBDC0023BB6112E0FA68BB691344CE
:101180005A1CB9687B68C91A164813465B00134499
:101190001B0103440B44FA781A70BB690133BB612D
:1011A000BA697B689A42E8DB00237B610FE0FA684A
:1011B0007B691A440B4913465B0013441B01CA1890
:1011C000BB681344FA781A707B6901337B617B68D2
:1011D0005B005A1C7B699A42E9DC00BF2437BD469C
:1011E00080BC7047C893012090B587B000AFF8600D
:1011F000B9607A60FB70FB787A68B968F868FFF7C5
:101200002DFF7B68022B1CD1FA687B681A447B682F
:101210001A44BB68991EFB78002B14BF01230023DE
:10122000DBB283F00103DBB203F00103DCB215484B
:1012300013465B0013441B0103440B4422461A70FF
:101240001BE002237B6113E0FA687B681A447B6928
:101250001A44B9687B69C91A0A4813465B001344EB
:101260001B0103440B44FA781A707B6901337B61DC
:101270007B685A1C7B699A42E6DC00BF1C37BD467E
:1012800090BD00BFC893012080B489B000AFF86062
:10129000B9607A60FB700023FB612FE0BA68FB69DC
:1012A000D11A3548FA6813465B0013441B01034406
:1012B0000B44FA781A70FA687B681A44FB691A447E
:1012C000B968FB69C91A2C4813465B0013441B011B
:1012D00003440B44FA781A70FA687B681A44B968B8
:1012E000FB69C91A244813465B0013441B010344DD
:1012F0000B44FA781A70FB690133FB617B685A1C56
:10130000FB699A42CADC0023BB6112E0FA68BB6940
:1013100013445A1CB9687B68C91A174813465B0006
:1013200013441B0103440B44FA781A70BB69013360
:10133000BB61BA697B689A42E8DB00237B610FE0FE
:10134000FA687B691A440C4913465B0013441B017D
:10135000CA18BB681344FA781A707B6901337B6141
:101360007B685B005A1C7B699A42E9DC00BF24372A
:10137000BD4680BC704700BFC893012080B487B0D1
:1013800000AFF860B9607A60FB7000237B6121E0F8
:10139000BA687B69D11A3048FA6813465B00134477
:1013A0001B0103440B44FA781A707B685A00FB68EF
:1013B0001A44B9687B68C91A7B69194426481346E0
:1013C0005B0013441B0103440B44FA781A707B69D9
:1013D00001337B617B685A1C7B699A42D8DC01230C
:1013E0003B612FE0FA683B691A441B4913465B00D6
:1013F00013441B01CA18BB681344FA781A70FA68C0
:101400007B681A44B9683B69C91A134813465B00E4
:1014100013441B0103440B44FA781A70FA687B6882
:101420001A443B691A44B9687B68C91A0A481346CA
:101430005B0013441B0103440B44FA781A703B69A8
:1014400001333B613A697B689A42CBDB00BF1C37B2
:10145000BD4680BC704700BFC893012080B586B0F0
:1014600000AFF860B9607A60FB70FB787A68B968A1
:10147000F868FFF73BFB00237B610FE0BA687B69EC
:10148000D11A0B48FA6813465B0013441B0103444E
:101490000B44FA781A707B6901337B617B685A1CB4
:1014A0007B699A42EADC00BF1837BD4680BD00BFA9
:1014B000C893012080B487B000AFF860B9607A604B
:1014C000FB7000237B611EE0FA687B691A442149A6
:1014D00013465B0013441B01CA18BB681344FA7817
:1014E0001A70FA687B691A44B9687B68C91A194886
:1014F00013465B0013441B0103440B44FA781A7033
:101500007B6901337B617B685B005A1C7B699A4273
:10151000DADC00233B6114E07B685A00FB681A4464
:10152000B9687B68C91A3B6919440A4813465B00CD
:1015300013441B0103440B44FA781A703B690133CE
:101540003B613A697B689A42E6DB00BF1C37BD46C7
:1015500080BC7047C893012080B48BB000AFF860A6
:10156000B9607A60FB707B68022B3BD100237B6201
:101570000FE0FA687B6A1A44664913465B0013441D
:101580001B01CA18BB681344FA781A707B6A0133CE
:101590007B627B6A032BECDD00233B6211E0FA687F
:1015A0003B6A1A44B9687B68C91A5A4813465B00FB
:1015B00013441B0103440B44FA781A703B6A01334D
:1015C0003B623B6A032BEADDFB681A1DBB68591EB0
:1015D000504813465B0013441B0103440B44FA7844
:1015E0001A7091E04B49FA6813465B0013441B01E3
:1015F000CA18BB681344FA781A70FB685A1C45492C
:1016000013465B0013441B01CA18BB681344FA78E5
:101610001A700023FB6111E0FA68FB6913449A1CFD
:10162000BB68591E3B4813465B0013441B0103442F
:101630000B44FA781A70FB690133FB61FB69032BD9
:10164000EADD0023BB6111E0FA68BB6913441A1D8F
:10165000BB68991E2F4813465B0013441B010344CB
:101660000B44FA781A70BB690133BB61BB69022B6A
:10167000EADD00237B6111E0FA687B6913449A1D5F
:10168000BB68991E234813465B0013441B010344A7
:101690000B44FA781A707B6901337B617B69012BFB
:1016A000EADDBA687B68D11A1A48FA6813465B000B
:1016B00013441B0103440B44FA781A70FB685A1C4C
:1016C000B9687B68C91A134813465B0013441B01B1
:1016D00003440B44FA781A7000233B6111E0FA6866
:1016E0003B6913449A1CBB68D91E0A4813465B0029
:1016F00013441B0103440B44FA781A703B6901330D
:101700003B613B69032BEADD00BF2C37BD4680BC43
:10171000704700BFC893012090B589B000AFF86052
:10172000B9607A60FB707B68022B2CD1FB787A68F9
:10173000B968F868FFF7BEFEFB68DA1CBB68591E83
:10174000584813465B0013441B0103440B44FA78CA
:101750001A70FB681A1DBB68591EFB78002B14BF5A
:1017600001230023DBB283F00103DBB203F00103AA
:10177000DCB24C4813465B0013441B0103440B448A
:1017800022461A708AE00023FB6131E0FA687B6828
:101790001A44FB691A44434913465B0013441B0176
:1017A000CA18BB681344FA781A70FA68FB691A44BD
:1017B000B9687B68C91A3B4813465B0013441B0198
:1017C00003440B44FA781A70FA687B681A44FB6980
:1017D0001A44B9687B68C91A324813465B0013443F
:1017E0001B0103440B44FA781A70FB690133FB6157
:1017F0007B685A1CFB699A42C8DC0023BB610FE07E
:10180000FA68BB691A44274913465B0013441B015D
:10181000CA18BB681344FA781A70BB690133BB61FC
:10182000BA697B689A42EBDB00237B6133E0FA689C
:101830007B681A447B691A44BB68591E19481346D1
:101840005B0013441B0103440B44FA781A70FA68D6
:101850007B681A447B691344DA1EBB68991E1148E1
:1018600013465B0013441B0103440B44FA781A70BF
:10187000FA687B681A447B691A44BB68D91E094818
:1018800013465B0013441B0103440B44FA781A709F
:101890007B6901337B617B69022BC8DD00BF243784
:1018A000BD4690BDC893012080B487B000AFF860FA
:1018B000B9607A60FB707B68022B50D100237B619A
:1018C0003CE0FA687B691A44744913465B00134490
:1018D0001B01CA18BB681344FA781A70FA687B694E
:1018E0001A44B9687B68C91A6C4813465B001344F4
:1018F0001B0103440B44FA781A70FA687B6913449D
:10190000DA1C664913465B0013441B01CA18BB6806
:101910001344FA781A70FA687B691344DA1CB968C0
:101920007B68C91A5D4813465B0013441B010344DE
:101930000B44FA781A707B6901337B617B69012B58
:10194000BFDDFB689A1CBB68591E544813465B00F8
:1019500013441B0103440B44FA781A7098E00023E7
:101960003B615AE0FA683B691A44BB68591E4B4810
:1019700013465B0013441B0103440B44FA781A70AE
:10198000FB68DA1C3B691A44BB68991E434813463E
:101990005B0013441B0103440B44FA781A70FB6884
:1019A0009A1D3B691A44BB68D91E3C4813465B002C
:1019B00013441B0103440B44FA781A70FA683B691C
:1019C0001A44BB68D91E354813465B0013441B01FB
:1019D00003440B44FA781A70FB68DA1C3B691A441A
:1019E000BB68991E2D4813465B0013441B0103443A
:1019F0000B44FA781A70FB689A1D3B691A44BB685D
:101A0000591E264813465B0013441B0103440B4434
:101A1000FA781A703B6901333B617B685A1E3B6957
:101A20009A429FDCBA687B68D11A1C48FA68134650
:101A30005B0013441B0103440B44FA781A707B6863
:101A40005A00FB681A44B9687B68C91A13481346E0
:101A50005B0013441B0103440B44FA781A700F49CE
:101A6000FA6813465B0013441B01CA18BB68134491
:101A7000FA781A707B685A00FB681A4407491346C3
:101A80005B0013441B01CA18BB681344FA781A7030
:101A900000BF1C37BD4680BC704700BFC893012003
:101AA00080B487B000AFF860B9607A60FB707B6883
:101AB000022B3FD100237B611EE0FA687B691A4448
:101AC0005E4913465B0013441B01CA18BB681344EC
:101AD000FA781A70FA687B691A44B9687B68C91A7F
:101AE000564813465B0013441B0103440B44FA7829
:101AF0001A707B6901337B617B69022BDDDDFB683A
:101B0000DA1CBB68591E4D4813465B0013441B0189
:101B100003440B44FA781A70FB681A1DBB68591EFF
:101B2000464813465B0013441B0103440B44FA78F8
:101B30001A707EE000233B6112E0FA687B681A4469
:101B40003B691A44BB68991E3C4813465B0013442A
:101B50001B0103440B44FA781A703B6901333B6163
:101B60007B685A1C3B699A42E7DCBB68191F334803
:101B7000FA6813465B0013441B0103440B44FA78D4
:101B80001A70FB685A1CBB68191F2C4813465B006F
:101B900013441B0103440B44FA781A702749FA686E
:101BA00013465B0013441B01CA18BB681344FA7840
:101BB0001A70FB685A1C214913465B0013441B0131
:101BC000CA18BB681344FA781A70FB689A1CBB6881
:101BD000D91E1A4813465B0013441B0103440B44EF
:101BE000FA781A70FB68DA1CBB68D91E13481346D2
:101BF0005B0013441B0103440B44FA781A70FB6822
:101C00009A1CBB68591E0D4813465B0013441B0108
:101C100003440B44FA781A70FB68DA1CBB68591E3F
:101C2000064813465B0013441B0103440B44FA7837
:101C30001A7000BF1C37BD4680BC7047C893012096
:101C400080B489B000AFF860B9607A60FB707B68DF
:101C5000022B5AD10023FB6120E0BA68FB69D11A3C
:101C60005D48FA6813465B0013441B0103440B44B0
:101C7000FA781A70FA687B681A447B681A44B96863
:101C8000FB69C91A544813465B0013441B01034403
:101C90000B44FA781A70FB690133FB61FB69022B74
:101CA000DBDD0023BB611FE0FA68BB691A44B96839
:101CB0007B68C91A484813465B0013441B01034460
:101CC0000B44FA781A70FA68BB691344DA1C42496B
:101CD00013465B0013441B01CA18BB681344FA780F
:101CE0001A70BB690133BB61BB69012BDCDDFB688A
:101CF0009A1CBB68591E384813465B0013441B01ED
:101D000003440B44FA781A7060E000237B6121E001
:101D1000BA687B69D11A3048FA6813465B001344ED
:101D20001B0103440B44FA781A707B685A00FB6865
:101D30001A44B9687B68C91A7B6919442648134656
:101D40005B0013441B0103440B44FA781A707B694F
:101D500001337B617B685A1C7B699A42D8DC002383
:101D60003B612EE0FA683B691A44BB68D91E1A48E9
:101D700013465B0013441B0103440B44FA781A70AA
:101D8000FB68DA1C3B691A44BB68991E124813466B
:101D90005B0013441B0103440B44FA781A70FB6880
:101DA0009A1D3B691A44BB68591E0B4813465B00D9
:101DB00013441B0103440B44FA781A703B69013346
:101DC0003B617B685A1E3B699A42CBDC00BF2437DB
:101DD000BD4680BC704700BFC893012080B483B06B
:101DE00000AF786039607B685A1C3B68591E0D480B
:101DF00013465B0013441B0103440B4401221A7079
:101E00007B685A1D3B68591E064813465B00134405
:101E10001B0103440B4401221A7000BF0C37BD465E
:101E200080BC7047C893012080B584B000AFF860D3
:101E3000B9607A603B603B68013B192B00F2EE8091
:101E400001A252F823F000BFB11E0008BF1E000817
:101E5000CD1E0008DB1E0008E91E0008F71E000862
:101E6000051F0008131F0008211F00082F1F00086E
:101E70003D1F00084B1F0008591F0008671F00087E
:101E8000751F0008831F0008911F00089F1F00088E
:101E9000AD1F0008BB1F0008C91F0008D71F00089E
:101EA000E51F0008F31F0008012000080F200008AC
:101EB0003B7E7A68B968F868FEF752FBAEE03B7E7D
:101EC0007A68B968F868FEF7C7FBA7E03B7E7A68D6
:101ED000B968F868FEF722FCA0E03B7E7A68B96832
:101EE000F868FEF76BFC99E03B7E7A68B968F868A1
:101EF000FEF7AEFC92E03B7E7A68B968F868FEF7C0
:101F000005FD8BE03B7E7A68B968F868FEF74CFD0A
:101F100084E03B7E7A68B968F868FEF797FD7DE05B
:101F20003B7E7A68B968F868FEF7E0FD76E03B7EB4
:101F30007A68B968F868FEF707FE6FE03B7E7A685A
:101F4000B968F868FEF754FE68E03B7E7A68B968C5
:101F5000F868FEF7CBFE61E03B7E7A68B968F86806
:101F6000FEF708FF5AE03B7E7A68B968F868FEF72A
:101F7000A7FF53E03B7E7A68B968F868FFF76EF810
:101F80004CE03B7E7A68B968F868FFF7C5F845E031
:101F90003B7E7A68B968F868FFF726F93EE03B7E39
:101FA0007A68B968F868FFF76FF937E03B7E7A68BE
:101FB000B968F868FFF7E2F930E03B7E7A68B96803
:101FC000F868FFF74BFA29E03B7E7A68B968F86851
:101FD000FFF770FA22E03B7E7A68B968F868FFF78D
:101FE000BBFA1BE03B7E7A68B968F868FFF794FBA0
:101FF00014E03B7E7A68B968F868FFF755FC0DE09D
:102000003B7E7A68B968F868FFF74AFD06E03B7ED8
:102010007A68B968F868FFF713FE00BF00BF103791
:10202000BD4680BD80B584B000AFF860B9607A600D
:10203000FB70FB787A68B968F868FFF70FF800BFA3
:102040001037BD4680BD00BF80B487B000AFF860D8
:10205000B9607A60FB7000237B6113E0FA687B69EA
:102060001A44B9687B68C91A7B6919441748134632
:102070005B0013441B0103440B4401221A707B696B
:1020800001337B617A697B689A42E7DB00233B611D
:1020900011E0FA683B691A44B9687B68C91A0B48B1
:1020A00013465B0013441B0103440B4401221A70C6
:1020B0003B6901333B617B685B005A1C3B699A4278
:1020C000E7DC00BF1C37BD4680BC7047C8930120C9
:1020D00080B487B000AFF860B9607A60FB7000230D
:1020E0007B6121E0BA687B69D11A3048FA681346EF
:1020F0005B0013441B0103440B4401221A707B68EC
:102100005A00FB681A44B9687B68C91A7B6919448C
:10211000264813465B0013441B0103440B44012271
:102120001A707B6901337B617B685A1C7B699A4218
:10213000D8DC01233B612FE0FA683B691A44B96897
:102140007B68C91A194813465B0013441B010344FA
:102150000B4401221A70FA687B681A44B9683B691B
:10216000C91A124813465B0013441B0103440B4475
:1021700001221A70FA687B681A443B691A440B49B9
:1021800013465B0013441B01CA18BB6813440122A9
:102190001A703B6901333B613A697B689A42CBDB39
:1021A00000BF1C37BD4680BC704700BFC8930120EC
:1021B00080B487B000AFF860B9607A60FB7000232C
:1021C0007B612EE0BA687B69D11A2848FA68134609
:1021D0005B0013441B0103440B4401221A70FA688C
:1021E0007B681A44B9687B69C91A204813465B00AA
:1021F00013441B0103440B4401221A707B685A00EC
:10220000FB681A44B9687B69C91A184813465B0011
:1022100013441B0103440B4401221A707B690133F0
:102220007B617B685A1C7B699A42CBDC00233B6153
:1022300011E0FA683B691A44B9687B68C91A0B480F
:1022400013465B0013441B0103440B4401221A7024
:102250003B6901333B617B685B005A1C3B699A42D6
:10226000E7DC00BF1C37BD4680BC7047C893012027
:1022700080B487B000AFF860B9607A60FB7000236B
:102280007B612DE0FA687B691A44284913465B009C
:1022900013441B01CA18BB68134401221A70FA6860
:1022A0007B691A44B9687B68C91A204813465B00E9
:1022B00013441B0103440B4401221A70FA687B6823
:1022C0001A44B9687B69C91A184813465B0013445D
:1022D0001B0103440B4401221A707B6901337B61AB
:1022E0007A697B689A42CDDB00233B6113E0FA6890
:1022F0007B681A443B691A44B9687B68C91A0B4861
:1023000013465B0013441B0103440B4401221A7063
:102310003B6901333B617B685A1C3B699A42E6DCAE
:1023200000BF1C37BD4680BC704700BFC89301206A
:1023300080B584B000AFF860B9607A60FB70FB785C
:102340007A68B968F868FFF719F800BF1037BD461A
:1023500080BD00BF80B489B000AFF860B9607A601A
:10236000FB700023FB6121E0BA68FB69D11A364893
:10237000FA6813465B0013441B0103440B4401221B
:102380001A707B685A00FB681A44B9687B68C91ADE
:10239000FB6919442C4813465B0013441B0103449A
:1023A0000B4401221A70FB690133FB617B685A1CE4
:1023B000FB699A42D8DC0023BB610FE0FA68BB6975
:1023C0001A44214913465B0013441B01CA18BB6819
:1023D000134401221A70BB690133BB617B685B0047
:1023E0005A1CBB699A42E9DC00237B6122E0FA684F
:1023F0007B681A44B9687B69C91A134813465B00A5
:1024000013441B0103440B4401221A70FA687B68D1
:102410001A447B691A44B9687B68C91A0A4813468A
:102420005B0013441B0103440B4401221A707B69B7
:1024300001337B617A697B689A42D8DB00BF24371D
:10244000BD4680BC704700BFC893012080B487B0F0
:1024500000AFF860B9607A60FB7000237B610FE029
:10246000BA687B69D11A1948FA6813465B001344AD
:102470001B0103440B4401221A707B6901337B6109
:102480007B685A1C7B699A42EADC00233B6111E0BD
:10249000FA683B691A44B9687B68C91A0B48134645
:1024A0005B0013441B0103440B4401221A703B6977
:1024B00001333B617B685B005A1C3B699A42E7DC55
:1024C00000BF1C37BD4680BC704700BFC8930120C9
:1024D00080B586B000AFF860B9607A60FB70FB78B9
:1024E0007A68B968F868FEF7B9FD00237B6111E0EE
:1024F000FA687B681A44B9687B69C91A09481346A7
:102500005B0013441B0103440B4401221A707B69D6
:1025100001337B617A697B689A42E9DB00BF183737
:10252000BD4680BDC893012080B586B000AFF8607D
:10253000B9607A60FB70FB787A68B968F868FFF771
:10254000F7FE00237B6111E0FA687B691A44B968E1
:102550007B68C91A0A4813465B0013441B010344F5
:102560000B4401221A707B6901337B617B685A1C22
:102570007B699A42E8DC00BF1837BD4680BD00BFCA
:10258000C893012080B483B000AF00237B601AE0C1
:102590007B6803F108021C4913465B0013441B01CE
:1025A0000B442F3301221A707B68C3F15202164983
:1025B00013465B0013441B010B44013301221A70C4
:1025C0007B6801337B607B684A2BE1DD00233B6045
:1025D00012E03B68C3F12F030B4A1344012283F836
:1025E000902F3B68C3F12F03074A1344012283F85D
:1025F00050213B6801333B603B682E2BE9DD00BF77
:102600000C37BD4680BC7047C893012080B489B0A8
:1026100000AFF860B9607A60FB70FB68023BFB605A
:102620007B6801337B600023FB610FE0BA68FB69C4
:10263000D11A2F48FA6813465B0013441B01034468
:102640000B44FA781A70FB690133FB61FA697B6805
:102650009A42EBDBBB680133BB600123BB6111E035
:10266000FA68BB69D21AB968BB69C91A204813460F
:102670005B0013441B0103440B44FA781A70BB69D6
:102680000133BB617B68DA0F13445B105A1CBB69D2
:102690009A42E5DC00237B611DE07B68DA0F13447E
:1026A0005B100133FA68D21A7B691A447B68D90F30
:1026B0000B445B100133B968C91A7B69C91A0C480D
:1026C00013465B0013441B0103440B44FA781A7051
:1026D0007B6901337B617B68DA0F13445B105A1C02
:1026E0007B699A42D9DC00BF2437BD4680BC704765
:1026F000C893012080B489B000AFF860B9607A60F7
:10270000FB707B6801337B607B685B00FA68134475
:10271000FB600023FB610FE0BA68FB69D11A2F4808
:10272000FA6813465B0013441B0103440B44FA7818
:102730001A70FB690133FB61FA697B689A42EBDB33
:10274000BB680133BB600123BB6111E0FA68BB6960
:102750001A44B968BB69C91A204813465B00134480
:102760001B0103440B44FA781A70BB690133BB6147
:102770007B68DA0F13445B105A1CBB699A42E5DC94
:1027800000237B611DE07B68DA0F13445B105A1C49
:10279000FB681A447B69D21A7B68D90F0B445B1023
:1027A0000133B968C91A7B69C91A0C4813465B0022
:1027B00013441B0103440B44FA781A707B690133FC
:1027C0007B617B68DA0F13445B105A1C7B699A4269
:1027D000D9DC00BF2437BD4680BC7047C8930120B8
:1027E00080B487B000AFF860B9607A60FB70FB68B6
:1027F0000133FB6000237B610FE0FA687B691A44B8
:102800002A4913465B0013441B01CA18BB681344D2
:10281000FA781A707B6901337B617B685A007B69A7
:102820009A42EADC00233B6123E0FA683B691A44E0
:10283000B9683B69C91A1D4813465B0013441B0164
:1028400003440B44FA781A707B685A00FB681A44F8
:102850003B69D21AB9683B69C91A144813465B0030
:1028600013441B0103440B44FA781A703B6901338B
:102870003B613A697B689A42D7DB7B68DA0F134485
:102880005B101A46FB6813449A1CB9687B68C91A26
:10289000064813465B0013441B0103440B44FA78BB
:1028A0001A7000BF1C37BD4680BC7047C89301201A
:1028B00080B485B000AF786039600023FB604BE0E6
:1028C0007A68FB681A442A4913465B0013441B01CB
:1028D000CA183B68134401221A703A68FB68D11A7F
:1028E00023487A6813465B0013441B0103440B44DE
:1028F00001221A701F4B1A687B681A443968FB68FA
:10290000C91A1B4813465B0013441B0103440B44C4
:1029100001221A707A68FB681A44164B1B683968E2
:10292000C91A134813465B0013441B0103440B44AC
:1029300001221A707A68FB681A443968FB68C91A60
:102940000B4813465B0013441B0103440B44012254
:102950001A70FB680133FB60064B1B685A1CFB684E
:102960009A42ADDC00BF1437BD4680BC704700BF43
:10297000C89301200000002080B485B000AF7860CB
:1029800039600023FB604BE07A68FB681A442A49EF
:1029900013465B0013441B01CA183B681344002212
:1029A0001A703A68FB68D11A23487A6813465B00AC
:1029B00013441B0103440B4400221A701F4B1A6876
:1029C0007B681A443968FB68C91A1B4813465B00C8
:1029D00013441B0103440B4400221A707A68FB68FD
:1029E0001A44164B1B683968C91A134813465B0012
:1029F00013441B0103440B4400221A707A68FB68DD
:102A00001A443968FB68C91A0B4813465B00134423
:102A10001B0103440B4400221A70FB680133FB6066
:102A2000064B1B685A1CFB689A42ADDC00BF14378A
:102A3000BD4680BC704700BFC89301200000002045
:102A400080B485B000AF786039600023FB605DE042
:102A50007A68FB681A44314913465B0013441B0132
:102A6000CA183B68134400221A703A68FB68D11AEE
:102A70002A487A6813465B0013441B0103440B4445
:102A800000221A70264B1A687B6813445A1E396854
:102A9000FB68C91A214813465B0013441B01034419
:102AA0000B4400221A707A68FB681A441C4B1B689E
:102AB0003968CB1A591C194813465B0013441B0193
:102AC00003440B4400221A70154B1A687B681344A8
:102AD0005A1E3B68D91E114813465B0013441B0164
:102AE00003440B4400221A707A68FB681A44396860
:102AF000FB68C91A094813465B0013441B010344D1
:102B00000B4400221A70FB680133FB60FB68022B48
:102B10009EDD00BF1437BD4680BC7047C8930120BE
:102B20000000002080B582B000AF7860396039685D
:102B30007868FFF7BDFE254B1B683A68D31A013B46
:102B400019467868FFF7B4FE204B1A687B68134477
:102B5000013339681846FFF7ABFE1C4B1A687B68D7
:102B60001344581C194B1B683A68D31A013B194689
:102B7000FFF79EFE164A7B681360154A3B68136197
:102B8000134A7B685360114B1B683A68D31A104A8A
:102B900053610E4B1A687B68134401330C4A9360EF
:102BA0000B4A3B689361094B1A687B6813440133F5
:102BB000074AD360054B1B683A68D31A013B044AA5
:102BC000D36100BF0837BD4680BD00BF00000020B4
:102BD00088A3012080B582B000AF78603960396881
:102BE0007868FFF765FE254B1B683A68D31A013BEE
:102BF00019467868FFF75CFE204B1B6801335B00C9
:102C00003A68D31A19467868FFF752FE1B4B1B68C7
:102C100001331A469B00D21A3B6813441946786860
:102C2000FFF746FE164A7B681360154A3B6813613E
:102C3000134A7B685360114B1B683A68D31A013BF7
:102C40000F4A53610E4A7B6893600C4B1B6801333B
:102C50005B003A68D31A0A4A9361094A7B68D360D9
:102C6000064B1B6801331A469B00D21A3B6813447B
:102C7000034AD36100BF0837BD4680BD0000002075
:102C800088A3012080B582B000AF786039603968D0
:102C90007868FFF70DFE254B1A687B6813440133F3
:102CA00039681846FFF704FE204B1B6801335A00B1
:102CB0007B68134439681846FFF7FAFD1B4B1B6805
:102CC0005A1C13465B001A447B6813443968184643
:102CD000FFF7EEFD164A7B681360154A3B681361E7
:102CE000124B1A687B6813440133114A5360104A2F
:102CF0003B6853610D4B1B6801335A007B681344DA
:102D00000B4A93600A4A3B689361084B1B685A1C44
:102D100013465B001A447B681344054AD360044A97
:102D20003B68D36100BF0837BD4680BD000000206E
:102D300088A3012080B582B000AF7860396039681F
:102D40007868FFF7B5FD274B1B683A68D31A013B3B
:102D500019467868FFF7ACFD224B1B6801335B0016
:102D60003A68D31A19467868FFF7A2FD1D4B1B6815
:102D70007A68D31A581E1B4B1B6801335B003A68F4
:102D8000D31A1946FFF794FD174A7B681360164A59
:102D90003B681361144A7B685360124B1B683A68A6
:102DA000D31A013B104A53610F4A7B6893600D4B65
:102DB0001B6801335B003A68D31A0B4A9361094BD5
:102DC0001B687A68D31A013B074AD360054B1B681E
:102DD00001335B003A68D31A034AD36100BF083756
:102DE000BD4680BD0000002088A3012080B582B0D0
:102DF00000AF7860396039687868FFF759FD224B79
:102E00001B683A68D31A013B19467868FFF750FDF2
:102E10001D4B1B6801335B003A68D31A194678686A
:102E2000FFF746FD184B1B687A68D31A013B3968D7
:102E30001846FFF73DFD154A7B681360134A3B684F
:102E40001361124A7B6853600F4B1B683A68D31AB0
:102E5000013B0E4A53610D4A7B6893600A4B1B6825
:102E600001335B003A68D31A084A9361064B1B682A
:102E70007A68D31A013B054AD360044A3B68D361A0
:102E800000BF0837BD4680BD0000002088A3012098
:102E900080B582B000AF7860396039687868FFF734
:102EA00007FD274B1B683A68D31A013B194678681F
:102EB000FFF7FEFC224B1B6801335B003A68D31A14
:102EC00019467868FFF7F4FC1D4B1A687B681344B9
:102ED000581C1B4B1B6801335B003A68D31A194618
:102EE000FFF7E6FC174A7B681360164A3B681361DC
:102EF000144A7B685360124B1B683A68D31A013B33
:102F0000104A53610F4A7B6893600D4B1B68013375
:102F10005B003A68D31A0B4A9361094B1A687B68C5
:102F200013440133074AD360054B1B6801335B0030
:102F30003A68D31A034AD36100BF0837BD4680BD43
:102F40000000002088A3012080B582B000AF786027
:102F5000396039687868FFF7ABFC224B1B683A6828
:102F6000D31A013B19467868FFF7A2FC1D4B1B687A
:102F700001335B003A68D31A19467868FFF798FC6A
:102F8000184B1A687B681344013339681846FFF7F9
:102F90008FFC154A7B681360134A3B681361124A21
:102FA0007B6853600F4B1B683A68D31A013B0E4A8B
:102FB00053610D4A7B6893600A4B1B6801335B00C9
:102FC0003A68D31A084A9361064B1A687B6813441F
:102FD0000133054AD360044A3B68D36100BF083718
:102FE000BD4680BD0000002088A3012080B582B0CE
:102FF00000AF7860396039687868FFF759FC274B73
:103000001A687B681344013339681846FFF750FC8F
:10301000224B1B6801335A007B68134439681846F9
:10302000FFF746FC1D4B1B6801335A007B68D01824
:103030001A4B1B683A68D31A013B1946FFF738FC54
:10304000174A7B681360164A3B681361134B1A6872
:103050007B6813440133124A5360114A3B68536141
:103060000E4B1B6801335A007B6813440C4A936073
:103070000B4A3B689361094B1B6801335A007B681C
:103080001344074AD360054B1B683A68D31A013BC7
:10309000034AD36100BF0837BD4680BD0000002051
:1030A00088A3012080B582B000AF786039603968AC
:1030B0007868FFF7FDFB274B1A687B6813440133E0
:1030C00039681846FFF7F4FB224B1B6801335A009E
:1030D0007B68134439681846FFF7EAFB1D4B1B68F1
:1030E00001335A007B68D0181A4B1A683B681344A6
:1030F00001331946FFF7DCFB174A7B681360164A59
:103100003B681361134B1A687B6813440133124AFE
:103110005360114A3B6853610E4B1B6801335A00E0
:103120007B6813440C4A93600B4A3B689361094BDC
:103130001B6801335A007B681344074AD360054B70
:103140001A683B6813440133034AD36100BF083750
:10315000BD4680BD0000002088A3012080B582B05C
:1031600000AF7860396039687868FFF7A1FB224BBF
:103170001A687B681344013339681846FFF798FBD7
:103180001D4B1B6801335A007B681344396818468D
:10319000FFF78EFB184B1B683A68D31A013B1946A0
:1031A0007868FFF785FB154A7B681360134A3B6814
:1031B0001361114B1A687B68134401330F4A536043
:1031C0000E4A3B6853610C4B1B6801335A007B6805
:1031D00013440A4A9360094A3B689361074A7B6833
:1031E000D360054B1B683A68D31A013B034AD3618D
:1031F00000BF0837BD4680BD0000002088A3012025
:1032000080B582B000AF7860396039687868FFF7C0
:103210004FFB224B1A687B68134401333968184608
:10322000FFF746FB1D4B1B6801335A007B681344B4
:1032300039681846FFF73CFB184B1A683B68134483
:10324000013319467868FFF733FB154A7B68136032
:10325000134A3B681361114B1A687B6813440133AE
:103260000F4A53600E4A3B6853610C4B1B68013395
:103270005A007B6813440A4A9360094A3B68936189
:10328000074A7B68D360054B1A683B6813440133D7
:10329000034AD36100BF0837BD4680BD000000204F
:1032A00088A3012080B582B000AF786039603968AA
:1032B0007868FFF7FDFA264B1B683A68D31A013B82
:1032C00019467868FFF7F4FA214B1B6801335B005D
:1032D0003A68D31A19467868FFF7EAFA1C4B1A685D
:1032E0007B681344581C1A4B1B683A68D31A013B7D
:1032F0001946FFF7DDFA174A7B681360154A3B68E9
:103300001361144A7B685360114B1B683A68D31AE7
:10331000013B104A53610F4A7B6893600C4B1B685A
:1033200001335B003A68D31A0A4A9361084B1A6862
:103330007B6813440133074AD360054B1B683A6826
:10334000D31A013B034AD36100BF0837BD4680BD95
:103350000000002088A3012080B582B000AF786013
:10336000396039687868FFF7A3FA264B1B683A681A
:10337000D31A013B19467868FFF79AFA214B1B686C
:1033800001335B003A68D31A19467868FFF790FA60
:103390001C4B1B687A68D31A581E1A4B1B683A6874
:1033A000D31A013B1946FFF783FA174A7B6813606B
:1033B000154A3B681361144A7B685360114B1B68C4
:1033C0003A68D31A013B104A53610F4A7B689360F5
:1033D0000C4B1B6801335B003A68D31A0A4A9361AD
:1033E000084B1B687A68D31A013B074AD360054B28
:1033F0001B683A68D31A013B034AD36100BF083700
:10340000BD4680BD0000002088A3012080B582B0A9
:1034100000AF7860396039687868FFF749FA264B61
:103420001A687B681344013339681846FFF740FA7D
:10343000214B1B6801335A007B68134439681846D6
:10344000FFF736FA1C4B1A687B681344581C1A4B5A
:103450001B683A68D31A013B1946FFF729FA174A45
:103460007B681360154A3B681361134B1A687B68CD
:1034700013440133114A5360104A3B6853610E4BA9
:103480001B6801335A007B6813440C4A93600B4A53
:103490003B689361084B1A687B6813440133074A01
:1034A000D360054B1B683A68D31A013B034AD361CA
:1034B00000BF0837BD4680BD0000002088A3012062
:1034C00080B582B000AF7860396039687868FFF7FE
:1034D000EFF9264B1A687B681344013339681846A4
:1034E000FFF7E6F9214B1B6801335A007B68134450
:1034F00039681846FFF7DCF91C4B1A687B681344DF
:10350000581C1A4B1A683B68134401331946FFF7DD
:10351000CFF9174A7B681360154A3B681361134B58
:103520001A687B6813440133114A5360104A3B68A0
:1035300053610E4B1B6801335A007B6813440C4ADD
:1035400093600B4A3B689361084B1A687B6813448D
:103550000133074AD360054B1A683B6813440133B3
:10356000034AD36100BF0837BD4680BD000000207C
:1035700088A3012080B582B000AF786039603968D7
:103580007868FFF795F92A4B1B683A68D31A013B14
:1035900019467868FFF78CF9254B1A687B68134445
:1035A000581C234B1B6801335B003A68D31A194639
:1035B000FFF77EF91E4B1A687B681344581C1C4B9E
:1035C0001B683A68D31A013B1946FFF771F9194A8B
:1035D0007B681360174A3B681361164A7B68536027
:1035E000134B1B683A68D31A013B124A5361104BC4
:1035F0001A687B68134401330E4A93600C4B1B68B6
:1036000001335B003A68D31A0A4A9361084B1A687F
:103610007B6813440133074AD360054B1B683A6843
:10362000D31A013B034AD36100BF0837BD4680BDB2
:103630000000002088A3012080B582B000AF786030
:1036400039602D4B1A687B6813440133396818467A
:10365000FFF72EF9284B1B683A68D31A013B19462D
:103660007868FFF725F9244B1B6801335B003A6843
:10367000D31A19467868FFF71BF91F4B1A687B6845
:103680001344581C1C4B1B683A68D31A013B19465B
:10369000FFF70EF9184B1A687B6813440133174A79
:1036A0001360164A3B681361144A7B685360124BDF
:1036B0001B683A68D31A013B104A53610F4A7B6872
:1036C00093600D4B1B6801335B003A68D31A0B4AB9
:1036D0009361094B1A687B6813440133074AD3602E
:1036E000054B1B683A68D31A013B044AD36100BFFB
:1036F0000837BD4680BD00BF0000002088A3012020
:1037000080B582B000AF7860396039687868FFF7BB
:10371000CFF8254B1B683A68D31A013B19467868E5
:10372000FFF7C6F8204B1A687B68134401333968E9
:103730001846FFF7BDF81C4B1B687A68D31A581E51
:10374000194B1B683A68D31A013B1946FFF7B0F8CA
:10375000164A7B681360154A3B681361134A7B68FD
:103760005360114B1B683A68D31A013B0F4A5361EF
:103770000D4B1A687B68134401330C4A93600B4A63
:103780003B689361084B1B687A68D31A013B074A70
:10379000D360054B1B683A68D31A013B034AD361D7
:1037A00000BF0837BD4680BD0000002088A301206F
:1037B00080B582B000AF7860396039687868FFF70B
:1037C00077F8254B1B687A68D31A013B396818468D
:1037D000FFF76EF8204B1B683A68D31A013B194675
:1037E0007868FFF765F81C4B1A687B681344581C0F
:1037F000194B1B683A68D31A013B1946FFF758F872
:10380000164A7B681360154A3B681361134A7B684C
:103810005360114B1B683A68D31A013B0F4A53613E
:103820000D4B1A687B68134401330C4A93600A4BB2
:103830001B683A68D31A013B084A9361064B1B6820
:103840007A68D31A013B054AD360044A3B68D361C6
:1038500000BF0837BD4680BD0000002088A30120BE
:1038600080B584B000AFF860B9607A60FB70FB7817
:103870007A68B968F868FDF749F8BA687B68D31ABE
:10388000023BBB60FB787A68B968F868FDF712FE06
:10389000BA687B68D31A023BBB60FB787A68B96868
:1038A000F868FDF70DFBBA687B68D31A023BBB6072
:1038B000FB787A68B968F868FCF730FFBA687B680B
:1038C000D31A043BBB60FB787A68B968F868FDF7E7
:1038D000C5FDBA687B68D31A023BBB60FB787A6887
:1038E000B968F868FDF7BAFB7B689A00BB681344B7
:1038F0000A33BB60FB680A33FB60FB787A68B968FF
:10390000F868FDF73BFDBA687B68D31A023BBB60E1
:10391000FB787A68B968F868FDF7A0FDBA687B683B
:10392000D31A023BBB60FB787A68B968F868FCF789
:1039300017FEBA687B68D31A023BBB60FB787A68D3
:10394000B968F868FDF7A0FCBA687B68D31A023B37
:10395000BB60FB787A68B968F868FDF77FFD00BF47
:103960001037BD4680BD00BF80B584B000AFF860A1
:10397000B9607A60FB70FB787A68B968F868FDF71F
:103980009FFABA687B68D31A023BBB60FB787A68FF
:10399000B968F868FCF75CFFBA687B68D31A023B29
:1039A000BB60FB787A68B968F868FDF7B5FEBA685D
:1039B0007B68D31A043BBB60FB787A68B968F86807
:1039C000FCF7F2FFBA687B68D31A023BBB60FB7856
:1039D0007A68B968F868FCF7C3FDBA687B68D31ADF
:1039E000023BBB60FB787A68B968F868FDF7C2F9FA
:1039F000BA687B68D31A023BBB60FB787A68B96807
:103A0000F868FCF725FF00BF1037BD4680BD00BF3A
:103A100080B584B000AFF860B9607A60FB70FB7865
:103A20007A68B968F868FDF72FFCBA687B68D31A22
:103A3000023BBB60FB787A68B968F868FCF790FDD8
:103A4000BA687B68D31A023BBB60FB787A68B968B6
:103A5000F868FDF735FABA687B68D31A023BBB6099
:103A6000FB787A68B968F868FDF7C2F800BF1037CC
:103A7000BD4680BD80B584B000AFF860B9607A60A3
:103A8000FB70FB787A68B968F868FCF7E1FEBA6801
:103A90007B68D31A023BBB60FB787A68B968F86828
:103AA000FDF702FFBA687B68D31A023BBB60FB7864
:103AB0007A68B968F868FDF719F8BA687B68D31AAC
:103AC000023BBB60FB787A68B968F868FDF7C6FC12
:103AD00000BF1037BD4680BD80B584B000AFF86030
:103AE000B9607A60FB70FB787A68B968F868FDF7AE
:103AF000B5FCBA687B68D31A033BBB60FB787A6875
:103B0000B968F868FCF7A4FEBA687B68D31A023B70
:103B1000BB60FB787A68B968F868FDF79FFCBA6803
:103B20007B68D31A033BBB60FB787A68B968F86896
:103B3000FDF7AAFBBA687B68D31A023BBB60FB782F
:103B40007A68B968F868FCF7D1FFBA687B68D31A5D
:103B5000023BBB60FB787A68B968F868FDF70EFC39
:103B600000BF1037BD4680BD80B584B000AFF8609F
:103B7000B9607A60FB70FB787A68B968F868FCF71E
:103B800013FFBA687B68D31A023BBB60FB787A6884
:103B9000B968F868FCF7E4FCBA687B68D31A023BA2
:103BA000BB60FB787A68B968F868FDF7E3F8BA6833
:103BB0007B68D31A023BBB60FB787A68B968F86807
:103BC000FCF746FE7B689A1C13465B001344BA68F8
:103BD0001344BB60FA687B6813440633FB60FB78D0
:103BE0007A68B968F868FDF739FABA687B68D31A59
:103BF000023BBB60FB787A68B968F868FDF7ACFCFB
:103C0000BA687B68D31A023BBB60FB787A68B968F4
:103C1000F868FCF71DFEBA687B68D31A023BBB60EC
:103C2000FB787A68B968F868FDF72EFB00BF10379B
:103C3000BD4680BD80B584B000AFF860B9607A60E1
:103C4000FB70FB787A68B968F868FDF797FBBA688B
:103C50007B68D31A023BBB60FB787A68B968F86866
:103C6000FCF7F6FDBA687B68D31A023BBB60FB78B1
:103C70007A68B968F868FDF7F1FBBA687B68D31A0F
:103C8000063BBB60FB787A68B968F868FDF718F9FD
:103C9000BA687B68D31A023BBB60FB787A68B96864
:103CA000F868FCF723FFBA687B68D31A023BBB6055
:103CB000FB787A68B968F868FCF730FDBA687B6809
:103CC000D31A023BBB60FB787A68B968F868FCF7E6
:103CD0008FFF00BF1037BD4680BD00BF80B586B0E6
:103CE00000AF3223FB602A23BB6004237B600123E7
:103CF0007A68B968F868FFF737FEFB6803F10C00D3
:103D000001237A68B968FFF783FEFB6803F11800A6
:103D100001237A68B968FFF7ADFE00237B6116E0E6
:103D200000233B610DE06A497A6913465B00134446
:103D30001B01CA183B69134401221A703B69013305
:103D40003B613B692F2BEEDD7B6901337B617B6936
:103D50002F2BE5DDFB68A3F12C0000237A68B968FE
:103D6000FFF7BAFEFB681C3BB9681846FEF768FE11
:103D7000FB68A3F11C02BB68043B19461046FEF722
:103D80005FFEFB68A3F11C02BB68083B19461046A6
:103D9000FEF756FEFB68A3F11802BB68043B194608
:103DA0001046FEF74DFEFB68A3F12002BB681E3BE8
:103DB00019461046FEF744FEFB68A3F11C02BB68DF
:103DC0001A3B19461046FEF73BFEFB68A3F12002A2
:103DD000BB681A3B19461046FEF732FEFB68A3F19A
:103DE0001C02BB681E3B19461046FEF729FEFB6805
:103DF000A3F11402BB680C3B19461046FEF720FEE7
:103E0000FB68A3F11402BB68103B19461046FEF78D
:103E100017FEFB68A3F11402BB68143B1946104659
:103E2000FEF70EFEFB68A3F11402BB68183B1946AF
:103E30001046FEF705FEFB68A3F11402BB68203BA9
:103E400019461046FEF7FCFDFB68A3F11002BB68A3
:103E5000203B19461046FEF7F3FDFB68A3F1100264
:103E6000BB68243B19461046FEF7EAFDFB68A3F148
:103E70000C02BB68243B19461046FEF7E1FDFB68C7
:103E8000A3F10A02BB68063B19461046FEF7D8FDAF
:103E9000FB68A3F10A02BB680A3B19461046FEF70D
:103EA000CFFDFB68A3F10E02BB680A3B1946104622
:103EB000FEF7C6FDFB68A3F10E02BB680E3B194678
:103EC0001046FEF7BDFD00BF1837BD4680BD00BFE0
:103ED000C893012080B584B000AF78607B68FB6038
:103EE0003CE00123BB6033E0FA6813469B001344B7
:103EF00003F10D02B9680B469B000B44591C1B488B
:103F000013465B0013441B0103440B441B78002B36
:103F10001BD0FA6813469B00134403F10D00BA68E6
:103F200013469B00134401331946FEF725FDFA683A
:103F300013469B00134403F11200BA6813469B001A
:103F4000134401331946FEF7B3FCBB680133BB6071
:103F5000BB68092BC8DDFB68013BFB60FB68002BDD
:103F6000BFDA00BF1037BD4680BD00BFC893012037
:103F700080B586B002AF0023FB600023BB6042E047
:103F800001237B601AE0BA6813469B00134403F1D7
:103F90000D0279680B469B000B44591C1E481346C2
:103FA0005B0013441B0103440B441B78002B02D01D
:103FB000FB680133FB607B6801337B607B68092B06
:103FC000E1DDFB68092B19D1B86800F029F8B86861
:103FD000FFF780FF114B1B680133104A1360002369
:103FE0000093002308222F21002000F031FB0B4B0F
:103FF0001B681A462F21002000F0A0F80023FB6068
:10400000BB680133BB60BB680D2BB9DDFEF7BAFAA4
:1040100000BF1037BD4680BDC893012058930120D2
:1040200080B584B000AF78607B6801337B6001238A
:10403000FB6010E07A6813469B00134403F108000C
:10404000FA6813469B00134401331946FEF794FCAB
:10405000FB680133FB60FB68092BEBDD00BF103709
:10406000BD4680BD80B584B000AFF860B9607A60AD
:104070003B603B68092B5DD801A252F823F000BFDA
:10408000A9400008B7400008C5400008D340000818
:10409000E1400008EF400008FD4000080B41000827
:1040A00019410008274100083B7E7A68B968F86822
:1040B000FDF7B8FF3EE03B7E7A68B968F868FDF727
:1040C000C3FF37E03B7E7A68B968F868FEF700F80E
:1040D00030E03B7E7A68B968F868FEF769F829E055
:1040E0003B7E7A68B968F868FEF7C2F822E03B7E4A
:1040F0007A68B968F868FEF71BF91BE03B7E7A68BE
:10410000B968F868FEF726F914E03B7E7A68B9686A
:10411000F868FEF79BF90DE03B7E7A68B968F868AD
:10412000FEF7D6F906E03B7E7A68B968F868FEF7D4
:10413000FBF900BF00BF1037BD4680BD80B58AB017
:1041400000AFF860B9607A607B68B14A82FB031205
:104150009211DB17D31A7B627B6AAE4A02FB03F231
:104160007B681344AC4A82FB03125211DB17D31A4B
:104170003B627B6AA74A02FB03F27B681A443B6AF4
:104180006FF0630101FB03F31344A44A82FB0312A3
:104190009210DB17D31AFB617B6A9E4A02FB03F283
:1041A0007B681A443B6A6FF0630101FB03F31A4416
:1041B000FB696FF0090101FB03F31344BB610323A7
:1041C0007B6101237A69B968F868FDF7D7F8BA68A6
:1041D0007B69D31A023BBB6001237A69B968F8682E
:1041E000FCF79CFABA687B69D31A023BBB600123D7
:1041F0007A69B968F868FCF731FFBA687B69D31A45
:10420000023BBB6001237A69B968F868FDF73CF8A6
:10421000BA687B69D31A023BBB6001237A69B9682B
:10422000F868FCF715FBBA687B69D31A013BBB60E1
:10423000B968F868FDF7D2FDBA687B69D31A013B0B
:10424000BB607B6A092B5DD801A252F823F000BF46
:10425000794200088742000895420008A3420008FE
:10426000B1420008BF420008CD420008DB4200080E
:10427000E9420008F742000801237A69B968F86842
:10428000FDF7D0FE3EE001237A69B968F868FDF7D2
:10429000DBFE37E001237A69B968F868FDF718FF9B
:1042A00030E001237A69B968F868FDF781FF29E0F9
:1042B00001237A69B968F868FDF7DAFF22E0012383
:1042C0007A69B968F868FEF733F81BE001237A6968
:1042D000B968F868FEF73EF814E001237A69B96816
:1042E000F868FEF7B3F80DE001237A69B968F86859
:1042F000FEF7EEF806E001237A69B968F868FEF780
:1043000013F900BFBA687B69D31A023BBB603B6AF2
:10431000092B5DD801A252F823F000BF45430008E5
:1043200053430008614300086F4300087D430008C1
:104330008B43000899430008A7430008B5430008D1
:10434000C343000801237A69B968F868FDF76AFE7B
:104350003EE001237A69B968F868FDF775FE37E039
:1043600001237A69B968F868FDF7B2FE30E00123ED
:104370007A69B968F868FDF71BFF29E001237A69BB
:10438000B968F868FDF774FF22E001237A69B9681B
:10439000F868FDF7CDFF1BE001237A69B968F8687A
:1043A000FDF7D8FF14E001237A69B968F868FEF7D1
:1043B0004DF80DE001237A69B968F868FEF788F8CE
:1043C00006E001237A69B968F868FEF7ADF800BF26
:1043D000BA687B69D31A023BBB60FB69092B65D8BD
:1043E00001A252F823F000BF214400082F44000826
:1043F0003D4400084B440008594400086744000845
:104400007544000883440008914400089F44000854
:10441000D34D621018FCFFFF1F85EB51676666667F
:1044200001237A69B968F868FDF7FCFD3EE00123D5
:104430007A69B968F868FDF707FE37E001237A6901
:10444000B968F868FDF744FE30E001237A69B9687D
:10445000F868FDF7ADFE29E001237A69B968F868CC
:10446000FDF706FF22E001237A69B968F868FDF7D5
:104470005FFF1BE001237A69B968F868FDF76AFFFE
:1044800014E001237A69B968F868FDF7DFFF0DE0F1
:1044900001237A69B968F868FEF71AF806E0012383
:1044A0007A69B968F868FEF73FF800BFBA687B69B7
:1044B000D31A023BBB60BB69092B5DD801A252F83D
:1044C00023F000BFED440008FB4400080945000844
:1044D00017450008254500083345000841450008F8
:1044E0004F4500085D4500086B45000801237A69C7
:1044F000B968F868FDF796FD3EE001237A69B9686E
:10450000F868FDF7A1FD37E001237A69B968F8681A
:10451000FDF7DEFD30E001237A69B968F868FDF740
:1045200047FE29E001237A69B968F868FDF7A0FE23
:1045300022E001237A69B968F868FDF7F9FE1BE00B
:1045400001237A69B968F868FDF704FF14E00123D4
:104550007A69B968F868FDF779FF0DE001237A6997
:10456000B968F868FDF7B4FF06E001237A69B96815
:10457000F868FDF7D9FF00BF00BF2837BD4680BDF2
:1045800080B582B000AF00237B601EE000233B605B
:1045900015E011497A6813465B0013441B01CA18E1
:1045A0003B68134400221A707B68DBB23A68D1B2D0
:1045B0000022184608F02AFA3B6801333B603B684A
:1045C0002F2BE6DD7B6801337B607B68532BDDDDC1
:1045D00000BF0837BD4680BDC893012080B582B0BA
:1045E00000AF00237B6028E000233B601FE01749F9
:1045F0007A6813465B0013441B01CA183B681344D6
:104600001B78002B08D07B68DBB23A68D1B201225C
:10461000184608F0FBF907E07B68DBB23A68D1B2D4
:104620000022184608F0F2F93B6801333B603B6812
:104630002F2BDCDD7B6801337B607B68532BD3DD64
:1046400008F074FA00BF0837BD4680BDC89301204A
:1046500080B588B000AFF860B9607A603B60FA68F6
:104660007B68D31A1846FBF7A7FD7861BA683B68E8
:10467000D31A1846FBF7A0FD38610023FB611DE04B
:104680000023BB6112E0FA69FB681A44B9693B6810
:104690001944104813465B0013441B0103440B44A8
:1046A00097F828201A70BB690133BB613B695A1C1B
:1046B000BB699A42E7DCFB690133FB617B695A1CE9
:1046C000FB699A42DCDCFFF789FF00BF2037BD465B
:1046D00080BD00BFC893012080B582B000AF8A4B77
:1046E0001B687B60884B1B693B60884B1B68122BE7
:1046F00001F2AE8401A252F823F000BF494700083E
:104700006348000819490008094B0008334C0008A9
:104710004D4D0008774E0008914F000819510008D0
:10472000A55200082154000897550008C1560008FA
:10473000DD5700085D590008C95A0008F95B0008F8
:104740001B5D0008995E0008714B1B683A68D31A1C
:104750005A1E6F4B1B68D31A591E6E487A6813464F
:104760005B0013441B0103440B441B7883F00103DB
:10477000DBB2002B01F04784654B1A687B68134459
:104780005A1C634B1B683968CB1A591E604B1B6857
:10479000CB1A591E5F4813465B0013441B010344A8
:1047A0000B441B7883F00103DBB2002B01F02B8458
:1047B00039687868FEF7E0F8554B1A687B6813444F
:1047C000013339681846FEF7D7F8514B1B6801339F
:1047D0005B003A68D31A19467868FEF769F84C4BC3
:1047E0001A687B681344581C494B1B6801335B00F3
:1047F0003A68D31A1946FEF75BF8434A7B681360A0
:10480000414A7B685360424B1B683A68D31A013BAC
:104810003D4A13613E4B1B6801335B003A68D31A73
:10482000394A53613A4B1A687B6813440133364A5C
:104830009360374B1A687B6813440133324AD36064
:10484000334B1B683A68D31A013B2F4A9361304BB4
:104850001B6801335B003A68D31A2B4AD36101F01D
:10486000D2BB2B4B1B6801339B003A68D11A2948F5
:104870007A6813465B0013441B0103440B441B7806
:1048800083F00103DBB2002B01F0BF833968786845
:10489000FEF772F81E4B1B6801339B003A68D31A6F
:1048A00019467868FEF704F8174A7B681360164AC1
:1048B0007B685360164B1B683A68D31A013B124A57
:1048C0001361134B1B6801335B003A68D31A0E4A1D
:1048D00053610D4A7B6893600B4A7B68D3600C4B35
:1048E0001B6801331A469B00D21A3B681344064AE0
:1048F0009361074B1B6801339B003A68D31A024A45
:10490000D36101F082BB00BF88A301200400002016
:1049100000000020C8930120784B1B683A68D31A26
:10492000591E77487A6813465B0013441B01034401
:104930000B441B7883F00103DBB2002B01F067838B
:104940006E4B1A687B6813445A1C6C4B1B683968A1
:10495000CB1A591E6A4813465B0013441B010344DB
:104960000B441B7883F00103DBB2002B01F04F8373
:10497000624B1B6801335A007B681A445F4B1B680B
:104980003968CB1A591E5E4813465B0013441B015D
:1049900003440B441B7883F00103DBB2002B01F0CE
:1049A0003683564B1B685A1C13465B001A447B68BF
:1049B0001A44524B1B683968CB1A591E504813468B
:1049C0005B0013441B0103440B441B7883F0010379
:1049D000DBB2002B01F01B8339687868FDF7CCFF50
:1049E000464B1B685A1C7B68134439681846FDF710
:1049F000C3FF424B1B6801335A007B68134439687C
:104A00001846FDF7B9FF3D4B1B685A1C13465B0067
:104A10001A447B68134439681846FDF7ADFF374BDD
:104A20001B683A68D31A013B19467868FDF740FFC6
:104A3000324B1B685A1C7B68D018304B1B683A6895
:104A4000D31A013B1946FDF733FF2C4B1B6801338A
:104A50005A007B68D018294B1B683A68D31A013B6F
:104A60001946FDF725FF254B1B685A1C13465B00B2
:104A70001A447B68D018214B1B683A68D31A013B53
:104A80001946FDF715FF1F4A7B6813601B4B1B6817
:104A90003A68D31A013B1B4A1361184B1B685A1C16
:104AA0007B681344174A5360144B1B683A68D31A47
:104AB000013B144A5361114B1B6801335A007B6858
:104AC0001344104A93600D4B1B683A68D31A013B9C
:104AD0000C4A9361094B1B685A1C13465B001A442D
:104AE0007B681344074AD360044B1B683A68D31AA7
:104AF000013B044AD36101F08ABA00BF00000020E4
:104B0000C893012088A301208D4B1B6801331A46EE
:104B10009B00D21A3B68D1188A487A6813465B001A
:104B200013441B0103440B441B7883F00103DBB2E5
:104B3000002B01F06E82824B1B687A68D31A5A1ED2
:104B40007F4B1B68013319469B00C91A3B68194407
:104B50007C4813465B0013441B0103440B441B7841
:104B600083F00103DBB2002B01F0538239687868CF
:104B7000FDF702FF724B1B687A68D31A581E704B00
:104B80001B6801335B003A68D31A1946FDF7F4FE3F
:104B90006B4B1B6801331A469B00D21A3B681344C7
:104BA00019467868FDF784FE654B1B687A68D31A4E
:104BB000581E634B1B6801331A469B00D21A3B6890
:104BC00013441946FDF774FE5F4A7B6813605C4B23
:104BD0001B683A68D31A013B5B4A13615A4A7B68E7
:104BE0005360574B1B6801335B003A68D31A564A2F
:104BF0005361554A7B689360514B1B6801331A46D9
:104C00009B00D21A3B6813444F4A93614C4B1B687C
:104C10007A68D31A013B4C4AD360494B1B68013375
:104C20001A469B00D21A3B681344474AD36101F0ED
:104C3000F0B9434B1B687A68D31A5A1E404B1B6865
:104C40003968CB1A591E3F4813465B0013441B01B9
:104C500003440B441B7883F00103DBB2002B01F00B
:104C6000DA81374B1B6801331A469B00D21A3B6826
:104C7000D11834487A6813465B0013441B0103447F
:104C80000B441B7883F00103DBB2002B01F0C381DE
:104C900039687868FDF770FE294B1B687A68D31A6B
:104CA000013B39681846FDF767FE254B1B687A689B
:104CB000D31A581E224B1B683A68D31A013B194677
:104CC000FDF7F6FD1E4B1B6801331A469B00D21AF6
:104CD0003B68134419467868FDF7EAFD1A4A7B6879
:104CE0001360174B1B683A68D31A013B164A1361CD
:104CF000154A7B685360124B1B6801335B003A68AE
:104D0000D31A114A5361104A7B6893600C4B1B689D
:104D100001331A469B00D21A3B6813440A4A936136
:104D2000074B1B687A68D31A013B074AD360044BD0
:104D30001B683A68D31A013B034AD36101F06BB98F
:104D400000000020C893012088A301208D4B1B6820
:104D500001331A469B00D21A3B68D1188A487A68F8
:104D600013465B0013441B0103440B441B7883F080
:104D70000103DBB2002B01F05081824B1A687B6883
:104D800013445A1C7F4B1B68013319469B00C91AF8
:104D90003B6819447C4813465B0013441B010344E1
:104DA0000B441B7883F00103DBB2002B01F035814B
:104DB00039687868FDF7E0FD724B1A687B68134428
:104DC000581C704B1B6801335B003A68D31A1946B4
:104DD000FDF7D2FD6B4B1B6801331A469B00D21ABC
:104DE0003B68134419467868FDF762FD654B1A6805
:104DF0007B681344581C634B1B6801331A469B00A5
:104E0000D21A3B6813441946FDF752FD5F4A7B688E
:104E100013605C4B1B683A68D31A013B5B4A136111
:104E20005A4A7B685360574B1B6801335B003A68F2
:104E3000D31A564A5361554A7B689360514B1B689D
:104E400001331A469B00D21A3B6813444F4A9361C0
:104E50004C4B1A687B68134401334C4AD360494B6E
:104E60001B6801331A469B00D21A3B681344474A19
:104E7000D36101F0D2B8434B1B6801331A469B0043
:104E8000D21A3B68D11840487A6813465B00134435
:104E90001B0103440B441B7883F00103DBB2002B9E
:104EA00001F0BD80374B1A687B6813445A1C354BA0
:104EB0001B683968CB1A591E334813465B001344EC
:104EC0001B0103440B441B7883F00103DBB2002B6E
:104ED00001F0A58039687868FDF74EFD294B1A6806
:104EE0007B681344013339681846FDF745FD254BAF
:104EF0001A687B681344581C224B1B683A68D31A03
:104F0000013B1946FDF7D4FC1E4B1B6801331A46C2
:104F10009B00D21A3B68134419467868FDF7C8FC19
:104F20001A4A7B681360174B1B683A68D31A013B17
:104F3000164A1361154A7B685360124B1B68013394
:104F40005B003A68D31A114A5361104A7B68936038
:104F50000C4B1B6801331A469B00D21A3B68134462
:104F60000A4A9361074B1A687B6813440133074A66
:104F7000D360044B1B683A68D31A013B034AD361E0
:104F800001F04DB800000020C893012088A3012043
:104F90005E4B1B683A68D31A591E5D487A681346FF
:104FA0005B0013441B0103440B441B7883F0010393
:104FB000DBB2002B01F03580544B1A687B68134438
:104FC0005A1C524B1B683968CB1A591E504813465D
:104FD0005B0013441B0103440B441B7883F0010363
:104FE000DBB2002B01F01D80484B1B6801335A00D7
:104FF0007B681A44454B1B6801335B003968C91A4A
:10500000434813465B0013441B0103440B441B78C5
:1050100083F00103DBB2002B01F00380396878686C
:10502000FDF7AAFC394B1A687B68134401333968D1
:105030001846FDF7A1FC354B1A687B6813445A1CCF
:10504000324B1B681344013339681846FDF794FC52
:105050002E4B1B683A68D31A013B19467868FDF756
:1050600027FC2A4B1A687B681344581C274B1B6883
:105070003A68D31A013B1946FDF71AFC234B1B680B
:1050800001335A007B68D018204B1B6801335B004A
:105090003A68D31A1946FDF70BFC1E4A7B68136069
:1050A0001A4B1B683A68D31A013B1A4A1361174B13
:1050B0001A687B6813440133164A5360134B1B680C
:1050C0003A68D31A013B134A5361104B1B680133F2
:1050D0005A007B6813440F4A93600C4B1B683A6874
:1050E000D31A013B0B4A9361084B1B6801335A00EA
:1050F0007B681344074AD360044B1B6801335B0091
:105100003A68D31A034AD36100F08BBF0000002035
:10511000C893012088A301205F4B1B683A68D31A0B
:10512000591E5E487A6813465B0013441B01034412
:105130000B441B7883F00103DBB2002B00F0738774
:10514000554B1A687B6813445A1C534B1B683968CB
:10515000CB1A591E514813465B0013441B010344EC
:105160000B441B7883F00103DBB2002B00F05B875C
:10517000494B1B6801335A007B681A44464B1B6835
:105180003968CB1A591E454813465B0013441B016E
:1051900003440B441B7883F00103DBB2002B00F0C7
:1051A000428739687868FDF7E7FB3B4B1A687B68F4
:1051B0001344013339681846FDF7DEFB364B1A6895
:1051C0007B6813445A1C344B1B681344581C324BE5
:1051D0001A683B68134401331946FDF7CDFB2E4B8B
:1051E0001B683A68D31A013B19467868FDF760FBE3
:1051F000294B1A687B681344581C274B1B683A6874
:10520000D31A013B1946FDF753FB234B1B680133AF
:105210005A007B68D018204B1B683A68D31A013BB0
:105220001946FDF745FB1E4A7B6813601A4B1B6845
:105230003A68D31A013B1A4A1361174B1A687B6804
:1052400013440133164A5360134B1B683A68D31A50
:10525000013B134A5361104B1B6801335A007B68B2
:1052600013440F4A93600C4B1B683A68D31A013BF6
:105270000B4A9361084B1B6801335A007B68134447
:10528000074AD360044B1B683A68D31A013B044AAF
:10529000D36100F0C8BE00BF00000020C893012009
:1052A00088A301205B4B1B6801335B003A68D11A6D
:1052B00059487A6813465B0013441B0103440B44AE
:1052C0001B7883F00103DBB2002B00F0AE86514B5C
:1052D0001A687B6813445A1C4E4B1B683968CB1AFA
:1052E000591E4D4813465B0013441B0103440B44F5
:1052F0001B7883F00103DBB2002B00F09686454B50
:105300001B6801335A007B681A44424B1B6839689A
:10531000CB1A591E404813465B0013441B0103443B
:105320000B441B7883F00103DBB2002B00F07D8679
:1053300039687868FDF720FB364B1A687B681344A0
:10534000013339681846FDF717FB324B1A687B6842
:1053500013445A1C2F4B1B681344013339681846F9
:10536000FDF70AFB2B4B1B6801335B003A68D31A2D
:1053700019467868FDF79CFA264B1A687B68134437
:10538000581C244B1B683A68D31A013B1946FDF799
:105390008FFA204B1B6801335A007B68D0181D4BD5
:1053A0001B683A68D31A013B1946FDF781FA1B4A7C
:1053B0007B681360174B1B683A68D31A013B174A86
:1053C0001361144B1A687B6813440133134A53600A
:1053D000104B1B683A68D31A013B104A53610D4BBE
:1053E0001B6801335A007B6813440C4A9360094BD5
:1053F0001B683A68D31A013B084A9361074A7B68E5
:10540000D360044B1B683A68D31A013B034AD3614B
:1054100000F00BBE00000020C893012088A30120EB
:10542000A44B1B683A68D31A591EA3487A681346DE
:105430005B0013441B0103440B441B7883F00103FE
:10544000DBB2002B00F0F3859A4B1A687B6813449B
:105450005A1C984B1B683968CB1A591E964813463C
:105460005B0013441B0103440B441B7883F00103CE
:10547000DBB2002B00F0DB858E4B1B6801335A003A
:105480007B681A448B4B1B683968CB1A591E8A48B3
:1054900013465B0013441B0103440B441B7883F049
:1054A0000103DBB2002B00F0C285824B1A683B6817
:1054B0001344013319467868FDF75EFA7D4B1A688C
:1054C0007B681344013339681846FDF755FA794B68
:1054D0001A687B6813445A1C764B1B6813440133CB
:1054E00039681846FDF748FA724B1B683A68D31AB8
:1054F000013B19467868FDF7DBF96E4B1A687B684B
:105500001344581C6B4B1B683A68D31A013B19466D
:10551000FDF7CEF9674B1B6801335A007B68D01842
:10552000644B1B683A68D31A013B1946FDF7C0F972
:10553000624A7B6813605F4B1B683A68D31A013B71
:105540005E4A13615B4B1A687B68134401335B4A04
:105550005360584B1B683A68D31A013B574A536152
:10556000544B1B6801335A007B681344534A9360C1
:10557000504B1B683A68D31A013B504A93614F4A1B
:105580007B68D3604B4B1B683A68D31A013B4B4A8C
:10559000D36100F04CBD474B1B6801331A469B009A
:1055A000D21A3B68D11844487A6813465B0013440A
:1055B0001B0103440B441B7883F00103DBB2002B77
:1055C00000F037853B4B1A687B6813445A1C394BF3
:1055D0001B6801335B003968C91A374813465B0002
:1055E00013441B0103440B441B7883F00103DBB21B
:1055F000002B00F01E8539687868FDF7BDF92D4B4A
:105600001A687B681344581C2A4B1B683A68D31AE3
:10561000013B1946FDF7B0F9264B1B6801331A46CA
:105620009B00D21A3B68134419467868FDF740F98D
:10563000204B1A687B681344581C1E4B1B680133AF
:105640005B003A68D31A1946FDF732F91B4A7B68AA
:105650001360184B1B683A68D31A013B174A136151
:10566000164A7B685360134B1B6801335B003A6832
:10567000D31A124A5361114A7B6893600D4B1B6821
:1056800001331A469B00D21A3B6813440B4A9361BC
:10569000084B1A687B6813440133084AD360054BF2
:1056A0001B6801335B003A68D31A044AD36100F0E7
:1056B000C0BC00BF00000020C893012088A30120C7
:1056C000A34B1B6801331A469B00D21A3B68D118C2
:1056D000A0487A6813465B0013441B0103440B4443
:1056E0001B7883F00103DBB2002B00F0A484984BFD
:1056F0001B687A68D31A5A1E954B1B6801335B00EE
:105700003968C91A934813465B0013441B010344CC
:105710000B441B7883F00103DBB2002B00F08B8479
:1057200039687868FDF728F9894B1B687A68D31ABD
:10573000581E874B1B683A68D31A013B1946FDF780
:105740001BF9834B1B6801331A469B00D21A3B6836
:10575000134419467868FDF7ABF87D4B1B687A68EF
:10576000D31A581E7A4B1B6801335B003A68D31A70
:105770001946FDF79DF8784A7B681360744B1B68E7
:105780003A68D31A013B744A1361734A7B685360C9
:105790006F4B1B6801335B003A68D31A6E4A536142
:1057A0006D4A7B6893606A4B1B6801331A469B0005
:1057B000D21A3B681344684A9361654B1B687A6848
:1057C000D31A013B644AD360614B1B6801335B0011
:1057D0003A68D31A604AD36100F02DBC5C4B1B6859
:1057E0003A68D31A591E5B487A6813465B00134423
:1057F0001B0103440B441B7883F00103DBB2002B35
:1058000000F01B84524B1B6801335A007B681A441A
:105810004F4B1B683968CB1A591E4E4813465B0024
:1058200013441B0103440B441B7883F00103DBB2D8
:10583000002B00F00284464B1A687B6813445A1C04
:10584000434B1B6801335B003968C91A4148134652
:105850005B0013441B0103440B441B7883F00103DA
:10586000DBB2002B00F0E98339687868FDF784F833
:10587000374B1A687B681344013339681846FDF7C3
:105880007BF8334B1B6801335A007B68134439683B
:105890001846FDF771F82E4B1B683A68D31A013B86
:1058A00019467868FDF704F8294B1A687B68134499
:1058B000581C274B1B6801335B003A68D31A194602
:1058C000FCF7F6FF224B1B6801335A007B68D018A7
:1058D0001F4B1B683A68D31A013B1946FCF7E8FFD7
:1058E0001D4A7B6813601A4B1B683A68D31A013B48
:1058F000194A1361164B1A687B6813440133164A20
:105900005360134B1B683A68D31A013B124A536128
:105910000F4B1B6801335A007B6813440E4A936097
:105920000B4B1B683A68D31A013B0B4A9361084B37
:105930001A687B6813440133074AD360044B1B6821
:1059400001335B003A68D31A034AD36175E300BFA1
:1059500000000020C893012088A30120A34B1B68EE
:105960003A68D31A591EA2487A6813465B0013445A
:105970001B0103440B441B7883F00103DBB2002BB3
:1059800000F05D83994B1A687B6813445A1C974B4F
:105990001B683968CB1A591E954813465B0013449F
:1059A0001B0103440B441B7883F00103DBB2002B83
:1059B00000F045838D4B1B6801335A007B681A4405
:1059C0008A4B1B683968CB1A591E894813465B00FD
:1059D00013441B0103440B441B7883F00103DBB227
:1059E000002B00F02C8339687868FCF7C5FF7F4BEB
:1059F0001A687B681344581C7C4B1A683B68134434
:105A000001331946FCF7B8FF784B1B6801335A0085
:105A10007B68134439681846FCF7AEFF734B1B686C
:105A20003A68D31A013B19467868FCF741FF6F4B7F
:105A30001A687B681344581C6C4B1B683A68D31A6D
:105A4000013B1946FCF734FF684B1B6801335A00D1
:105A50007B68D018654B1B683A68D31A013B19461E
:105A6000FCF726FF634A7B681360604B1B683A684B
:105A7000D31A013B5F4A13615C4B1A687B6813447D
:105A800001335C4A5360594B1B683A68D31A013B97
:105A9000584A5361554B1B6801335A007B681344C5
:105AA000544A9360514B1B683A68D31A013B514AE0
:105AB00093614E4B1A687B68134401334D4AD3609F
:105AC0004C4A3B68D361BAE2484B1B6801335B0028
:105AD0003A68D11A46487A6813465B0013441B01A2
